{
  "contracts/Fair.sol": {
    "Fair": {
      "abi": [
        {
          "anonymous": false,
          "inputs": [
            {
              "indexed": false,
              "internalType": "uint256",
              "name": "gameId",
              "type": "uint256"
            }
          ],
          "name": "CreateGame",
          "type": "event"
        },
        {
          "inputs": [
            {
              "internalType": "uint256",
              "name": "",
              "type": "uint256"
            },
            {
              "internalType": "address",
              "name": "",
              "type": "address"
            }
          ],
          "name": "biddersList",
          "outputs": [
            {
              "internalType": "bool",
              "name": "participatedFlag",
              "type": "bool"
            },
            {
              "internalType": "uint8",
              "name": "number",
              "type": "uint8"
            }
          ],
          "stateMutability": "view",
          "type": "function"
        },
        {
          "inputs": [
            {
              "internalType": "uint256",
              "name": "_gameId",
              "type": "uint256"
            }
          ],
          "name": "claim",
          "outputs": [],
          "stateMutability": "nonpayable",
          "type": "function"
        },
        {
          "inputs": [
            {
              "internalType": "uint8",
              "name": "_number",
              "type": "uint8"
            },
            {
              "internalType": "uint8",
              "name": "_limit",
              "type": "uint8"
            }
          ],
          "name": "createGame",
          "outputs": [],
          "stateMutability": "payable",
          "type": "function"
        },
        {
          "inputs": [
            {
              "internalType": "uint256",
              "name": "_gameId",
              "type": "uint256"
            }
          ],
          "name": "finishGame",
          "outputs": [],
          "stateMutability": "nonpayable",
          "type": "function"
        },
        {
          "inputs": [
            {
              "internalType": "uint256",
              "name": "",
              "type": "uint256"
            }
          ],
          "name": "gamesList",
          "outputs": [
            {
              "internalType": "address",
              "name": "owner",
              "type": "address"
            },
            {
              "internalType": "bool",
              "name": "isFinished",
              "type": "bool"
            },
            {
              "internalType": "uint256",
              "name": "bid",
              "type": "uint256"
            },
            {
              "internalType": "uint256",
              "name": "participantsLimit",
              "type": "uint256"
            },
            {
              "internalType": "uint256",
              "name": "createdTimestamp",
              "type": "uint256"
            },
            {
              "internalType": "uint256",
              "name": "pool",
              "type": "uint256"
            },
            {
              "internalType": "uint256",
              "name": "individualPrize",
              "type": "uint256"
            },
            {
              "internalType": "uint8",
              "name": "luckyNumber",
              "type": "uint8"
            }
          ],
          "stateMutability": "view",
          "type": "function"
        },
        {
          "inputs": [],
          "name": "generateRandom",
          "outputs": [
            {
              "internalType": "uint8",
              "name": "",
              "type": "uint8"
            }
          ],
          "stateMutability": "nonpayable",
          "type": "function"
        },
        {
          "inputs": [],
          "name": "getActualGames",
          "outputs": [
            {
              "internalType": "uint256[]",
              "name": "",
              "type": "uint256[]"
            }
          ],
          "stateMutability": "view",
          "type": "function"
        },
        {
          "inputs": [
            {
              "internalType": "uint256",
              "name": "_gameId",
              "type": "uint256"
            },
            {
              "internalType": "address",
              "name": "adr",
              "type": "address"
            }
          ],
          "name": "getBet",
          "outputs": [
            {
              "internalType": "uint8",
              "name": "",
              "type": "uint8"
            }
          ],
          "stateMutability": "view",
          "type": "function"
        },
        {
          "inputs": [
            {
              "internalType": "uint256",
              "name": "_gameId",
              "type": "uint256"
            }
          ],
          "name": "getNumbers",
          "outputs": [
            {
              "internalType": "uint8[]",
              "name": "",
              "type": "uint8[]"
            }
          ],
          "stateMutability": "view",
          "type": "function"
        },
        {
          "inputs": [
            {
              "internalType": "uint256",
              "name": "_gameId",
              "type": "uint256"
            }
          ],
          "name": "getOwner",
          "outputs": [
            {
              "internalType": "address",
              "name": "",
              "type": "address"
            }
          ],
          "stateMutability": "view",
          "type": "function"
        },
        {
          "inputs": [
            {
              "internalType": "uint256",
              "name": "_gameId",
              "type": "uint256"
            }
          ],
          "name": "getPrizes",
          "outputs": [
            {
              "internalType": "uint256[]",
              "name": "",
              "type": "uint256[]"
            },
            {
              "internalType": "address[]",
              "name": "",
              "type": "address[]"
            },
            {
              "internalType": "uint256[]",
              "name": "",
              "type": "uint256[]"
            }
          ],
          "stateMutability": "view",
          "type": "function"
        },
        {
          "inputs": [
            {
              "internalType": "address",
              "name": "_user",
              "type": "address"
            }
          ],
          "name": "getUserGames",
          "outputs": [
            {
              "internalType": "uint256[]",
              "name": "",
              "type": "uint256[]"
            }
          ],
          "stateMutability": "view",
          "type": "function"
        },
        {
          "inputs": [
            {
              "internalType": "uint256",
              "name": "_gameId",
              "type": "uint256"
            },
            {
              "internalType": "uint8",
              "name": "_number",
              "type": "uint8"
            }
          ],
          "name": "joinGame",
          "outputs": [],
          "stateMutability": "payable",
          "type": "function"
        },
        {
          "inputs": [
            {
              "internalType": "address",
              "name": "",
              "type": "address"
            },
            {
              "internalType": "uint256",
              "name": "",
              "type": "uint256"
            }
          ],
          "name": "prizeList",
          "outputs": [
            {
              "internalType": "bool",
              "name": "isWinner",
              "type": "bool"
            },
            {
              "internalType": "bool",
              "name": "isClaimed",
              "type": "bool"
            },
            {
              "internalType": "uint256",
              "name": "prize",
              "type": "uint256"
            }
          ],
          "stateMutability": "view",
          "type": "function"
        }
      ],
      "evm": {
        "bytecode": {
          "linkReferences": {},
          "object": "608060405234801561001057600080fd5b50613da5806100206000396000f3fe6080604052600436106100dd5760003560e01c80635054c0a31161007f578063ca6649c511610059578063ca6649c5146102f5578063cc30779514610311578063cfe186b214610350578063e0950ddf14610379576100dd565b80635054c0a3146102355780639ff0f4a914610279578063c41a360a146102b8576100dd565b806316466fe6116100bb57806316466fe614610166578063208970d514610191578063379607f5146101cf5780634a7b26ae146101f8576100dd565b806302e4af01146100e2578063120aace61461010d5780631346a76d1461014a575b600080fd5b3480156100ee57600080fd5b506100f76103b6565b6040516101049190612d2e565b60405180910390f35b34801561011957600080fd5b50610134600480360381019061012f9190612dac565b610416565b6040516101419190612ea1565b60405180910390f35b610164600480360381019061015f9190612eef565b61097f565b005b34801561017257600080fd5b5061017b610d92565b6040516101889190612ea1565b60405180910390f35b34801561019d57600080fd5b506101b860048036038101906101b39190612f5b565b610f96565b6040516101c6929190612fb6565b60405180910390f35b3480156101db57600080fd5b506101f660048036038101906101f19190612fdf565b610fe1565b005b34801561020457600080fd5b5061021f600480360381019061021a9190612fdf565b611238565b60405161022c91906130ca565b60405180910390f35b34801561024157600080fd5b5061025c60048036038101906102579190612fdf565b6112cc565b60405161027098979695949392919061310a565b60405180910390f35b34801561028557600080fd5b506102a0600480360381019061029b9190613188565b61134e565b6040516102af939291906131c8565b60405180910390f35b3480156102c457600080fd5b506102df60048036038101906102da9190612fdf565b61139f565b6040516102ec91906131ff565b60405180910390f35b61030f600480360381019061030a919061321a565b6113df565b005b34801561031d57600080fd5b5061033860048036038101906103339190612fdf565b611918565b60405161034793929190613318565b60405180910390f35b34801561035c57600080fd5b5061037760048036038101906103729190612fdf565b611d08565b005b34801561038557600080fd5b506103a0600480360381019061039b9190612f5b565b612ca7565b6040516103ad9190612d2e565b60405180910390f35b600080606542336001546040516020016103d2939291906133cd565b6040516020818303038152906040528051906020012060001c6103f59190613439565b90506001600081548092919061040a90613499565b91905055508091505090565b606060006008600660008573ffffffffffffffffffffffffffffffffffffffff1673ffffffffffffffffffffffffffffffffffffffff1681526020019081526020016000206000018054905061046c91906134e2565b67ffffffffffffffff8111156104855761048461353c565b5b6040519080825280602002602001820160405280156104b35781602001602082028036833780820191505090505b5090506000805b600660008673ffffffffffffffffffffffffffffffffffffffff1673ffffffffffffffffffffffffffffffffffffffff16815260200190815260200160002060000180549050811015610974576000600660008773ffffffffffffffffffffffffffffffffffffffff1673ffffffffffffffffffffffffffffffffffffffff168152602001908152602001600020600001828154811061055d5761055c61356b565b5b9060005260206000200154905060046000828152602001908152602001600020600101548484815181106105945761059361356b565b5b6020026020010181815250506004600082815260200190815260200160002060050154846001856105c5919061359a565b815181106105d6576105d561356b565b5b60200260200101818152505060046000828152602001908152602001600020600201805490508460028561060a919061359a565b8151811061061b5761061a61356b565b5b6020026020010181815250508084600485610636919061359a565b815181106106475761064661356b565b5b602002602001018181525050600460008281526020019081526020016000206006015484600585610678919061359a565b815181106106895761068861356b565b5b6020026020010181815250506004600082815260200190815260200160002060080160009054906101000a900460ff1660ff16846006856106ca919061359a565b815181106106db576106da61356b565b5b602002602001018181525050600760008773ffffffffffffffffffffffffffffffffffffffff1673ffffffffffffffffffffffffffffffffffffffff16815260200190815260200160002060008281526020019081526020016000206001015484600785610749919061359a565b8151811061075a5761075961356b565b5b602002602001018181525050600760008773ffffffffffffffffffffffffffffffffffffffff1673ffffffffffffffffffffffffffffffffffffffff168152602001908152602001600020600082815260200190815260200160002060000160019054906101000a900460ff16156107fe576000846003856107dc919061359a565b815181106107ed576107ec61356b565b5b602002602001018181525050610951565b600760008773ffffffffffffffffffffffffffffffffffffffff1673ffffffffffffffffffffffffffffffffffffffff168152602001908152602001600020600082815260200190815260200160002060000160009054906101000a900460ff161561089657600184600385610874919061359a565b815181106108855761088461356b565b5b602002602001018181525050610950565b6004600082815260200190815260200160002060000160149054906101000a900460ff161580156108ea575061012c60046000838152602001908152602001600020600501546108e6919061359a565b4210155b15610921576002846003856108ff919061359a565b815181106109105761090f61356b565b5b60200260200101818152505061094f565b600384600385610931919061359a565b815181106109425761094161356b565b5b6020026020010181815250505b5b5b60088361095e919061359a565b925050808061096c90613499565b9150506104ba565b508192505050919050565b8160008160ff1610158015610998575060648160ff1611155b6109d7576040517f08c379a00000000000000000000000000000000000000000000000000000000081526004016109ce9061364d565b60405180910390fd5b60003411610a1a576040517f08c379a0000000000000000000000000000000000000000000000000000000008152600401610a11906136df565b60405180910390fd5b33600460008054815260200190815260200160002060000160006101000a81548173ffffffffffffffffffffffffffffffffffffffff021916908373ffffffffffffffffffffffffffffffffffffffff1602179055503460046000805481526020019081526020016000206006016000828254610a97919061359a565b92505081905550346004600080548152602001908152602001600020600101819055506004600080548152602001908152602001600020600201339080600181540180825580915050600190039060005260206000200160009091909190916101000a81548173ffffffffffffffffffffffffffffffffffffffff021916908373ffffffffffffffffffffffffffffffffffffffff1602179055508160ff1660046000805481526020019081526020016000206004018190555060046000805481526020019081526020016000206003018390806001815401808255809150506001900390600052602060002090602091828204019190069091909190916101000a81548160ff021916908360ff160217905550426004600080548152602001908152602001600020600501819055506000600460008054815260200190815260200160002060080160006101000a81548160ff021916908360ff16021790555082600560008054815260200190815260200160002060003373ffffffffffffffffffffffffffffffffffffffff1673ffffffffffffffffffffffffffffffffffffffff16815260200190815260200160002060000160016101000a81548160ff021916908360ff1602179055506001600560008054815260200190815260200160002060003373ffffffffffffffffffffffffffffffffffffffff1673ffffffffffffffffffffffffffffffffffffffff16815260200190815260200160002060000160006101000a81548160ff021916908315150217905550600660003373ffffffffffffffffffffffffffffffffffffffff1673ffffffffffffffffffffffffffffffffffffffff16815260200190815260200160002060000160005490806001815401808255809150506001900390600052602060002001600090919091909150557f9e5237c6a8bb45df74799cf138ebda4fed0574bed906da41387acdc4a3cbe3d8600054604051610d6e91906136ff565b60405180910390a1600080815480929190610d8890613499565b9190505550505050565b606060006005600254600054610da8919061371a565b610db291906134e2565b67ffffffffffffffff811115610dcb57610dca61353c565b5b604051908082528060200260200182016040528015610df95781602001602082028036833780820191505090505b50905060008060025490505b600054811015610f8d57600015156004600083815260200190815260200160002060000160149054906101000a900460ff1615151415610f7a576004600082815260200190815260200160002060010154838381518110610e6957610e6861356b565b5b602002602001018181525050600460008281526020019081526020016000206005015483600184610e9a919061359a565b81518110610eab57610eaa61356b565b5b602002602001018181525050600460008281526020019081526020016000206002018054905083600284610edf919061359a565b81518110610ef057610eef61356b565b5b6020026020010181815250508083600384610f0b919061359a565b81518110610f1c57610f1b61356b565b5b602002602001018181525050600460008281526020019081526020016000206004015483600484610f4d919061359a565b81518110610f5e57610f5d61356b565b5b602002602001018181525050600582610f77919061359a565b91505b8080610f8590613499565b915050610e05565b50819250505090565b6005602052816000526040600020602052806000526040600020600091509150508060000160009054906101000a900460ff16908060000160019054906101000a900460ff16905082565b60011515600760003373ffffffffffffffffffffffffffffffffffffffff1673ffffffffffffffffffffffffffffffffffffffff168152602001908152602001600020600083815260200190815260200160002060000160009054906101000a900460ff16151514611088576040517f08c379a000000000000000000000000000000000000000000000000000000000815260040161107f9061379a565b60405180910390fd5b60001515600760003373ffffffffffffffffffffffffffffffffffffffff1673ffffffffffffffffffffffffffffffffffffffff168152602001908152602001600020600083815260200190815260200160002060000160019054906101000a900460ff1615151461112f576040517f08c379a000000000000000000000000000000000000000000000000000000000815260040161112690613806565b60405180910390fd5b6001600760003373ffffffffffffffffffffffffffffffffffffffff1673ffffffffffffffffffffffffffffffffffffffff168152602001908152602001600020600083815260200190815260200160002060000160016101000a81548160ff0219169083151502179055503373ffffffffffffffffffffffffffffffffffffffff166108fc600760003373ffffffffffffffffffffffffffffffffffffffff1673ffffffffffffffffffffffffffffffffffffffff1681526020019081526020016000206000848152602001908152602001600020600101549081150290604051600060405180830381858888f19350505050158015611234573d6000803e3d6000fd5b5050565b6060600460008381526020019081526020016000206003018054806020026020016040519081016040528092919081815260200182805480156112c057602002820191906000526020600020906000905b82829054906101000a900460ff1660ff16815260200190600101906020826000010492830192600103820291508084116112895790505b50505050509050919050565b60046020528060005260406000206000915090508060000160009054906101000a900473ffffffffffffffffffffffffffffffffffffffff16908060000160149054906101000a900460ff16908060010154908060040154908060050154908060060154908060070154908060080160009054906101000a900460ff16905088565b6007602052816000526040600020602052806000526040600020600091509150508060000160009054906101000a900460ff16908060000160019054906101000a900460ff16908060010154905083565b60006004600083815260200190815260200160002060000160009054906101000a900473ffffffffffffffffffffffffffffffffffffffff169050919050565b8060008160ff16101580156113f8575060648160ff1611155b611437576040517f08c379a000000000000000000000000000000000000000000000000000000000815260040161142e9061364d565b60405180910390fd5b8261012c600460008381526020019081526020016000206005015461145c919061359a565b42111561149e576040517f08c379a000000000000000000000000000000000000000000000000000000000815260040161149590613872565b60405180910390fd5b600460008581526020019081526020016000206001015434146114f6576040517f08c379a00000000000000000000000000000000000000000000000000000000081526004016114ed90613904565b60405180910390fd5b6004600085815260200190815260200160002060000160009054906101000a900473ffffffffffffffffffffffffffffffffffffffff1673ffffffffffffffffffffffffffffffffffffffff163373ffffffffffffffffffffffffffffffffffffffff16141561159b576040517f08c379a000000000000000000000000000000000000000000000000000000000815260040161159290613996565b60405180910390fd5b600015156005600086815260200190815260200160002060003373ffffffffffffffffffffffffffffffffffffffff1673ffffffffffffffffffffffffffffffffffffffff16815260200190815260200160002060000160009054906101000a900460ff16151514611642576040517f08c379a000000000000000000000000000000000000000000000000000000000815260040161163990613a02565b60405180910390fd5b600060046000868152602001908152602001600020600401541480611695575060046000858152602001908152602001600020600401546004600086815260200190815260200160002060020180549050105b6116d4576040517f08c379a00000000000000000000000000000000000000000000000000000000081526004016116cb90613a94565b60405180910390fd5b346004600086815260200190815260200160002060060160008282546116fa919061359a565b9250508190555060046000858152602001908152602001600020600201339080600181540180825580915050600190039060005260206000200160009091909190916101000a81548173ffffffffffffffffffffffffffffffffffffffff021916908373ffffffffffffffffffffffffffffffffffffffff160217905550600460008581526020019081526020016000206003018390806001815401808255809150506001900390600052602060002090602091828204019190069091909190916101000a81548160ff021916908360ff160217905550826005600086815260200190815260200160002060003373ffffffffffffffffffffffffffffffffffffffff1673ffffffffffffffffffffffffffffffffffffffff16815260200190815260200160002060000160016101000a81548160ff021916908360ff16021790555060016005600086815260200190815260200160002060003373ffffffffffffffffffffffffffffffffffffffff1673ffffffffffffffffffffffffffffffffffffffff16815260200190815260200160002060000160006101000a81548160ff021916908315150217905550600660003373ffffffffffffffffffffffffffffffffffffffff1673ffffffffffffffffffffffffffffffffffffffff16815260200190815260200160002060000184908060018154018082558091505060019003906000526020600020016000909190919091505550505050565b60608060606000600460008681526020019081526020016000206002018054905067ffffffffffffffff8111156119525761195161353c565b5b6040519080825280602002602001820160405280156119805781602001602082028036833780820191505090505b5090506000600460008781526020019081526020016000206002018054905067ffffffffffffffff8111156119b8576119b761353c565b5b6040519080825280602002602001820160405280156119e65781602001602082028036833780820191505090505b5090506000600460008881526020019081526020016000206002018054905067ffffffffffffffff811115611a1e57611a1d61353c565b5b604051908082528060200260200182016040528015611a4c5781602001602082028036833780820191505090505b50905060005b6004600089815260200190815260200160002060020180549050811015611cf457600460008981526020019081526020016000206003018181548110611a9b57611a9a61356b565b5b90600052602060002090602091828204019190069054906101000a900460ff1660ff16848281518110611ad157611ad061356b565b5b602002602001018181525050600460008981526020019081526020016000206002018181548110611b0557611b0461356b565b5b9060005260206000200160009054906101000a900473ffffffffffffffffffffffffffffffffffffffff16828281518110611b4357611b4261356b565b5b602002602001019073ffffffffffffffffffffffffffffffffffffffff16908173ffffffffffffffffffffffffffffffffffffffff168152505060008060005b600460008c8152602001908152602001600020600a0180549050811015611c5f57848481518110611bb757611bb661356b565b5b602002602001015173ffffffffffffffffffffffffffffffffffffffff16600460008d8152602001908152602001600020600a018281548110611bfd57611bfc61356b565b5b9060005260206000200160009054906101000a900473ffffffffffffffffffffffffffffffffffffffff1673ffffffffffffffffffffffffffffffffffffffff161415611c4c57600192508091505b8080611c5790613499565b915050611b83565b508115611cbd57600460008b81526020019081526020016000206009018181548110611c8e57611c8d61356b565b5b9060005260206000200154858481518110611cac57611cab61356b565b5b602002602001018181525050611cdf565b6000858481518110611cd257611cd161356b565b5b6020026020010181815250505b50508080611cec90613499565b915050611a52565b508181849550955095505050509193909250565b600015156004600083815260200190815260200160002060000160149054906101000a900460ff16151514611d72576040517f08c379a0000000000000000000000000000000000000000000000000000000008152600401611d6990613b00565b60405180910390fd5b61012c6004600083815260200190815260200160002060050154611d96919061359a565b4211611dd7576040517f08c379a0000000000000000000000000000000000000000000000000000000008152600401611dce90613b92565b60405180910390fd5b600115156005600083815260200190815260200160002060003373ffffffffffffffffffffffffffffffffffffffff1673ffffffffffffffffffffffffffffffffffffffff16815260200190815260200160002060000160009054906101000a900460ff16151514611e7e576040517f08c379a0000000000000000000000000000000000000000000000000000000008152600401611e7590613c24565b60405180910390fd5b600160046000838152602001908152602001600020600201805490501415612049576001600760003373ffffffffffffffffffffffffffffffffffffffff1673ffffffffffffffffffffffffffffffffffffffff168152602001908152602001600020600083815260200190815260200160002060000160006101000a81548160ff0219169083151502179055506004600082815260200190815260200160002060060154600760003373ffffffffffffffffffffffffffffffffffffffff1673ffffffffffffffffffffffffffffffffffffffff16815260200190815260200160002060008381526020019081526020016000206001018190555060046000828152602001908152602001600020600a01339080600181540180825580915050600190039060005260206000200160009091909190916101000a81548173ffffffffffffffffffffffffffffffffffffffff021916908373ffffffffffffffffffffffffffffffffffffffff1602179055506004600082815260200190815260200160002060090160046000838152602001908152602001600020600601549080600181540180825580915050600190039060005260206000200160009091909190915055612c6e565b60006120536103b6565b9050806004600084815260200190815260200160002060080160006101000a81548160ff021916908360ff1602179055506000600460008481526020019081526020016000206002018054905067ffffffffffffffff8111156120b9576120b861353c565b5b6040519080825280602002602001820160405280156120e75781602001602082028036833780820191505090505b5090506000600460008581526020019081526020016000206003018054905067ffffffffffffffff81111561211f5761211e61353c565b5b60405190808252806020026020018201604052801561214d5781602001602082028036833780820191505090505b509050600460008581526020019081526020016000206002018054806020026020016040519081016040528092919081815260200182805480156121e657602002820191906000526020600020905b8160009054906101000a900473ffffffffffffffffffffffffffffffffffffffff1673ffffffffffffffffffffffffffffffffffffffff168152602001906001019080831161219c575b505050505091506004600085815260200190815260200160002060030180548060200260200160405190810160405280929190818152602001828054801561227357602002820191906000526020600020906000905b82829054906101000a900460ff1660ff168152602001906001019060208260000104928301926001038202915080841161223c5790505b505050505090506000815167ffffffffffffffff8111156122975761229661353c565b5b6040519080825280602002602001820160405280156122c55781602001602082028036833780820191505090505b50905060005b8351811015612406578460ff168382815181106122eb576122ea61356b565b5b602002602001015160ff16111561234e57848382815181106123105761230f61356b565b5b60200260200101516123229190613c44565b8282815181106123355761233461356b565b5b602002602001019060ff16908160ff16815250506123f3565b8460ff168382815181106123655761236461356b565b5b602002602001015160ff1610156123c8578281815181106123895761238861356b565b5b60200260200101518561239c9190613c44565b8282815181106123af576123ae61356b565b5b602002602001019060ff16908160ff16815250506123f2565b60008282815181106123dd576123dc61356b565b5b602002602001019060ff16908160ff16815250505b5b80806123fe90613499565b9150506122cb565b506000600382516124179190613c78565b9050600081141561242757600190505b60008167ffffffffffffffff8111156124435761244261353c565b5b6040519080825280602002602001820160405280156124715781602001602082028036833780820191505090505b50905060008267ffffffffffffffff8111156124905761248f61353c565b5b6040519080825280602002602001820160405280156124be5781602001602082028036833780820191505090505b50905060005b8381101561261d57600060649050600080600090505b88518160ff161015612548578260ff16888260ff1681518110612500576124ff61356b565b5b602002602001015160ff16101561253557809150878160ff168151811061252a5761252961356b565b5b602002602001015192505b808061254090613ca9565b9150506124da565b506064878260ff16815181106125615761256061356b565b5b602002602001019060ff16908160ff1681525050808584815181106125895761258861356b565b5b602002602001019060ff16908160ff1681525050888160ff16815181106125b3576125b261356b565b5b60200260200101518484815181106125ce576125cd61356b565b5b602002602001019073ffffffffffffffffffffffffffffffffffffffff16908173ffffffffffffffffffffffffffffffffffffffff16815250505050808061261590613499565b9150506124c4565b506001831115612a70576000600460008a81526020019081526020016000206006015490506000600390506000600290505b83518110156126865760016002836126679190613cd3565b6126719190613d0e565b9150808061267e90613499565b91505061264f565b5060008160ff16836126989190613c78565b90506000600185516126aa919061371a565b90505b600081111561289e5781600760008784815181106126ce576126cd61356b565b5b602002602001015173ffffffffffffffffffffffffffffffffffffffff1673ffffffffffffffffffffffffffffffffffffffff16815260200190815260200160002060008e8152602001908152602001600020600101819055506001600760008784815181106127415761274061356b565b5b602002602001015173ffffffffffffffffffffffffffffffffffffffff1673ffffffffffffffffffffffffffffffffffffffff16815260200190815260200160002060008e815260200190815260200160002060000160006101000a81548160ff021916908315150217905550600460008d8152602001908152602001600020600901829080600181540180825580915050600190039060005260206000200160009091909190915055600460008d8152602001908152602001600020600a018582815181106128145761281361356b565b5b60200260200101519080600181540180825580915050600190039060005260206000200160009091909190916101000a81548173ffffffffffffffffffffffffffffffffffffffff021916908373ffffffffffffffffffffffffffffffffffffffff16021790555060028261288991906134e2565b9150808061289690613d45565b9150506126ad565b508060076000866000815181106128b8576128b761356b565b5b602002602001015173ffffffffffffffffffffffffffffffffffffffff1673ffffffffffffffffffffffffffffffffffffffff16815260200190815260200160002060008d8152602001908152602001600020600101819055506001600760008660008151811061292c5761292b61356b565b5b602002602001015173ffffffffffffffffffffffffffffffffffffffff1673ffffffffffffffffffffffffffffffffffffffff16815260200190815260200160002060008d815260200190815260200160002060000160006101000a81548160ff021916908315150217905550600460008c8152602001908152602001600020600901819080600181540180825580915050600190039060005260206000200160009091909190915055600460008c8152602001908152602001600020600a0184600081518110612a00576129ff61356b565b5b60200260200101519080600181540180825580915050600190039060005260206000200160009091909190916101000a81548173ffffffffffffffffffffffffffffffffffffffff021916908373ffffffffffffffffffffffffffffffffffffffff160217905550505050612c66565b60016007600083600081518110612a8a57612a8961356b565b5b602002602001015173ffffffffffffffffffffffffffffffffffffffff1673ffffffffffffffffffffffffffffffffffffffff16815260200190815260200160002060008a815260200190815260200160002060000160006101000a81548160ff02191690831515021790555060046000898152602001908152602001600020600601546007600083600081518110612b2657612b2561356b565b5b602002602001015173ffffffffffffffffffffffffffffffffffffffff1673ffffffffffffffffffffffffffffffffffffffff16815260200190815260200160002060008a81526020019081526020016000206001018190555060046000898152602001908152602001600020600901600460008a815260200190815260200160002060060154908060018154018082558091505060019003906000526020600020016000909190919091505560046000898152602001908152602001600020600a0181600081518110612bfd57612bfc61356b565b5b60200260200101519080600181540180825580915050600190039060005260206000200160009091909190916101000a81548173ffffffffffffffffffffffffffffffffffffffff021916908373ffffffffffffffffffffffffffffffffffffffff1602179055505b505050505050505b60016004600083815260200190815260200160002060000160146101000a81548160ff0219169083151502179055508060028190555050565b60006005600084815260200190815260200160002060008373ffffffffffffffffffffffffffffffffffffffff1673ffffffffffffffffffffffffffffffffffffffff16815260200190815260200160002060000160019054906101000a900460ff16905092915050565b600060ff82169050919050565b612d2881612d12565b82525050565b6000602082019050612d436000830184612d1f565b92915050565b600080fd5b600073ffffffffffffffffffffffffffffffffffffffff82169050919050565b6000612d7982612d4e565b9050919050565b612d8981612d6e565b8114612d9457600080fd5b50565b600081359050612da681612d80565b92915050565b600060208284031215612dc257612dc1612d49565b5b6000612dd084828501612d97565b91505092915050565b600081519050919050565b600082825260208201905092915050565b6000819050602082019050919050565b6000819050919050565b612e1881612e05565b82525050565b6000612e2a8383612e0f565b60208301905092915050565b6000602082019050919050565b6000612e4e82612dd9565b612e588185612de4565b9350612e6383612df5565b8060005b83811015612e94578151612e7b8882612e1e565b9750612e8683612e36565b925050600181019050612e67565b5085935050505092915050565b60006020820190508181036000830152612ebb8184612e43565b905092915050565b612ecc81612d12565b8114612ed757600080fd5b50565b600081359050612ee981612ec3565b92915050565b60008060408385031215612f0657612f05612d49565b5b6000612f1485828601612eda565b9250506020612f2585828601612eda565b9150509250929050565b612f3881612e05565b8114612f4357600080fd5b50565b600081359050612f5581612f2f565b92915050565b60008060408385031215612f7257612f71612d49565b5b6000612f8085828601612f46565b9250506020612f9185828601612d97565b9150509250929050565b60008115159050919050565b612fb081612f9b565b82525050565b6000604082019050612fcb6000830185612fa7565b612fd86020830184612d1f565b9392505050565b600060208284031215612ff557612ff4612d49565b5b600061300384828501612f46565b91505092915050565b600081519050919050565b600082825260208201905092915050565b6000819050602082019050919050565b61304181612d12565b82525050565b60006130538383613038565b60208301905092915050565b6000602082019050919050565b60006130778261300c565b6130818185613017565b935061308c83613028565b8060005b838110156130bd5781516130a48882613047565b97506130af8361305f565b925050600181019050613090565b5085935050505092915050565b600060208201905081810360008301526130e4818461306c565b905092915050565b6130f581612d6e565b82525050565b61310481612e05565b82525050565b600061010082019050613120600083018b6130ec565b61312d602083018a612fa7565b61313a60408301896130fb565b61314760608301886130fb565b61315460808301876130fb565b61316160a08301866130fb565b61316e60c08301856130fb565b61317b60e0830184612d1f565b9998505050505050505050565b6000806040838503121561319f5761319e612d49565b5b60006131ad85828601612d97565b92505060206131be85828601612f46565b9150509250929050565b60006060820190506131dd6000830186612fa7565b6131ea6020830185612fa7565b6131f760408301846130fb565b949350505050565b600060208201905061321460008301846130ec565b92915050565b6000806040838503121561323157613230612d49565b5b600061323f85828601612f46565b925050602061325085828601612eda565b9150509250929050565b600081519050919050565b600082825260208201905092915050565b6000819050602082019050919050565b61328f81612d6e565b82525050565b60006132a18383613286565b60208301905092915050565b6000602082019050919050565b60006132c58261325a565b6132cf8185613265565b93506132da83613276565b8060005b8381101561330b5781516132f28882613295565b97506132fd836132ad565b9250506001810190506132de565b5085935050505092915050565b600060608201905081810360008301526133328186612e43565b9050818103602083015261334681856132ba565b9050818103604083015261335a8184612e43565b9050949350505050565b6000819050919050565b61337f61337a82612e05565b613364565b82525050565b60008160601b9050919050565b600061339d82613385565b9050919050565b60006133af82613392565b9050919050565b6133c76133c282612d6e565b6133a4565b82525050565b60006133d9828661336e565b6020820191506133e982856133b6565b6014820191506133f9828461336e565b602082019150819050949350505050565b7f4e487b7100000000000000000000000000000000000000000000000000000000600052601260045260246000fd5b600061344482612e05565b915061344f83612e05565b92508261345f5761345e61340a565b5b828206905092915050565b7f4e487b7100000000000000000000000000000000000000000000000000000000600052601160045260246000fd5b60006134a482612e05565b91507fffffffffffffffffffffffffffffffffffffffffffffffffffffffffffffffff8214156134d7576134d661346a565b5b600182019050919050565b60006134ed82612e05565b91506134f883612e05565b9250817fffffffffffffffffffffffffffffffffffffffffffffffffffffffffffffffff04831182151516156135315761353061346a565b5b828202905092915050565b7f4e487b7100000000000000000000000000000000000000000000000000000000600052604160045260246000fd5b7f4e487b7100000000000000000000000000000000000000000000000000000000600052603260045260246000fd5b60006135a582612e05565b91506135b083612e05565b9250827fffffffffffffffffffffffffffffffffffffffffffffffffffffffffffffffff038211156135e5576135e461346a565b5b828201905092915050565b600082825260208201905092915050565b7f43686f6f7365206e756d626572206265747765656e203020616e642031303000600082015250565b6000613637601f836135f0565b915061364282613601565b602082019050919050565b600060208201905081810360008301526136668161362a565b9050919050565b7f467265652067616d657320617265206e6f7420737570706f727465642068657260008201527f6521000000000000000000000000000000000000000000000000000000000000602082015250565b60006136c96022836135f0565b91506136d48261366d565b604082019050919050565b600060208201905081810360008301526136f8816136bc565b9050919050565b600060208201905061371460008301846130fb565b92915050565b600061372582612e05565b915061373083612e05565b9250828210156137435761374261346a565b5b828203905092915050565b7f596f7520617265206e6f7420612077696e6e6572206f66207468652067616d65600082015250565b60006137846020836135f0565b915061378f8261374e565b602082019050919050565b600060208201905081810360008301526137b381613777565b9050919050565b7f5072697a6520697320636c61696d656420616c72656164790000000000000000600082015250565b60006137f06018836135f0565b91506137fb826137ba565b602082019050919050565b6000602082019050818103600083015261381f816137e3565b9050919050565b7f5468652067616d652069732066696e6973686564000000000000000000000000600082015250565b600061385c6014836135f0565b915061386782613826565b602082019050919050565b6000602082019050818103600083015261388b8161384f565b9050919050565b7f56616c7565206f6620746865207472616e73616374696f6e2073686f756c642060008201527f626520657175616c20746f207468652067616d65000000000000000000000000602082015250565b60006138ee6034836135f0565b91506138f982613892565b604082019050919050565b6000602082019050818103600083015261391d816138e1565b9050919050565b7f4f776e657220697320616c726561647920696e207061727469636970616e747360008201527f206c697374000000000000000000000000000000000000000000000000000000602082015250565b60006139806025836135f0565b915061398b82613924565b604082019050919050565b600060208201905081810360008301526139af81613973565b9050919050565b7f596f752063616e206e6f74206a6f696e20747769636500000000000000000000600082015250565b60006139ec6016836135f0565b91506139f7826139b6565b602082019050919050565b60006020820190508181036000830152613a1b816139df565b9050919050565b7f5061727469636970616e7473206c696d697420686173206265656e207265616360008201527f6865640000000000000000000000000000000000000000000000000000000000602082015250565b6000613a7e6023836135f0565b9150613a8982613a22565b604082019050919050565b60006020820190508181036000830152613aad81613a71565b9050919050565b7f5468652067616d652069732066696e697368656420616c726561647900000000600082015250565b6000613aea601c836135f0565b9150613af582613ab4565b602082019050919050565b60006020820190508181036000830152613b1981613add565b9050919050565b7f596f752063616e2066696e69736820612067616d65206f6e6c7920616674657260008201527f20657861637420706572696f6400000000000000000000000000000000000000602082015250565b6000613b7c602d836135f0565b9150613b8782613b20565b604082019050919050565b60006020820190508181036000830152613bab81613b6f565b9050919050565b7f4f6e6c79207061727469636970616e74732063616e2066696e6973682061206760008201527f616d650000000000000000000000000000000000000000000000000000000000602082015250565b6000613c0e6023836135f0565b9150613c1982613bb2565b604082019050919050565b60006020820190508181036000830152613c3d81613c01565b9050919050565b6000613c4f82612d12565b9150613c5a83612d12565b925082821015613c6d57613c6c61346a565b5b828203905092915050565b6000613c8382612e05565b9150613c8e83612e05565b925082613c9e57613c9d61340a565b5b828204905092915050565b6000613cb482612d12565b915060ff821415613cc857613cc761346a565b5b600182019050919050565b6000613cde82612d12565b9150613ce983612d12565b92508160ff0483118215151615613d0357613d0261346a565b5b828202905092915050565b6000613d1982612d12565b9150613d2483612d12565b92508260ff03821115613d3a57613d3961346a565b5b828201905092915050565b6000613d5082612e05565b91506000821415613d6457613d6361346a565b5b60018203905091905056fea264697066735822122079999804d77d44c48fecd6ccb546525108345e29494ca886cd2e3e469c49364d64736f6c634300080b0033",
          "opcodes": "PUSH1 0x80 PUSH1 0x40 MSTORE CALLVALUE DUP1 ISZERO PUSH2 0x10 JUMPI PUSH1 0x0 DUP1 REVERT JUMPDEST POP PUSH2 0x3DA5 DUP1 PUSH2 0x20 PUSH1 0x0 CODECOPY PUSH1 0x0 RETURN INVALID PUSH1 0x80 PUSH1 0x40 MSTORE PUSH1 0x4 CALLDATASIZE LT PUSH2 0xDD JUMPI PUSH1 0x0 CALLDATALOAD PUSH1 0xE0 SHR DUP1 PUSH4 0x5054C0A3 GT PUSH2 0x7F JUMPI DUP1 PUSH4 0xCA6649C5 GT PUSH2 0x59 JUMPI DUP1 PUSH4 0xCA6649C5 EQ PUSH2 0x2F5 JUMPI DUP1 PUSH4 0xCC307795 EQ PUSH2 0x311 JUMPI DUP1 PUSH4 0xCFE186B2 EQ PUSH2 0x350 JUMPI DUP1 PUSH4 0xE0950DDF EQ PUSH2 0x379 JUMPI PUSH2 0xDD JUMP JUMPDEST DUP1 PUSH4 0x5054C0A3 EQ PUSH2 0x235 JUMPI DUP1 PUSH4 0x9FF0F4A9 EQ PUSH2 0x279 JUMPI DUP1 PUSH4 0xC41A360A EQ PUSH2 0x2B8 JUMPI PUSH2 0xDD JUMP JUMPDEST DUP1 PUSH4 0x16466FE6 GT PUSH2 0xBB JUMPI DUP1 PUSH4 0x16466FE6 EQ PUSH2 0x166 JUMPI DUP1 PUSH4 0x208970D5 EQ PUSH2 0x191 JUMPI DUP1 PUSH4 0x379607F5 EQ PUSH2 0x1CF JUMPI DUP1 PUSH4 0x4A7B26AE EQ PUSH2 0x1F8 JUMPI PUSH2 0xDD JUMP JUMPDEST DUP1 PUSH4 0x2E4AF01 EQ PUSH2 0xE2 JUMPI DUP1 PUSH4 0x120AACE6 EQ PUSH2 0x10D JUMPI DUP1 PUSH4 0x1346A76D EQ PUSH2 0x14A JUMPI JUMPDEST PUSH1 0x0 DUP1 REVERT JUMPDEST CALLVALUE DUP1 ISZERO PUSH2 0xEE JUMPI PUSH1 0x0 DUP1 REVERT JUMPDEST POP PUSH2 0xF7 PUSH2 0x3B6 JUMP JUMPDEST PUSH1 0x40 MLOAD PUSH2 0x104 SWAP2 SWAP1 PUSH2 0x2D2E JUMP JUMPDEST PUSH1 0x40 MLOAD DUP1 SWAP2 SUB SWAP1 RETURN JUMPDEST CALLVALUE DUP1 ISZERO PUSH2 0x119 JUMPI PUSH1 0x0 DUP1 REVERT JUMPDEST POP PUSH2 0x134 PUSH1 0x4 DUP1 CALLDATASIZE SUB DUP2 ADD SWAP1 PUSH2 0x12F SWAP2 SWAP1 PUSH2 0x2DAC JUMP JUMPDEST PUSH2 0x416 JUMP JUMPDEST PUSH1 0x40 MLOAD PUSH2 0x141 SWAP2 SWAP1 PUSH2 0x2EA1 JUMP JUMPDEST PUSH1 0x40 MLOAD DUP1 SWAP2 SUB SWAP1 RETURN JUMPDEST PUSH2 0x164 PUSH1 0x4 DUP1 CALLDATASIZE SUB DUP2 ADD SWAP1 PUSH2 0x15F SWAP2 SWAP1 PUSH2 0x2EEF JUMP JUMPDEST PUSH2 0x97F JUMP JUMPDEST STOP JUMPDEST CALLVALUE DUP1 ISZERO PUSH2 0x172 JUMPI PUSH1 0x0 DUP1 REVERT JUMPDEST POP PUSH2 0x17B PUSH2 0xD92 JUMP JUMPDEST PUSH1 0x40 MLOAD PUSH2 0x188 SWAP2 SWAP1 PUSH2 0x2EA1 JUMP JUMPDEST PUSH1 0x40 MLOAD DUP1 SWAP2 SUB SWAP1 RETURN JUMPDEST CALLVALUE DUP1 ISZERO PUSH2 0x19D JUMPI PUSH1 0x0 DUP1 REVERT JUMPDEST POP PUSH2 0x1B8 PUSH1 0x4 DUP1 CALLDATASIZE SUB DUP2 ADD SWAP1 PUSH2 0x1B3 SWAP2 SWAP1 PUSH2 0x2F5B JUMP JUMPDEST PUSH2 0xF96 JUMP JUMPDEST PUSH1 0x40 MLOAD PUSH2 0x1C6 SWAP3 SWAP2 SWAP1 PUSH2 0x2FB6 JUMP JUMPDEST PUSH1 0x40 MLOAD DUP1 SWAP2 SUB SWAP1 RETURN JUMPDEST CALLVALUE DUP1 ISZERO PUSH2 0x1DB JUMPI PUSH1 0x0 DUP1 REVERT JUMPDEST POP PUSH2 0x1F6 PUSH1 0x4 DUP1 CALLDATASIZE SUB DUP2 ADD SWAP1 PUSH2 0x1F1 SWAP2 SWAP1 PUSH2 0x2FDF JUMP JUMPDEST PUSH2 0xFE1 JUMP JUMPDEST STOP JUMPDEST CALLVALUE DUP1 ISZERO PUSH2 0x204 JUMPI PUSH1 0x0 DUP1 REVERT JUMPDEST POP PUSH2 0x21F PUSH1 0x4 DUP1 CALLDATASIZE SUB DUP2 ADD SWAP1 PUSH2 0x21A SWAP2 SWAP1 PUSH2 0x2FDF JUMP JUMPDEST PUSH2 0x1238 JUMP JUMPDEST PUSH1 0x40 MLOAD PUSH2 0x22C SWAP2 SWAP1 PUSH2 0x30CA JUMP JUMPDEST PUSH1 0x40 MLOAD DUP1 SWAP2 SUB SWAP1 RETURN JUMPDEST CALLVALUE DUP1 ISZERO PUSH2 0x241 JUMPI PUSH1 0x0 DUP1 REVERT JUMPDEST POP PUSH2 0x25C PUSH1 0x4 DUP1 CALLDATASIZE SUB DUP2 ADD SWAP1 PUSH2 0x257 SWAP2 SWAP1 PUSH2 0x2FDF JUMP JUMPDEST PUSH2 0x12CC JUMP JUMPDEST PUSH1 0x40 MLOAD PUSH2 0x270 SWAP9 SWAP8 SWAP7 SWAP6 SWAP5 SWAP4 SWAP3 SWAP2 SWAP1 PUSH2 0x310A JUMP JUMPDEST PUSH1 0x40 MLOAD DUP1 SWAP2 SUB SWAP1 RETURN JUMPDEST CALLVALUE DUP1 ISZERO PUSH2 0x285 JUMPI PUSH1 0x0 DUP1 REVERT JUMPDEST POP PUSH2 0x2A0 PUSH1 0x4 DUP1 CALLDATASIZE SUB DUP2 ADD SWAP1 PUSH2 0x29B SWAP2 SWAP1 PUSH2 0x3188 JUMP JUMPDEST PUSH2 0x134E JUMP JUMPDEST PUSH1 0x40 MLOAD PUSH2 0x2AF SWAP4 SWAP3 SWAP2 SWAP1 PUSH2 0x31C8 JUMP JUMPDEST PUSH1 0x40 MLOAD DUP1 SWAP2 SUB SWAP1 RETURN JUMPDEST CALLVALUE DUP1 ISZERO PUSH2 0x2C4 JUMPI PUSH1 0x0 DUP1 REVERT JUMPDEST POP PUSH2 0x2DF PUSH1 0x4 DUP1 CALLDATASIZE SUB DUP2 ADD SWAP1 PUSH2 0x2DA SWAP2 SWAP1 PUSH2 0x2FDF JUMP JUMPDEST PUSH2 0x139F JUMP JUMPDEST PUSH1 0x40 MLOAD PUSH2 0x2EC SWAP2 SWAP1 PUSH2 0x31FF JUMP JUMPDEST PUSH1 0x40 MLOAD DUP1 SWAP2 SUB SWAP1 RETURN JUMPDEST PUSH2 0x30F PUSH1 0x4 DUP1 CALLDATASIZE SUB DUP2 ADD SWAP1 PUSH2 0x30A SWAP2 SWAP1 PUSH2 0x321A JUMP JUMPDEST PUSH2 0x13DF JUMP JUMPDEST STOP JUMPDEST CALLVALUE DUP1 ISZERO PUSH2 0x31D JUMPI PUSH1 0x0 DUP1 REVERT JUMPDEST POP PUSH2 0x338 PUSH1 0x4 DUP1 CALLDATASIZE SUB DUP2 ADD SWAP1 PUSH2 0x333 SWAP2 SWAP1 PUSH2 0x2FDF JUMP JUMPDEST PUSH2 0x1918 JUMP JUMPDEST PUSH1 0x40 MLOAD PUSH2 0x347 SWAP4 SWAP3 SWAP2 SWAP1 PUSH2 0x3318 JUMP JUMPDEST PUSH1 0x40 MLOAD DUP1 SWAP2 SUB SWAP1 RETURN JUMPDEST CALLVALUE DUP1 ISZERO PUSH2 0x35C JUMPI PUSH1 0x0 DUP1 REVERT JUMPDEST POP PUSH2 0x377 PUSH1 0x4 DUP1 CALLDATASIZE SUB DUP2 ADD SWAP1 PUSH2 0x372 SWAP2 SWAP1 PUSH2 0x2FDF JUMP JUMPDEST PUSH2 0x1D08 JUMP JUMPDEST STOP JUMPDEST CALLVALUE DUP1 ISZERO PUSH2 0x385 JUMPI PUSH1 0x0 DUP1 REVERT JUMPDEST POP PUSH2 0x3A0 PUSH1 0x4 DUP1 CALLDATASIZE SUB DUP2 ADD SWAP1 PUSH2 0x39B SWAP2 SWAP1 PUSH2 0x2F5B JUMP JUMPDEST PUSH2 0x2CA7 JUMP JUMPDEST PUSH1 0x40 MLOAD PUSH2 0x3AD SWAP2 SWAP1 PUSH2 0x2D2E JUMP JUMPDEST PUSH1 0x40 MLOAD DUP1 SWAP2 SUB SWAP1 RETURN JUMPDEST PUSH1 0x0 DUP1 PUSH1 0x65 TIMESTAMP CALLER PUSH1 0x1 SLOAD PUSH1 0x40 MLOAD PUSH1 0x20 ADD PUSH2 0x3D2 SWAP4 SWAP3 SWAP2 SWAP1 PUSH2 0x33CD JUMP JUMPDEST PUSH1 0x40 MLOAD PUSH1 0x20 DUP2 DUP4 SUB SUB DUP2 MSTORE SWAP1 PUSH1 0x40 MSTORE DUP1 MLOAD SWAP1 PUSH1 0x20 ADD KECCAK256 PUSH1 0x0 SHR PUSH2 0x3F5 SWAP2 SWAP1 PUSH2 0x3439 JUMP JUMPDEST SWAP1 POP PUSH1 0x1 PUSH1 0x0 DUP2 SLOAD DUP1 SWAP3 SWAP2 SWAP1 PUSH2 0x40A SWAP1 PUSH2 0x3499 JUMP JUMPDEST SWAP2 SWAP1 POP SSTORE POP DUP1 SWAP2 POP POP SWAP1 JUMP JUMPDEST PUSH1 0x60 PUSH1 0x0 PUSH1 0x8 PUSH1 0x6 PUSH1 0x0 DUP6 PUSH20 0xFFFFFFFFFFFFFFFFFFFFFFFFFFFFFFFFFFFFFFFF AND PUSH20 0xFFFFFFFFFFFFFFFFFFFFFFFFFFFFFFFFFFFFFFFF AND DUP2 MSTORE PUSH1 0x20 ADD SWAP1 DUP2 MSTORE PUSH1 0x20 ADD PUSH1 0x0 KECCAK256 PUSH1 0x0 ADD DUP1 SLOAD SWAP1 POP PUSH2 0x46C SWAP2 SWAP1 PUSH2 0x34E2 JUMP JUMPDEST PUSH8 0xFFFFFFFFFFFFFFFF DUP2 GT ISZERO PUSH2 0x485 JUMPI PUSH2 0x484 PUSH2 0x353C JUMP JUMPDEST JUMPDEST PUSH1 0x40 MLOAD SWAP1 DUP1 DUP3 MSTORE DUP1 PUSH1 0x20 MUL PUSH1 0x20 ADD DUP3 ADD PUSH1 0x40 MSTORE DUP1 ISZERO PUSH2 0x4B3 JUMPI DUP2 PUSH1 0x20 ADD PUSH1 0x20 DUP3 MUL DUP1 CALLDATASIZE DUP4 CALLDATACOPY DUP1 DUP3 ADD SWAP2 POP POP SWAP1 POP JUMPDEST POP SWAP1 POP PUSH1 0x0 DUP1 JUMPDEST PUSH1 0x6 PUSH1 0x0 DUP7 PUSH20 0xFFFFFFFFFFFFFFFFFFFFFFFFFFFFFFFFFFFFFFFF AND PUSH20 0xFFFFFFFFFFFFFFFFFFFFFFFFFFFFFFFFFFFFFFFF AND DUP2 MSTORE PUSH1 0x20 ADD SWAP1 DUP2 MSTORE PUSH1 0x20 ADD PUSH1 0x0 KECCAK256 PUSH1 0x0 ADD DUP1 SLOAD SWAP1 POP DUP2 LT ISZERO PUSH2 0x974 JUMPI PUSH1 0x0 PUSH1 0x6 PUSH1 0x0 DUP8 PUSH20 0xFFFFFFFFFFFFFFFFFFFFFFFFFFFFFFFFFFFFFFFF AND PUSH20 0xFFFFFFFFFFFFFFFFFFFFFFFFFFFFFFFFFFFFFFFF AND DUP2 MSTORE PUSH1 0x20 ADD SWAP1 DUP2 MSTORE PUSH1 0x20 ADD PUSH1 0x0 KECCAK256 PUSH1 0x0 ADD DUP3 DUP2 SLOAD DUP2 LT PUSH2 0x55D JUMPI PUSH2 0x55C PUSH2 0x356B JUMP JUMPDEST JUMPDEST SWAP1 PUSH1 0x0 MSTORE PUSH1 0x20 PUSH1 0x0 KECCAK256 ADD SLOAD SWAP1 POP PUSH1 0x4 PUSH1 0x0 DUP3 DUP2 MSTORE PUSH1 0x20 ADD SWAP1 DUP2 MSTORE PUSH1 0x20 ADD PUSH1 0x0 KECCAK256 PUSH1 0x1 ADD SLOAD DUP5 DUP5 DUP2 MLOAD DUP2 LT PUSH2 0x594 JUMPI PUSH2 0x593 PUSH2 0x356B JUMP JUMPDEST JUMPDEST PUSH1 0x20 MUL PUSH1 0x20 ADD ADD DUP2 DUP2 MSTORE POP POP PUSH1 0x4 PUSH1 0x0 DUP3 DUP2 MSTORE PUSH1 0x20 ADD SWAP1 DUP2 MSTORE PUSH1 0x20 ADD PUSH1 0x0 KECCAK256 PUSH1 0x5 ADD SLOAD DUP5 PUSH1 0x1 DUP6 PUSH2 0x5C5 SWAP2 SWAP1 PUSH2 0x359A JUMP JUMPDEST DUP2 MLOAD DUP2 LT PUSH2 0x5D6 JUMPI PUSH2 0x5D5 PUSH2 0x356B JUMP JUMPDEST JUMPDEST PUSH1 0x20 MUL PUSH1 0x20 ADD ADD DUP2 DUP2 MSTORE POP POP PUSH1 0x4 PUSH1 0x0 DUP3 DUP2 MSTORE PUSH1 0x20 ADD SWAP1 DUP2 MSTORE PUSH1 0x20 ADD PUSH1 0x0 KECCAK256 PUSH1 0x2 ADD DUP1 SLOAD SWAP1 POP DUP5 PUSH1 0x2 DUP6 PUSH2 0x60A SWAP2 SWAP1 PUSH2 0x359A JUMP JUMPDEST DUP2 MLOAD DUP2 LT PUSH2 0x61B JUMPI PUSH2 0x61A PUSH2 0x356B JUMP JUMPDEST JUMPDEST PUSH1 0x20 MUL PUSH1 0x20 ADD ADD DUP2 DUP2 MSTORE POP POP DUP1 DUP5 PUSH1 0x4 DUP6 PUSH2 0x636 SWAP2 SWAP1 PUSH2 0x359A JUMP JUMPDEST DUP2 MLOAD DUP2 LT PUSH2 0x647 JUMPI PUSH2 0x646 PUSH2 0x356B JUMP JUMPDEST JUMPDEST PUSH1 0x20 MUL PUSH1 0x20 ADD ADD DUP2 DUP2 MSTORE POP POP PUSH1 0x4 PUSH1 0x0 DUP3 DUP2 MSTORE PUSH1 0x20 ADD SWAP1 DUP2 MSTORE PUSH1 0x20 ADD PUSH1 0x0 KECCAK256 PUSH1 0x6 ADD SLOAD DUP5 PUSH1 0x5 DUP6 PUSH2 0x678 SWAP2 SWAP1 PUSH2 0x359A JUMP JUMPDEST DUP2 MLOAD DUP2 LT PUSH2 0x689 JUMPI PUSH2 0x688 PUSH2 0x356B JUMP JUMPDEST JUMPDEST PUSH1 0x20 MUL PUSH1 0x20 ADD ADD DUP2 DUP2 MSTORE POP POP PUSH1 0x4 PUSH1 0x0 DUP3 DUP2 MSTORE PUSH1 0x20 ADD SWAP1 DUP2 MSTORE PUSH1 0x20 ADD PUSH1 0x0 KECCAK256 PUSH1 0x8 ADD PUSH1 0x0 SWAP1 SLOAD SWAP1 PUSH2 0x100 EXP SWAP1 DIV PUSH1 0xFF AND PUSH1 0xFF AND DUP5 PUSH1 0x6 DUP6 PUSH2 0x6CA SWAP2 SWAP1 PUSH2 0x359A JUMP JUMPDEST DUP2 MLOAD DUP2 LT PUSH2 0x6DB JUMPI PUSH2 0x6DA PUSH2 0x356B JUMP JUMPDEST JUMPDEST PUSH1 0x20 MUL PUSH1 0x20 ADD ADD DUP2 DUP2 MSTORE POP POP PUSH1 0x7 PUSH1 0x0 DUP8 PUSH20 0xFFFFFFFFFFFFFFFFFFFFFFFFFFFFFFFFFFFFFFFF AND PUSH20 0xFFFFFFFFFFFFFFFFFFFFFFFFFFFFFFFFFFFFFFFF AND DUP2 MSTORE PUSH1 0x20 ADD SWAP1 DUP2 MSTORE PUSH1 0x20 ADD PUSH1 0x0 KECCAK256 PUSH1 0x0 DUP3 DUP2 MSTORE PUSH1 0x20 ADD SWAP1 DUP2 MSTORE PUSH1 0x20 ADD PUSH1 0x0 KECCAK256 PUSH1 0x1 ADD SLOAD DUP5 PUSH1 0x7 DUP6 PUSH2 0x749 SWAP2 SWAP1 PUSH2 0x359A JUMP JUMPDEST DUP2 MLOAD DUP2 LT PUSH2 0x75A JUMPI PUSH2 0x759 PUSH2 0x356B JUMP JUMPDEST JUMPDEST PUSH1 0x20 MUL PUSH1 0x20 ADD ADD DUP2 DUP2 MSTORE POP POP PUSH1 0x7 PUSH1 0x0 DUP8 PUSH20 0xFFFFFFFFFFFFFFFFFFFFFFFFFFFFFFFFFFFFFFFF AND PUSH20 0xFFFFFFFFFFFFFFFFFFFFFFFFFFFFFFFFFFFFFFFF AND DUP2 MSTORE PUSH1 0x20 ADD SWAP1 DUP2 MSTORE PUSH1 0x20 ADD PUSH1 0x0 KECCAK256 PUSH1 0x0 DUP3 DUP2 MSTORE PUSH1 0x20 ADD SWAP1 DUP2 MSTORE PUSH1 0x20 ADD PUSH1 0x0 KECCAK256 PUSH1 0x0 ADD PUSH1 0x1 SWAP1 SLOAD SWAP1 PUSH2 0x100 EXP SWAP1 DIV PUSH1 0xFF AND ISZERO PUSH2 0x7FE JUMPI PUSH1 0x0 DUP5 PUSH1 0x3 DUP6 PUSH2 0x7DC SWAP2 SWAP1 PUSH2 0x359A JUMP JUMPDEST DUP2 MLOAD DUP2 LT PUSH2 0x7ED JUMPI PUSH2 0x7EC PUSH2 0x356B JUMP JUMPDEST JUMPDEST PUSH1 0x20 MUL PUSH1 0x20 ADD ADD DUP2 DUP2 MSTORE POP POP PUSH2 0x951 JUMP JUMPDEST PUSH1 0x7 PUSH1 0x0 DUP8 PUSH20 0xFFFFFFFFFFFFFFFFFFFFFFFFFFFFFFFFFFFFFFFF AND PUSH20 0xFFFFFFFFFFFFFFFFFFFFFFFFFFFFFFFFFFFFFFFF AND DUP2 MSTORE PUSH1 0x20 ADD SWAP1 DUP2 MSTORE PUSH1 0x20 ADD PUSH1 0x0 KECCAK256 PUSH1 0x0 DUP3 DUP2 MSTORE PUSH1 0x20 ADD SWAP1 DUP2 MSTORE PUSH1 0x20 ADD PUSH1 0x0 KECCAK256 PUSH1 0x0 ADD PUSH1 0x0 SWAP1 SLOAD SWAP1 PUSH2 0x100 EXP SWAP1 DIV PUSH1 0xFF AND ISZERO PUSH2 0x896 JUMPI PUSH1 0x1 DUP5 PUSH1 0x3 DUP6 PUSH2 0x874 SWAP2 SWAP1 PUSH2 0x359A JUMP JUMPDEST DUP2 MLOAD DUP2 LT PUSH2 0x885 JUMPI PUSH2 0x884 PUSH2 0x356B JUMP JUMPDEST JUMPDEST PUSH1 0x20 MUL PUSH1 0x20 ADD ADD DUP2 DUP2 MSTORE POP POP PUSH2 0x950 JUMP JUMPDEST PUSH1 0x4 PUSH1 0x0 DUP3 DUP2 MSTORE PUSH1 0x20 ADD SWAP1 DUP2 MSTORE PUSH1 0x20 ADD PUSH1 0x0 KECCAK256 PUSH1 0x0 ADD PUSH1 0x14 SWAP1 SLOAD SWAP1 PUSH2 0x100 EXP SWAP1 DIV PUSH1 0xFF AND ISZERO DUP1 ISZERO PUSH2 0x8EA JUMPI POP PUSH2 0x12C PUSH1 0x4 PUSH1 0x0 DUP4 DUP2 MSTORE PUSH1 0x20 ADD SWAP1 DUP2 MSTORE PUSH1 0x20 ADD PUSH1 0x0 KECCAK256 PUSH1 0x5 ADD SLOAD PUSH2 0x8E6 SWAP2 SWAP1 PUSH2 0x359A JUMP JUMPDEST TIMESTAMP LT ISZERO JUMPDEST ISZERO PUSH2 0x921 JUMPI PUSH1 0x2 DUP5 PUSH1 0x3 DUP6 PUSH2 0x8FF SWAP2 SWAP1 PUSH2 0x359A JUMP JUMPDEST DUP2 MLOAD DUP2 LT PUSH2 0x910 JUMPI PUSH2 0x90F PUSH2 0x356B JUMP JUMPDEST JUMPDEST PUSH1 0x20 MUL PUSH1 0x20 ADD ADD DUP2 DUP2 MSTORE POP POP PUSH2 0x94F JUMP JUMPDEST PUSH1 0x3 DUP5 PUSH1 0x3 DUP6 PUSH2 0x931 SWAP2 SWAP1 PUSH2 0x359A JUMP JUMPDEST DUP2 MLOAD DUP2 LT PUSH2 0x942 JUMPI PUSH2 0x941 PUSH2 0x356B JUMP JUMPDEST JUMPDEST PUSH1 0x20 MUL PUSH1 0x20 ADD ADD DUP2 DUP2 MSTORE POP POP JUMPDEST JUMPDEST JUMPDEST PUSH1 0x8 DUP4 PUSH2 0x95E SWAP2 SWAP1 PUSH2 0x359A JUMP JUMPDEST SWAP3 POP POP DUP1 DUP1 PUSH2 0x96C SWAP1 PUSH2 0x3499 JUMP JUMPDEST SWAP2 POP POP PUSH2 0x4BA JUMP JUMPDEST POP DUP2 SWAP3 POP POP POP SWAP2 SWAP1 POP JUMP JUMPDEST DUP2 PUSH1 0x0 DUP2 PUSH1 0xFF AND LT ISZERO DUP1 ISZERO PUSH2 0x998 JUMPI POP PUSH1 0x64 DUP2 PUSH1 0xFF AND GT ISZERO JUMPDEST PUSH2 0x9D7 JUMPI PUSH1 0x40 MLOAD PUSH32 0x8C379A000000000000000000000000000000000000000000000000000000000 DUP2 MSTORE PUSH1 0x4 ADD PUSH2 0x9CE SWAP1 PUSH2 0x364D JUMP JUMPDEST PUSH1 0x40 MLOAD DUP1 SWAP2 SUB SWAP1 REVERT JUMPDEST PUSH1 0x0 CALLVALUE GT PUSH2 0xA1A JUMPI PUSH1 0x40 MLOAD PUSH32 0x8C379A000000000000000000000000000000000000000000000000000000000 DUP2 MSTORE PUSH1 0x4 ADD PUSH2 0xA11 SWAP1 PUSH2 0x36DF JUMP JUMPDEST PUSH1 0x40 MLOAD DUP1 SWAP2 SUB SWAP1 REVERT JUMPDEST CALLER PUSH1 0x4 PUSH1 0x0 DUP1 SLOAD DUP2 MSTORE PUSH1 0x20 ADD SWAP1 DUP2 MSTORE PUSH1 0x20 ADD PUSH1 0x0 KECCAK256 PUSH1 0x0 ADD PUSH1 0x0 PUSH2 0x100 EXP DUP2 SLOAD DUP2 PUSH20 0xFFFFFFFFFFFFFFFFFFFFFFFFFFFFFFFFFFFFFFFF MUL NOT AND SWAP1 DUP4 PUSH20 0xFFFFFFFFFFFFFFFFFFFFFFFFFFFFFFFFFFFFFFFF AND MUL OR SWAP1 SSTORE POP CALLVALUE PUSH1 0x4 PUSH1 0x0 DUP1 SLOAD DUP2 MSTORE PUSH1 0x20 ADD SWAP1 DUP2 MSTORE PUSH1 0x20 ADD PUSH1 0x0 KECCAK256 PUSH1 0x6 ADD PUSH1 0x0 DUP3 DUP3 SLOAD PUSH2 0xA97 SWAP2 SWAP1 PUSH2 0x359A JUMP JUMPDEST SWAP3 POP POP DUP2 SWAP1 SSTORE POP CALLVALUE PUSH1 0x4 PUSH1 0x0 DUP1 SLOAD DUP2 MSTORE PUSH1 0x20 ADD SWAP1 DUP2 MSTORE PUSH1 0x20 ADD PUSH1 0x0 KECCAK256 PUSH1 0x1 ADD DUP2 SWAP1 SSTORE POP PUSH1 0x4 PUSH1 0x0 DUP1 SLOAD DUP2 MSTORE PUSH1 0x20 ADD SWAP1 DUP2 MSTORE PUSH1 0x20 ADD PUSH1 0x0 KECCAK256 PUSH1 0x2 ADD CALLER SWAP1 DUP1 PUSH1 0x1 DUP2 SLOAD ADD DUP1 DUP3 SSTORE DUP1 SWAP2 POP POP PUSH1 0x1 SWAP1 SUB SWAP1 PUSH1 0x0 MSTORE PUSH1 0x20 PUSH1 0x0 KECCAK256 ADD PUSH1 0x0 SWAP1 SWAP2 SWAP1 SWAP2 SWAP1 SWAP2 PUSH2 0x100 EXP DUP2 SLOAD DUP2 PUSH20 0xFFFFFFFFFFFFFFFFFFFFFFFFFFFFFFFFFFFFFFFF MUL NOT AND SWAP1 DUP4 PUSH20 0xFFFFFFFFFFFFFFFFFFFFFFFFFFFFFFFFFFFFFFFF AND MUL OR SWAP1 SSTORE POP DUP2 PUSH1 0xFF AND PUSH1 0x4 PUSH1 0x0 DUP1 SLOAD DUP2 MSTORE PUSH1 0x20 ADD SWAP1 DUP2 MSTORE PUSH1 0x20 ADD PUSH1 0x0 KECCAK256 PUSH1 0x4 ADD DUP2 SWAP1 SSTORE POP PUSH1 0x4 PUSH1 0x0 DUP1 SLOAD DUP2 MSTORE PUSH1 0x20 ADD SWAP1 DUP2 MSTORE PUSH1 0x20 ADD PUSH1 0x0 KECCAK256 PUSH1 0x3 ADD DUP4 SWAP1 DUP1 PUSH1 0x1 DUP2 SLOAD ADD DUP1 DUP3 SSTORE DUP1 SWAP2 POP POP PUSH1 0x1 SWAP1 SUB SWAP1 PUSH1 0x0 MSTORE PUSH1 0x20 PUSH1 0x0 KECCAK256 SWAP1 PUSH1 0x20 SWAP2 DUP3 DUP3 DIV ADD SWAP2 SWAP1 MOD SWAP1 SWAP2 SWAP1 SWAP2 SWAP1 SWAP2 PUSH2 0x100 EXP DUP2 SLOAD DUP2 PUSH1 0xFF MUL NOT AND SWAP1 DUP4 PUSH1 0xFF AND MUL OR SWAP1 SSTORE POP TIMESTAMP PUSH1 0x4 PUSH1 0x0 DUP1 SLOAD DUP2 MSTORE PUSH1 0x20 ADD SWAP1 DUP2 MSTORE PUSH1 0x20 ADD PUSH1 0x0 KECCAK256 PUSH1 0x5 ADD DUP2 SWAP1 SSTORE POP PUSH1 0x0 PUSH1 0x4 PUSH1 0x0 DUP1 SLOAD DUP2 MSTORE PUSH1 0x20 ADD SWAP1 DUP2 MSTORE PUSH1 0x20 ADD PUSH1 0x0 KECCAK256 PUSH1 0x8 ADD PUSH1 0x0 PUSH2 0x100 EXP DUP2 SLOAD DUP2 PUSH1 0xFF MUL NOT AND SWAP1 DUP4 PUSH1 0xFF AND MUL OR SWAP1 SSTORE POP DUP3 PUSH1 0x5 PUSH1 0x0 DUP1 SLOAD DUP2 MSTORE PUSH1 0x20 ADD SWAP1 DUP2 MSTORE PUSH1 0x20 ADD PUSH1 0x0 KECCAK256 PUSH1 0x0 CALLER PUSH20 0xFFFFFFFFFFFFFFFFFFFFFFFFFFFFFFFFFFFFFFFF AND PUSH20 0xFFFFFFFFFFFFFFFFFFFFFFFFFFFFFFFFFFFFFFFF AND DUP2 MSTORE PUSH1 0x20 ADD SWAP1 DUP2 MSTORE PUSH1 0x20 ADD PUSH1 0x0 KECCAK256 PUSH1 0x0 ADD PUSH1 0x1 PUSH2 0x100 EXP DUP2 SLOAD DUP2 PUSH1 0xFF MUL NOT AND SWAP1 DUP4 PUSH1 0xFF AND MUL OR SWAP1 SSTORE POP PUSH1 0x1 PUSH1 0x5 PUSH1 0x0 DUP1 SLOAD DUP2 MSTORE PUSH1 0x20 ADD SWAP1 DUP2 MSTORE PUSH1 0x20 ADD PUSH1 0x0 KECCAK256 PUSH1 0x0 CALLER PUSH20 0xFFFFFFFFFFFFFFFFFFFFFFFFFFFFFFFFFFFFFFFF AND PUSH20 0xFFFFFFFFFFFFFFFFFFFFFFFFFFFFFFFFFFFFFFFF AND DUP2 MSTORE PUSH1 0x20 ADD SWAP1 DUP2 MSTORE PUSH1 0x20 ADD PUSH1 0x0 KECCAK256 PUSH1 0x0 ADD PUSH1 0x0 PUSH2 0x100 EXP DUP2 SLOAD DUP2 PUSH1 0xFF MUL NOT AND SWAP1 DUP4 ISZERO ISZERO MUL OR SWAP1 SSTORE POP PUSH1 0x6 PUSH1 0x0 CALLER PUSH20 0xFFFFFFFFFFFFFFFFFFFFFFFFFFFFFFFFFFFFFFFF AND PUSH20 0xFFFFFFFFFFFFFFFFFFFFFFFFFFFFFFFFFFFFFFFF AND DUP2 MSTORE PUSH1 0x20 ADD SWAP1 DUP2 MSTORE PUSH1 0x20 ADD PUSH1 0x0 KECCAK256 PUSH1 0x0 ADD PUSH1 0x0 SLOAD SWAP1 DUP1 PUSH1 0x1 DUP2 SLOAD ADD DUP1 DUP3 SSTORE DUP1 SWAP2 POP POP PUSH1 0x1 SWAP1 SUB SWAP1 PUSH1 0x0 MSTORE PUSH1 0x20 PUSH1 0x0 KECCAK256 ADD PUSH1 0x0 SWAP1 SWAP2 SWAP1 SWAP2 SWAP1 SWAP2 POP SSTORE PUSH32 0x9E5237C6A8BB45DF74799CF138EBDA4FED0574BED906DA41387ACDC4A3CBE3D8 PUSH1 0x0 SLOAD PUSH1 0x40 MLOAD PUSH2 0xD6E SWAP2 SWAP1 PUSH2 0x36FF JUMP JUMPDEST PUSH1 0x40 MLOAD DUP1 SWAP2 SUB SWAP1 LOG1 PUSH1 0x0 DUP1 DUP2 SLOAD DUP1 SWAP3 SWAP2 SWAP1 PUSH2 0xD88 SWAP1 PUSH2 0x3499 JUMP JUMPDEST SWAP2 SWAP1 POP SSTORE POP POP POP POP JUMP JUMPDEST PUSH1 0x60 PUSH1 0x0 PUSH1 0x5 PUSH1 0x2 SLOAD PUSH1 0x0 SLOAD PUSH2 0xDA8 SWAP2 SWAP1 PUSH2 0x371A JUMP JUMPDEST PUSH2 0xDB2 SWAP2 SWAP1 PUSH2 0x34E2 JUMP JUMPDEST PUSH8 0xFFFFFFFFFFFFFFFF DUP2 GT ISZERO PUSH2 0xDCB JUMPI PUSH2 0xDCA PUSH2 0x353C JUMP JUMPDEST JUMPDEST PUSH1 0x40 MLOAD SWAP1 DUP1 DUP3 MSTORE DUP1 PUSH1 0x20 MUL PUSH1 0x20 ADD DUP3 ADD PUSH1 0x40 MSTORE DUP1 ISZERO PUSH2 0xDF9 JUMPI DUP2 PUSH1 0x20 ADD PUSH1 0x20 DUP3 MUL DUP1 CALLDATASIZE DUP4 CALLDATACOPY DUP1 DUP3 ADD SWAP2 POP POP SWAP1 POP JUMPDEST POP SWAP1 POP PUSH1 0x0 DUP1 PUSH1 0x2 SLOAD SWAP1 POP JUMPDEST PUSH1 0x0 SLOAD DUP2 LT ISZERO PUSH2 0xF8D JUMPI PUSH1 0x0 ISZERO ISZERO PUSH1 0x4 PUSH1 0x0 DUP4 DUP2 MSTORE PUSH1 0x20 ADD SWAP1 DUP2 MSTORE PUSH1 0x20 ADD PUSH1 0x0 KECCAK256 PUSH1 0x0 ADD PUSH1 0x14 SWAP1 SLOAD SWAP1 PUSH2 0x100 EXP SWAP1 DIV PUSH1 0xFF AND ISZERO ISZERO EQ ISZERO PUSH2 0xF7A JUMPI PUSH1 0x4 PUSH1 0x0 DUP3 DUP2 MSTORE PUSH1 0x20 ADD SWAP1 DUP2 MSTORE PUSH1 0x20 ADD PUSH1 0x0 KECCAK256 PUSH1 0x1 ADD SLOAD DUP4 DUP4 DUP2 MLOAD DUP2 LT PUSH2 0xE69 JUMPI PUSH2 0xE68 PUSH2 0x356B JUMP JUMPDEST JUMPDEST PUSH1 0x20 MUL PUSH1 0x20 ADD ADD DUP2 DUP2 MSTORE POP POP PUSH1 0x4 PUSH1 0x0 DUP3 DUP2 MSTORE PUSH1 0x20 ADD SWAP1 DUP2 MSTORE PUSH1 0x20 ADD PUSH1 0x0 KECCAK256 PUSH1 0x5 ADD SLOAD DUP4 PUSH1 0x1 DUP5 PUSH2 0xE9A SWAP2 SWAP1 PUSH2 0x359A JUMP JUMPDEST DUP2 MLOAD DUP2 LT PUSH2 0xEAB JUMPI PUSH2 0xEAA PUSH2 0x356B JUMP JUMPDEST JUMPDEST PUSH1 0x20 MUL PUSH1 0x20 ADD ADD DUP2 DUP2 MSTORE POP POP PUSH1 0x4 PUSH1 0x0 DUP3 DUP2 MSTORE PUSH1 0x20 ADD SWAP1 DUP2 MSTORE PUSH1 0x20 ADD PUSH1 0x0 KECCAK256 PUSH1 0x2 ADD DUP1 SLOAD SWAP1 POP DUP4 PUSH1 0x2 DUP5 PUSH2 0xEDF SWAP2 SWAP1 PUSH2 0x359A JUMP JUMPDEST DUP2 MLOAD DUP2 LT PUSH2 0xEF0 JUMPI PUSH2 0xEEF PUSH2 0x356B JUMP JUMPDEST JUMPDEST PUSH1 0x20 MUL PUSH1 0x20 ADD ADD DUP2 DUP2 MSTORE POP POP DUP1 DUP4 PUSH1 0x3 DUP5 PUSH2 0xF0B SWAP2 SWAP1 PUSH2 0x359A JUMP JUMPDEST DUP2 MLOAD DUP2 LT PUSH2 0xF1C JUMPI PUSH2 0xF1B PUSH2 0x356B JUMP JUMPDEST JUMPDEST PUSH1 0x20 MUL PUSH1 0x20 ADD ADD DUP2 DUP2 MSTORE POP POP PUSH1 0x4 PUSH1 0x0 DUP3 DUP2 MSTORE PUSH1 0x20 ADD SWAP1 DUP2 MSTORE PUSH1 0x20 ADD PUSH1 0x0 KECCAK256 PUSH1 0x4 ADD SLOAD DUP4 PUSH1 0x4 DUP5 PUSH2 0xF4D SWAP2 SWAP1 PUSH2 0x359A JUMP JUMPDEST DUP2 MLOAD DUP2 LT PUSH2 0xF5E JUMPI PUSH2 0xF5D PUSH2 0x356B JUMP JUMPDEST JUMPDEST PUSH1 0x20 MUL PUSH1 0x20 ADD ADD DUP2 DUP2 MSTORE POP POP PUSH1 0x5 DUP3 PUSH2 0xF77 SWAP2 SWAP1 PUSH2 0x359A JUMP JUMPDEST SWAP2 POP JUMPDEST DUP1 DUP1 PUSH2 0xF85 SWAP1 PUSH2 0x3499 JUMP JUMPDEST SWAP2 POP POP PUSH2 0xE05 JUMP JUMPDEST POP DUP2 SWAP3 POP POP POP SWAP1 JUMP JUMPDEST PUSH1 0x5 PUSH1 0x20 MSTORE DUP2 PUSH1 0x0 MSTORE PUSH1 0x40 PUSH1 0x0 KECCAK256 PUSH1 0x20 MSTORE DUP1 PUSH1 0x0 MSTORE PUSH1 0x40 PUSH1 0x0 KECCAK256 PUSH1 0x0 SWAP2 POP SWAP2 POP POP DUP1 PUSH1 0x0 ADD PUSH1 0x0 SWAP1 SLOAD SWAP1 PUSH2 0x100 EXP SWAP1 DIV PUSH1 0xFF AND SWAP1 DUP1 PUSH1 0x0 ADD PUSH1 0x1 SWAP1 SLOAD SWAP1 PUSH2 0x100 EXP SWAP1 DIV PUSH1 0xFF AND SWAP1 POP DUP3 JUMP JUMPDEST PUSH1 0x1 ISZERO ISZERO PUSH1 0x7 PUSH1 0x0 CALLER PUSH20 0xFFFFFFFFFFFFFFFFFFFFFFFFFFFFFFFFFFFFFFFF AND PUSH20 0xFFFFFFFFFFFFFFFFFFFFFFFFFFFFFFFFFFFFFFFF AND DUP2 MSTORE PUSH1 0x20 ADD SWAP1 DUP2 MSTORE PUSH1 0x20 ADD PUSH1 0x0 KECCAK256 PUSH1 0x0 DUP4 DUP2 MSTORE PUSH1 0x20 ADD SWAP1 DUP2 MSTORE PUSH1 0x20 ADD PUSH1 0x0 KECCAK256 PUSH1 0x0 ADD PUSH1 0x0 SWAP1 SLOAD SWAP1 PUSH2 0x100 EXP SWAP1 DIV PUSH1 0xFF AND ISZERO ISZERO EQ PUSH2 0x1088 JUMPI PUSH1 0x40 MLOAD PUSH32 0x8C379A000000000000000000000000000000000000000000000000000000000 DUP2 MSTORE PUSH1 0x4 ADD PUSH2 0x107F SWAP1 PUSH2 0x379A JUMP JUMPDEST PUSH1 0x40 MLOAD DUP1 SWAP2 SUB SWAP1 REVERT JUMPDEST PUSH1 0x0 ISZERO ISZERO PUSH1 0x7 PUSH1 0x0 CALLER PUSH20 0xFFFFFFFFFFFFFFFFFFFFFFFFFFFFFFFFFFFFFFFF AND PUSH20 0xFFFFFFFFFFFFFFFFFFFFFFFFFFFFFFFFFFFFFFFF AND DUP2 MSTORE PUSH1 0x20 ADD SWAP1 DUP2 MSTORE PUSH1 0x20 ADD PUSH1 0x0 KECCAK256 PUSH1 0x0 DUP4 DUP2 MSTORE PUSH1 0x20 ADD SWAP1 DUP2 MSTORE PUSH1 0x20 ADD PUSH1 0x0 KECCAK256 PUSH1 0x0 ADD PUSH1 0x1 SWAP1 SLOAD SWAP1 PUSH2 0x100 EXP SWAP1 DIV PUSH1 0xFF AND ISZERO ISZERO EQ PUSH2 0x112F JUMPI PUSH1 0x40 MLOAD PUSH32 0x8C379A000000000000000000000000000000000000000000000000000000000 DUP2 MSTORE PUSH1 0x4 ADD PUSH2 0x1126 SWAP1 PUSH2 0x3806 JUMP JUMPDEST PUSH1 0x40 MLOAD DUP1 SWAP2 SUB SWAP1 REVERT JUMPDEST PUSH1 0x1 PUSH1 0x7 PUSH1 0x0 CALLER PUSH20 0xFFFFFFFFFFFFFFFFFFFFFFFFFFFFFFFFFFFFFFFF AND PUSH20 0xFFFFFFFFFFFFFFFFFFFFFFFFFFFFFFFFFFFFFFFF AND DUP2 MSTORE PUSH1 0x20 ADD SWAP1 DUP2 MSTORE PUSH1 0x20 ADD PUSH1 0x0 KECCAK256 PUSH1 0x0 DUP4 DUP2 MSTORE PUSH1 0x20 ADD SWAP1 DUP2 MSTORE PUSH1 0x20 ADD PUSH1 0x0 KECCAK256 PUSH1 0x0 ADD PUSH1 0x1 PUSH2 0x100 EXP DUP2 SLOAD DUP2 PUSH1 0xFF MUL NOT AND SWAP1 DUP4 ISZERO ISZERO MUL OR SWAP1 SSTORE POP CALLER PUSH20 0xFFFFFFFFFFFFFFFFFFFFFFFFFFFFFFFFFFFFFFFF AND PUSH2 0x8FC PUSH1 0x7 PUSH1 0x0 CALLER PUSH20 0xFFFFFFFFFFFFFFFFFFFFFFFFFFFFFFFFFFFFFFFF AND PUSH20 0xFFFFFFFFFFFFFFFFFFFFFFFFFFFFFFFFFFFFFFFF AND DUP2 MSTORE PUSH1 0x20 ADD SWAP1 DUP2 MSTORE PUSH1 0x20 ADD PUSH1 0x0 KECCAK256 PUSH1 0x0 DUP5 DUP2 MSTORE PUSH1 0x20 ADD SWAP1 DUP2 MSTORE PUSH1 0x20 ADD PUSH1 0x0 KECCAK256 PUSH1 0x1 ADD SLOAD SWAP1 DUP2 ISZERO MUL SWAP1 PUSH1 0x40 MLOAD PUSH1 0x0 PUSH1 0x40 MLOAD DUP1 DUP4 SUB DUP2 DUP6 DUP9 DUP9 CALL SWAP4 POP POP POP POP ISZERO DUP1 ISZERO PUSH2 0x1234 JUMPI RETURNDATASIZE PUSH1 0x0 DUP1 RETURNDATACOPY RETURNDATASIZE PUSH1 0x0 REVERT JUMPDEST POP POP JUMP JUMPDEST PUSH1 0x60 PUSH1 0x4 PUSH1 0x0 DUP4 DUP2 MSTORE PUSH1 0x20 ADD SWAP1 DUP2 MSTORE PUSH1 0x20 ADD PUSH1 0x0 KECCAK256 PUSH1 0x3 ADD DUP1 SLOAD DUP1 PUSH1 0x20 MUL PUSH1 0x20 ADD PUSH1 0x40 MLOAD SWAP1 DUP2 ADD PUSH1 0x40 MSTORE DUP1 SWAP3 SWAP2 SWAP1 DUP2 DUP2 MSTORE PUSH1 0x20 ADD DUP3 DUP1 SLOAD DUP1 ISZERO PUSH2 0x12C0 JUMPI PUSH1 0x20 MUL DUP3 ADD SWAP2 SWAP1 PUSH1 0x0 MSTORE PUSH1 0x20 PUSH1 0x0 KECCAK256 SWAP1 PUSH1 0x0 SWAP1 JUMPDEST DUP3 DUP3 SWAP1 SLOAD SWAP1 PUSH2 0x100 EXP SWAP1 DIV PUSH1 0xFF AND PUSH1 0xFF AND DUP2 MSTORE PUSH1 0x20 ADD SWAP1 PUSH1 0x1 ADD SWAP1 PUSH1 0x20 DUP3 PUSH1 0x0 ADD DIV SWAP3 DUP4 ADD SWAP3 PUSH1 0x1 SUB DUP3 MUL SWAP2 POP DUP1 DUP5 GT PUSH2 0x1289 JUMPI SWAP1 POP JUMPDEST POP POP POP POP POP SWAP1 POP SWAP2 SWAP1 POP JUMP JUMPDEST PUSH1 0x4 PUSH1 0x20 MSTORE DUP1 PUSH1 0x0 MSTORE PUSH1 0x40 PUSH1 0x0 KECCAK256 PUSH1 0x0 SWAP2 POP SWAP1 POP DUP1 PUSH1 0x0 ADD PUSH1 0x0 SWAP1 SLOAD SWAP1 PUSH2 0x100 EXP SWAP1 DIV PUSH20 0xFFFFFFFFFFFFFFFFFFFFFFFFFFFFFFFFFFFFFFFF AND SWAP1 DUP1 PUSH1 0x0 ADD PUSH1 0x14 SWAP1 SLOAD SWAP1 PUSH2 0x100 EXP SWAP1 DIV PUSH1 0xFF AND SWAP1 DUP1 PUSH1 0x1 ADD SLOAD SWAP1 DUP1 PUSH1 0x4 ADD SLOAD SWAP1 DUP1 PUSH1 0x5 ADD SLOAD SWAP1 DUP1 PUSH1 0x6 ADD SLOAD SWAP1 DUP1 PUSH1 0x7 ADD SLOAD SWAP1 DUP1 PUSH1 0x8 ADD PUSH1 0x0 SWAP1 SLOAD SWAP1 PUSH2 0x100 EXP SWAP1 DIV PUSH1 0xFF AND SWAP1 POP DUP9 JUMP JUMPDEST PUSH1 0x7 PUSH1 0x20 MSTORE DUP2 PUSH1 0x0 MSTORE PUSH1 0x40 PUSH1 0x0 KECCAK256 PUSH1 0x20 MSTORE DUP1 PUSH1 0x0 MSTORE PUSH1 0x40 PUSH1 0x0 KECCAK256 PUSH1 0x0 SWAP2 POP SWAP2 POP POP DUP1 PUSH1 0x0 ADD PUSH1 0x0 SWAP1 SLOAD SWAP1 PUSH2 0x100 EXP SWAP1 DIV PUSH1 0xFF AND SWAP1 DUP1 PUSH1 0x0 ADD PUSH1 0x1 SWAP1 SLOAD SWAP1 PUSH2 0x100 EXP SWAP1 DIV PUSH1 0xFF AND SWAP1 DUP1 PUSH1 0x1 ADD SLOAD SWAP1 POP DUP4 JUMP JUMPDEST PUSH1 0x0 PUSH1 0x4 PUSH1 0x0 DUP4 DUP2 MSTORE PUSH1 0x20 ADD SWAP1 DUP2 MSTORE PUSH1 0x20 ADD PUSH1 0x0 KECCAK256 PUSH1 0x0 ADD PUSH1 0x0 SWAP1 SLOAD SWAP1 PUSH2 0x100 EXP SWAP1 DIV PUSH20 0xFFFFFFFFFFFFFFFFFFFFFFFFFFFFFFFFFFFFFFFF AND SWAP1 POP SWAP2 SWAP1 POP JUMP JUMPDEST DUP1 PUSH1 0x0 DUP2 PUSH1 0xFF AND LT ISZERO DUP1 ISZERO PUSH2 0x13F8 JUMPI POP PUSH1 0x64 DUP2 PUSH1 0xFF AND GT ISZERO JUMPDEST PUSH2 0x1437 JUMPI PUSH1 0x40 MLOAD PUSH32 0x8C379A000000000000000000000000000000000000000000000000000000000 DUP2 MSTORE PUSH1 0x4 ADD PUSH2 0x142E SWAP1 PUSH2 0x364D JUMP JUMPDEST PUSH1 0x40 MLOAD DUP1 SWAP2 SUB SWAP1 REVERT JUMPDEST DUP3 PUSH2 0x12C PUSH1 0x4 PUSH1 0x0 DUP4 DUP2 MSTORE PUSH1 0x20 ADD SWAP1 DUP2 MSTORE PUSH1 0x20 ADD PUSH1 0x0 KECCAK256 PUSH1 0x5 ADD SLOAD PUSH2 0x145C SWAP2 SWAP1 PUSH2 0x359A JUMP JUMPDEST TIMESTAMP GT ISZERO PUSH2 0x149E JUMPI PUSH1 0x40 MLOAD PUSH32 0x8C379A000000000000000000000000000000000000000000000000000000000 DUP2 MSTORE PUSH1 0x4 ADD PUSH2 0x1495 SWAP1 PUSH2 0x3872 JUMP JUMPDEST PUSH1 0x40 MLOAD DUP1 SWAP2 SUB SWAP1 REVERT JUMPDEST PUSH1 0x4 PUSH1 0x0 DUP6 DUP2 MSTORE PUSH1 0x20 ADD SWAP1 DUP2 MSTORE PUSH1 0x20 ADD PUSH1 0x0 KECCAK256 PUSH1 0x1 ADD SLOAD CALLVALUE EQ PUSH2 0x14F6 JUMPI PUSH1 0x40 MLOAD PUSH32 0x8C379A000000000000000000000000000000000000000000000000000000000 DUP2 MSTORE PUSH1 0x4 ADD PUSH2 0x14ED SWAP1 PUSH2 0x3904 JUMP JUMPDEST PUSH1 0x40 MLOAD DUP1 SWAP2 SUB SWAP1 REVERT JUMPDEST PUSH1 0x4 PUSH1 0x0 DUP6 DUP2 MSTORE PUSH1 0x20 ADD SWAP1 DUP2 MSTORE PUSH1 0x20 ADD PUSH1 0x0 KECCAK256 PUSH1 0x0 ADD PUSH1 0x0 SWAP1 SLOAD SWAP1 PUSH2 0x100 EXP SWAP1 DIV PUSH20 0xFFFFFFFFFFFFFFFFFFFFFFFFFFFFFFFFFFFFFFFF AND PUSH20 0xFFFFFFFFFFFFFFFFFFFFFFFFFFFFFFFFFFFFFFFF AND CALLER PUSH20 0xFFFFFFFFFFFFFFFFFFFFFFFFFFFFFFFFFFFFFFFF AND EQ ISZERO PUSH2 0x159B JUMPI PUSH1 0x40 MLOAD PUSH32 0x8C379A000000000000000000000000000000000000000000000000000000000 DUP2 MSTORE PUSH1 0x4 ADD PUSH2 0x1592 SWAP1 PUSH2 0x3996 JUMP JUMPDEST PUSH1 0x40 MLOAD DUP1 SWAP2 SUB SWAP1 REVERT JUMPDEST PUSH1 0x0 ISZERO ISZERO PUSH1 0x5 PUSH1 0x0 DUP7 DUP2 MSTORE PUSH1 0x20 ADD SWAP1 DUP2 MSTORE PUSH1 0x20 ADD PUSH1 0x0 KECCAK256 PUSH1 0x0 CALLER PUSH20 0xFFFFFFFFFFFFFFFFFFFFFFFFFFFFFFFFFFFFFFFF AND PUSH20 0xFFFFFFFFFFFFFFFFFFFFFFFFFFFFFFFFFFFFFFFF AND DUP2 MSTORE PUSH1 0x20 ADD SWAP1 DUP2 MSTORE PUSH1 0x20 ADD PUSH1 0x0 KECCAK256 PUSH1 0x0 ADD PUSH1 0x0 SWAP1 SLOAD SWAP1 PUSH2 0x100 EXP SWAP1 DIV PUSH1 0xFF AND ISZERO ISZERO EQ PUSH2 0x1642 JUMPI PUSH1 0x40 MLOAD PUSH32 0x8C379A000000000000000000000000000000000000000000000000000000000 DUP2 MSTORE PUSH1 0x4 ADD PUSH2 0x1639 SWAP1 PUSH2 0x3A02 JUMP JUMPDEST PUSH1 0x40 MLOAD DUP1 SWAP2 SUB SWAP1 REVERT JUMPDEST PUSH1 0x0 PUSH1 0x4 PUSH1 0x0 DUP7 DUP2 MSTORE PUSH1 0x20 ADD SWAP1 DUP2 MSTORE PUSH1 0x20 ADD PUSH1 0x0 KECCAK256 PUSH1 0x4 ADD SLOAD EQ DUP1 PUSH2 0x1695 JUMPI POP PUSH1 0x4 PUSH1 0x0 DUP6 DUP2 MSTORE PUSH1 0x20 ADD SWAP1 DUP2 MSTORE PUSH1 0x20 ADD PUSH1 0x0 KECCAK256 PUSH1 0x4 ADD SLOAD PUSH1 0x4 PUSH1 0x0 DUP7 DUP2 MSTORE PUSH1 0x20 ADD SWAP1 DUP2 MSTORE PUSH1 0x20 ADD PUSH1 0x0 KECCAK256 PUSH1 0x2 ADD DUP1 SLOAD SWAP1 POP LT JUMPDEST PUSH2 0x16D4 JUMPI PUSH1 0x40 MLOAD PUSH32 0x8C379A000000000000000000000000000000000000000000000000000000000 DUP2 MSTORE PUSH1 0x4 ADD PUSH2 0x16CB SWAP1 PUSH2 0x3A94 JUMP JUMPDEST PUSH1 0x40 MLOAD DUP1 SWAP2 SUB SWAP1 REVERT JUMPDEST CALLVALUE PUSH1 0x4 PUSH1 0x0 DUP7 DUP2 MSTORE PUSH1 0x20 ADD SWAP1 DUP2 MSTORE PUSH1 0x20 ADD PUSH1 0x0 KECCAK256 PUSH1 0x6 ADD PUSH1 0x0 DUP3 DUP3 SLOAD PUSH2 0x16FA SWAP2 SWAP1 PUSH2 0x359A JUMP JUMPDEST SWAP3 POP POP DUP2 SWAP1 SSTORE POP PUSH1 0x4 PUSH1 0x0 DUP6 DUP2 MSTORE PUSH1 0x20 ADD SWAP1 DUP2 MSTORE PUSH1 0x20 ADD PUSH1 0x0 KECCAK256 PUSH1 0x2 ADD CALLER SWAP1 DUP1 PUSH1 0x1 DUP2 SLOAD ADD DUP1 DUP3 SSTORE DUP1 SWAP2 POP POP PUSH1 0x1 SWAP1 SUB SWAP1 PUSH1 0x0 MSTORE PUSH1 0x20 PUSH1 0x0 KECCAK256 ADD PUSH1 0x0 SWAP1 SWAP2 SWAP1 SWAP2 SWAP1 SWAP2 PUSH2 0x100 EXP DUP2 SLOAD DUP2 PUSH20 0xFFFFFFFFFFFFFFFFFFFFFFFFFFFFFFFFFFFFFFFF MUL NOT AND SWAP1 DUP4 PUSH20 0xFFFFFFFFFFFFFFFFFFFFFFFFFFFFFFFFFFFFFFFF AND MUL OR SWAP1 SSTORE POP PUSH1 0x4 PUSH1 0x0 DUP6 DUP2 MSTORE PUSH1 0x20 ADD SWAP1 DUP2 MSTORE PUSH1 0x20 ADD PUSH1 0x0 KECCAK256 PUSH1 0x3 ADD DUP4 SWAP1 DUP1 PUSH1 0x1 DUP2 SLOAD ADD DUP1 DUP3 SSTORE DUP1 SWAP2 POP POP PUSH1 0x1 SWAP1 SUB SWAP1 PUSH1 0x0 MSTORE PUSH1 0x20 PUSH1 0x0 KECCAK256 SWAP1 PUSH1 0x20 SWAP2 DUP3 DUP3 DIV ADD SWAP2 SWAP1 MOD SWAP1 SWAP2 SWAP1 SWAP2 SWAP1 SWAP2 PUSH2 0x100 EXP DUP2 SLOAD DUP2 PUSH1 0xFF MUL NOT AND SWAP1 DUP4 PUSH1 0xFF AND MUL OR SWAP1 SSTORE POP DUP3 PUSH1 0x5 PUSH1 0x0 DUP7 DUP2 MSTORE PUSH1 0x20 ADD SWAP1 DUP2 MSTORE PUSH1 0x20 ADD PUSH1 0x0 KECCAK256 PUSH1 0x0 CALLER PUSH20 0xFFFFFFFFFFFFFFFFFFFFFFFFFFFFFFFFFFFFFFFF AND PUSH20 0xFFFFFFFFFFFFFFFFFFFFFFFFFFFFFFFFFFFFFFFF AND DUP2 MSTORE PUSH1 0x20 ADD SWAP1 DUP2 MSTORE PUSH1 0x20 ADD PUSH1 0x0 KECCAK256 PUSH1 0x0 ADD PUSH1 0x1 PUSH2 0x100 EXP DUP2 SLOAD DUP2 PUSH1 0xFF MUL NOT AND SWAP1 DUP4 PUSH1 0xFF AND MUL OR SWAP1 SSTORE POP PUSH1 0x1 PUSH1 0x5 PUSH1 0x0 DUP7 DUP2 MSTORE PUSH1 0x20 ADD SWAP1 DUP2 MSTORE PUSH1 0x20 ADD PUSH1 0x0 KECCAK256 PUSH1 0x0 CALLER PUSH20 0xFFFFFFFFFFFFFFFFFFFFFFFFFFFFFFFFFFFFFFFF AND PUSH20 0xFFFFFFFFFFFFFFFFFFFFFFFFFFFFFFFFFFFFFFFF AND DUP2 MSTORE PUSH1 0x20 ADD SWAP1 DUP2 MSTORE PUSH1 0x20 ADD PUSH1 0x0 KECCAK256 PUSH1 0x0 ADD PUSH1 0x0 PUSH2 0x100 EXP DUP2 SLOAD DUP2 PUSH1 0xFF MUL NOT AND SWAP1 DUP4 ISZERO ISZERO MUL OR SWAP1 SSTORE POP PUSH1 0x6 PUSH1 0x0 CALLER PUSH20 0xFFFFFFFFFFFFFFFFFFFFFFFFFFFFFFFFFFFFFFFF AND PUSH20 0xFFFFFFFFFFFFFFFFFFFFFFFFFFFFFFFFFFFFFFFF AND DUP2 MSTORE PUSH1 0x20 ADD SWAP1 DUP2 MSTORE PUSH1 0x20 ADD PUSH1 0x0 KECCAK256 PUSH1 0x0 ADD DUP5 SWAP1 DUP1 PUSH1 0x1 DUP2 SLOAD ADD DUP1 DUP3 SSTORE DUP1 SWAP2 POP POP PUSH1 0x1 SWAP1 SUB SWAP1 PUSH1 0x0 MSTORE PUSH1 0x20 PUSH1 0x0 KECCAK256 ADD PUSH1 0x0 SWAP1 SWAP2 SWAP1 SWAP2 SWAP1 SWAP2 POP SSTORE POP POP POP POP JUMP JUMPDEST PUSH1 0x60 DUP1 PUSH1 0x60 PUSH1 0x0 PUSH1 0x4 PUSH1 0x0 DUP7 DUP2 MSTORE PUSH1 0x20 ADD SWAP1 DUP2 MSTORE PUSH1 0x20 ADD PUSH1 0x0 KECCAK256 PUSH1 0x2 ADD DUP1 SLOAD SWAP1 POP PUSH8 0xFFFFFFFFFFFFFFFF DUP2 GT ISZERO PUSH2 0x1952 JUMPI PUSH2 0x1951 PUSH2 0x353C JUMP JUMPDEST JUMPDEST PUSH1 0x40 MLOAD SWAP1 DUP1 DUP3 MSTORE DUP1 PUSH1 0x20 MUL PUSH1 0x20 ADD DUP3 ADD PUSH1 0x40 MSTORE DUP1 ISZERO PUSH2 0x1980 JUMPI DUP2 PUSH1 0x20 ADD PUSH1 0x20 DUP3 MUL DUP1 CALLDATASIZE DUP4 CALLDATACOPY DUP1 DUP3 ADD SWAP2 POP POP SWAP1 POP JUMPDEST POP SWAP1 POP PUSH1 0x0 PUSH1 0x4 PUSH1 0x0 DUP8 DUP2 MSTORE PUSH1 0x20 ADD SWAP1 DUP2 MSTORE PUSH1 0x20 ADD PUSH1 0x0 KECCAK256 PUSH1 0x2 ADD DUP1 SLOAD SWAP1 POP PUSH8 0xFFFFFFFFFFFFFFFF DUP2 GT ISZERO PUSH2 0x19B8 JUMPI PUSH2 0x19B7 PUSH2 0x353C JUMP JUMPDEST JUMPDEST PUSH1 0x40 MLOAD SWAP1 DUP1 DUP3 MSTORE DUP1 PUSH1 0x20 MUL PUSH1 0x20 ADD DUP3 ADD PUSH1 0x40 MSTORE DUP1 ISZERO PUSH2 0x19E6 JUMPI DUP2 PUSH1 0x20 ADD PUSH1 0x20 DUP3 MUL DUP1 CALLDATASIZE DUP4 CALLDATACOPY DUP1 DUP3 ADD SWAP2 POP POP SWAP1 POP JUMPDEST POP SWAP1 POP PUSH1 0x0 PUSH1 0x4 PUSH1 0x0 DUP9 DUP2 MSTORE PUSH1 0x20 ADD SWAP1 DUP2 MSTORE PUSH1 0x20 ADD PUSH1 0x0 KECCAK256 PUSH1 0x2 ADD DUP1 SLOAD SWAP1 POP PUSH8 0xFFFFFFFFFFFFFFFF DUP2 GT ISZERO PUSH2 0x1A1E JUMPI PUSH2 0x1A1D PUSH2 0x353C JUMP JUMPDEST JUMPDEST PUSH1 0x40 MLOAD SWAP1 DUP1 DUP3 MSTORE DUP1 PUSH1 0x20 MUL PUSH1 0x20 ADD DUP3 ADD PUSH1 0x40 MSTORE DUP1 ISZERO PUSH2 0x1A4C JUMPI DUP2 PUSH1 0x20 ADD PUSH1 0x20 DUP3 MUL DUP1 CALLDATASIZE DUP4 CALLDATACOPY DUP1 DUP3 ADD SWAP2 POP POP SWAP1 POP JUMPDEST POP SWAP1 POP PUSH1 0x0 JUMPDEST PUSH1 0x4 PUSH1 0x0 DUP10 DUP2 MSTORE PUSH1 0x20 ADD SWAP1 DUP2 MSTORE PUSH1 0x20 ADD PUSH1 0x0 KECCAK256 PUSH1 0x2 ADD DUP1 SLOAD SWAP1 POP DUP2 LT ISZERO PUSH2 0x1CF4 JUMPI PUSH1 0x4 PUSH1 0x0 DUP10 DUP2 MSTORE PUSH1 0x20 ADD SWAP1 DUP2 MSTORE PUSH1 0x20 ADD PUSH1 0x0 KECCAK256 PUSH1 0x3 ADD DUP2 DUP2 SLOAD DUP2 LT PUSH2 0x1A9B JUMPI PUSH2 0x1A9A PUSH2 0x356B JUMP JUMPDEST JUMPDEST SWAP1 PUSH1 0x0 MSTORE PUSH1 0x20 PUSH1 0x0 KECCAK256 SWAP1 PUSH1 0x20 SWAP2 DUP3 DUP3 DIV ADD SWAP2 SWAP1 MOD SWAP1 SLOAD SWAP1 PUSH2 0x100 EXP SWAP1 DIV PUSH1 0xFF AND PUSH1 0xFF AND DUP5 DUP3 DUP2 MLOAD DUP2 LT PUSH2 0x1AD1 JUMPI PUSH2 0x1AD0 PUSH2 0x356B JUMP JUMPDEST JUMPDEST PUSH1 0x20 MUL PUSH1 0x20 ADD ADD DUP2 DUP2 MSTORE POP POP PUSH1 0x4 PUSH1 0x0 DUP10 DUP2 MSTORE PUSH1 0x20 ADD SWAP1 DUP2 MSTORE PUSH1 0x20 ADD PUSH1 0x0 KECCAK256 PUSH1 0x2 ADD DUP2 DUP2 SLOAD DUP2 LT PUSH2 0x1B05 JUMPI PUSH2 0x1B04 PUSH2 0x356B JUMP JUMPDEST JUMPDEST SWAP1 PUSH1 0x0 MSTORE PUSH1 0x20 PUSH1 0x0 KECCAK256 ADD PUSH1 0x0 SWAP1 SLOAD SWAP1 PUSH2 0x100 EXP SWAP1 DIV PUSH20 0xFFFFFFFFFFFFFFFFFFFFFFFFFFFFFFFFFFFFFFFF AND DUP3 DUP3 DUP2 MLOAD DUP2 LT PUSH2 0x1B43 JUMPI PUSH2 0x1B42 PUSH2 0x356B JUMP JUMPDEST JUMPDEST PUSH1 0x20 MUL PUSH1 0x20 ADD ADD SWAP1 PUSH20 0xFFFFFFFFFFFFFFFFFFFFFFFFFFFFFFFFFFFFFFFF AND SWAP1 DUP2 PUSH20 0xFFFFFFFFFFFFFFFFFFFFFFFFFFFFFFFFFFFFFFFF AND DUP2 MSTORE POP POP PUSH1 0x0 DUP1 PUSH1 0x0 JUMPDEST PUSH1 0x4 PUSH1 0x0 DUP13 DUP2 MSTORE PUSH1 0x20 ADD SWAP1 DUP2 MSTORE PUSH1 0x20 ADD PUSH1 0x0 KECCAK256 PUSH1 0xA ADD DUP1 SLOAD SWAP1 POP DUP2 LT ISZERO PUSH2 0x1C5F JUMPI DUP5 DUP5 DUP2 MLOAD DUP2 LT PUSH2 0x1BB7 JUMPI PUSH2 0x1BB6 PUSH2 0x356B JUMP JUMPDEST JUMPDEST PUSH1 0x20 MUL PUSH1 0x20 ADD ADD MLOAD PUSH20 0xFFFFFFFFFFFFFFFFFFFFFFFFFFFFFFFFFFFFFFFF AND PUSH1 0x4 PUSH1 0x0 DUP14 DUP2 MSTORE PUSH1 0x20 ADD SWAP1 DUP2 MSTORE PUSH1 0x20 ADD PUSH1 0x0 KECCAK256 PUSH1 0xA ADD DUP3 DUP2 SLOAD DUP2 LT PUSH2 0x1BFD JUMPI PUSH2 0x1BFC PUSH2 0x356B JUMP JUMPDEST JUMPDEST SWAP1 PUSH1 0x0 MSTORE PUSH1 0x20 PUSH1 0x0 KECCAK256 ADD PUSH1 0x0 SWAP1 SLOAD SWAP1 PUSH2 0x100 EXP SWAP1 DIV PUSH20 0xFFFFFFFFFFFFFFFFFFFFFFFFFFFFFFFFFFFFFFFF AND PUSH20 0xFFFFFFFFFFFFFFFFFFFFFFFFFFFFFFFFFFFFFFFF AND EQ ISZERO PUSH2 0x1C4C JUMPI PUSH1 0x1 SWAP3 POP DUP1 SWAP2 POP JUMPDEST DUP1 DUP1 PUSH2 0x1C57 SWAP1 PUSH2 0x3499 JUMP JUMPDEST SWAP2 POP POP PUSH2 0x1B83 JUMP JUMPDEST POP DUP2 ISZERO PUSH2 0x1CBD JUMPI PUSH1 0x4 PUSH1 0x0 DUP12 DUP2 MSTORE PUSH1 0x20 ADD SWAP1 DUP2 MSTORE PUSH1 0x20 ADD PUSH1 0x0 KECCAK256 PUSH1 0x9 ADD DUP2 DUP2 SLOAD DUP2 LT PUSH2 0x1C8E JUMPI PUSH2 0x1C8D PUSH2 0x356B JUMP JUMPDEST JUMPDEST SWAP1 PUSH1 0x0 MSTORE PUSH1 0x20 PUSH1 0x0 KECCAK256 ADD SLOAD DUP6 DUP5 DUP2 MLOAD DUP2 LT PUSH2 0x1CAC JUMPI PUSH2 0x1CAB PUSH2 0x356B JUMP JUMPDEST JUMPDEST PUSH1 0x20 MUL PUSH1 0x20 ADD ADD DUP2 DUP2 MSTORE POP POP PUSH2 0x1CDF JUMP JUMPDEST PUSH1 0x0 DUP6 DUP5 DUP2 MLOAD DUP2 LT PUSH2 0x1CD2 JUMPI PUSH2 0x1CD1 PUSH2 0x356B JUMP JUMPDEST JUMPDEST PUSH1 0x20 MUL PUSH1 0x20 ADD ADD DUP2 DUP2 MSTORE POP POP JUMPDEST POP POP DUP1 DUP1 PUSH2 0x1CEC SWAP1 PUSH2 0x3499 JUMP JUMPDEST SWAP2 POP POP PUSH2 0x1A52 JUMP JUMPDEST POP DUP2 DUP2 DUP5 SWAP6 POP SWAP6 POP SWAP6 POP POP POP POP SWAP2 SWAP4 SWAP1 SWAP3 POP JUMP JUMPDEST PUSH1 0x0 ISZERO ISZERO PUSH1 0x4 PUSH1 0x0 DUP4 DUP2 MSTORE PUSH1 0x20 ADD SWAP1 DUP2 MSTORE PUSH1 0x20 ADD PUSH1 0x0 KECCAK256 PUSH1 0x0 ADD PUSH1 0x14 SWAP1 SLOAD SWAP1 PUSH2 0x100 EXP SWAP1 DIV PUSH1 0xFF AND ISZERO ISZERO EQ PUSH2 0x1D72 JUMPI PUSH1 0x40 MLOAD PUSH32 0x8C379A000000000000000000000000000000000000000000000000000000000 DUP2 MSTORE PUSH1 0x4 ADD PUSH2 0x1D69 SWAP1 PUSH2 0x3B00 JUMP JUMPDEST PUSH1 0x40 MLOAD DUP1 SWAP2 SUB SWAP1 REVERT JUMPDEST PUSH2 0x12C PUSH1 0x4 PUSH1 0x0 DUP4 DUP2 MSTORE PUSH1 0x20 ADD SWAP1 DUP2 MSTORE PUSH1 0x20 ADD PUSH1 0x0 KECCAK256 PUSH1 0x5 ADD SLOAD PUSH2 0x1D96 SWAP2 SWAP1 PUSH2 0x359A JUMP JUMPDEST TIMESTAMP GT PUSH2 0x1DD7 JUMPI PUSH1 0x40 MLOAD PUSH32 0x8C379A000000000000000000000000000000000000000000000000000000000 DUP2 MSTORE PUSH1 0x4 ADD PUSH2 0x1DCE SWAP1 PUSH2 0x3B92 JUMP JUMPDEST PUSH1 0x40 MLOAD DUP1 SWAP2 SUB SWAP1 REVERT JUMPDEST PUSH1 0x1 ISZERO ISZERO PUSH1 0x5 PUSH1 0x0 DUP4 DUP2 MSTORE PUSH1 0x20 ADD SWAP1 DUP2 MSTORE PUSH1 0x20 ADD PUSH1 0x0 KECCAK256 PUSH1 0x0 CALLER PUSH20 0xFFFFFFFFFFFFFFFFFFFFFFFFFFFFFFFFFFFFFFFF AND PUSH20 0xFFFFFFFFFFFFFFFFFFFFFFFFFFFFFFFFFFFFFFFF AND DUP2 MSTORE PUSH1 0x20 ADD SWAP1 DUP2 MSTORE PUSH1 0x20 ADD PUSH1 0x0 KECCAK256 PUSH1 0x0 ADD PUSH1 0x0 SWAP1 SLOAD SWAP1 PUSH2 0x100 EXP SWAP1 DIV PUSH1 0xFF AND ISZERO ISZERO EQ PUSH2 0x1E7E JUMPI PUSH1 0x40 MLOAD PUSH32 0x8C379A000000000000000000000000000000000000000000000000000000000 DUP2 MSTORE PUSH1 0x4 ADD PUSH2 0x1E75 SWAP1 PUSH2 0x3C24 JUMP JUMPDEST PUSH1 0x40 MLOAD DUP1 SWAP2 SUB SWAP1 REVERT JUMPDEST PUSH1 0x1 PUSH1 0x4 PUSH1 0x0 DUP4 DUP2 MSTORE PUSH1 0x20 ADD SWAP1 DUP2 MSTORE PUSH1 0x20 ADD PUSH1 0x0 KECCAK256 PUSH1 0x2 ADD DUP1 SLOAD SWAP1 POP EQ ISZERO PUSH2 0x2049 JUMPI PUSH1 0x1 PUSH1 0x7 PUSH1 0x0 CALLER PUSH20 0xFFFFFFFFFFFFFFFFFFFFFFFFFFFFFFFFFFFFFFFF AND PUSH20 0xFFFFFFFFFFFFFFFFFFFFFFFFFFFFFFFFFFFFFFFF AND DUP2 MSTORE PUSH1 0x20 ADD SWAP1 DUP2 MSTORE PUSH1 0x20 ADD PUSH1 0x0 KECCAK256 PUSH1 0x0 DUP4 DUP2 MSTORE PUSH1 0x20 ADD SWAP1 DUP2 MSTORE PUSH1 0x20 ADD PUSH1 0x0 KECCAK256 PUSH1 0x0 ADD PUSH1 0x0 PUSH2 0x100 EXP DUP2 SLOAD DUP2 PUSH1 0xFF MUL NOT AND SWAP1 DUP4 ISZERO ISZERO MUL OR SWAP1 SSTORE POP PUSH1 0x4 PUSH1 0x0 DUP3 DUP2 MSTORE PUSH1 0x20 ADD SWAP1 DUP2 MSTORE PUSH1 0x20 ADD PUSH1 0x0 KECCAK256 PUSH1 0x6 ADD SLOAD PUSH1 0x7 PUSH1 0x0 CALLER PUSH20 0xFFFFFFFFFFFFFFFFFFFFFFFFFFFFFFFFFFFFFFFF AND PUSH20 0xFFFFFFFFFFFFFFFFFFFFFFFFFFFFFFFFFFFFFFFF AND DUP2 MSTORE PUSH1 0x20 ADD SWAP1 DUP2 MSTORE PUSH1 0x20 ADD PUSH1 0x0 KECCAK256 PUSH1 0x0 DUP4 DUP2 MSTORE PUSH1 0x20 ADD SWAP1 DUP2 MSTORE PUSH1 0x20 ADD PUSH1 0x0 KECCAK256 PUSH1 0x1 ADD DUP2 SWAP1 SSTORE POP PUSH1 0x4 PUSH1 0x0 DUP3 DUP2 MSTORE PUSH1 0x20 ADD SWAP1 DUP2 MSTORE PUSH1 0x20 ADD PUSH1 0x0 KECCAK256 PUSH1 0xA ADD CALLER SWAP1 DUP1 PUSH1 0x1 DUP2 SLOAD ADD DUP1 DUP3 SSTORE DUP1 SWAP2 POP POP PUSH1 0x1 SWAP1 SUB SWAP1 PUSH1 0x0 MSTORE PUSH1 0x20 PUSH1 0x0 KECCAK256 ADD PUSH1 0x0 SWAP1 SWAP2 SWAP1 SWAP2 SWAP1 SWAP2 PUSH2 0x100 EXP DUP2 SLOAD DUP2 PUSH20 0xFFFFFFFFFFFFFFFFFFFFFFFFFFFFFFFFFFFFFFFF MUL NOT AND SWAP1 DUP4 PUSH20 0xFFFFFFFFFFFFFFFFFFFFFFFFFFFFFFFFFFFFFFFF AND MUL OR SWAP1 SSTORE POP PUSH1 0x4 PUSH1 0x0 DUP3 DUP2 MSTORE PUSH1 0x20 ADD SWAP1 DUP2 MSTORE PUSH1 0x20 ADD PUSH1 0x0 KECCAK256 PUSH1 0x9 ADD PUSH1 0x4 PUSH1 0x0 DUP4 DUP2 MSTORE PUSH1 0x20 ADD SWAP1 DUP2 MSTORE PUSH1 0x20 ADD PUSH1 0x0 KECCAK256 PUSH1 0x6 ADD SLOAD SWAP1 DUP1 PUSH1 0x1 DUP2 SLOAD ADD DUP1 DUP3 SSTORE DUP1 SWAP2 POP POP PUSH1 0x1 SWAP1 SUB SWAP1 PUSH1 0x0 MSTORE PUSH1 0x20 PUSH1 0x0 KECCAK256 ADD PUSH1 0x0 SWAP1 SWAP2 SWAP1 SWAP2 SWAP1 SWAP2 POP SSTORE PUSH2 0x2C6E JUMP JUMPDEST PUSH1 0x0 PUSH2 0x2053 PUSH2 0x3B6 JUMP JUMPDEST SWAP1 POP DUP1 PUSH1 0x4 PUSH1 0x0 DUP5 DUP2 MSTORE PUSH1 0x20 ADD SWAP1 DUP2 MSTORE PUSH1 0x20 ADD PUSH1 0x0 KECCAK256 PUSH1 0x8 ADD PUSH1 0x0 PUSH2 0x100 EXP DUP2 SLOAD DUP2 PUSH1 0xFF MUL NOT AND SWAP1 DUP4 PUSH1 0xFF AND MUL OR SWAP1 SSTORE POP PUSH1 0x0 PUSH1 0x4 PUSH1 0x0 DUP5 DUP2 MSTORE PUSH1 0x20 ADD SWAP1 DUP2 MSTORE PUSH1 0x20 ADD PUSH1 0x0 KECCAK256 PUSH1 0x2 ADD DUP1 SLOAD SWAP1 POP PUSH8 0xFFFFFFFFFFFFFFFF DUP2 GT ISZERO PUSH2 0x20B9 JUMPI PUSH2 0x20B8 PUSH2 0x353C JUMP JUMPDEST JUMPDEST PUSH1 0x40 MLOAD SWAP1 DUP1 DUP3 MSTORE DUP1 PUSH1 0x20 MUL PUSH1 0x20 ADD DUP3 ADD PUSH1 0x40 MSTORE DUP1 ISZERO PUSH2 0x20E7 JUMPI DUP2 PUSH1 0x20 ADD PUSH1 0x20 DUP3 MUL DUP1 CALLDATASIZE DUP4 CALLDATACOPY DUP1 DUP3 ADD SWAP2 POP POP SWAP1 POP JUMPDEST POP SWAP1 POP PUSH1 0x0 PUSH1 0x4 PUSH1 0x0 DUP6 DUP2 MSTORE PUSH1 0x20 ADD SWAP1 DUP2 MSTORE PUSH1 0x20 ADD PUSH1 0x0 KECCAK256 PUSH1 0x3 ADD DUP1 SLOAD SWAP1 POP PUSH8 0xFFFFFFFFFFFFFFFF DUP2 GT ISZERO PUSH2 0x211F JUMPI PUSH2 0x211E PUSH2 0x353C JUMP JUMPDEST JUMPDEST PUSH1 0x40 MLOAD SWAP1 DUP1 DUP3 MSTORE DUP1 PUSH1 0x20 MUL PUSH1 0x20 ADD DUP3 ADD PUSH1 0x40 MSTORE DUP1 ISZERO PUSH2 0x214D JUMPI DUP2 PUSH1 0x20 ADD PUSH1 0x20 DUP3 MUL DUP1 CALLDATASIZE DUP4 CALLDATACOPY DUP1 DUP3 ADD SWAP2 POP POP SWAP1 POP JUMPDEST POP SWAP1 POP PUSH1 0x4 PUSH1 0x0 DUP6 DUP2 MSTORE PUSH1 0x20 ADD SWAP1 DUP2 MSTORE PUSH1 0x20 ADD PUSH1 0x0 KECCAK256 PUSH1 0x2 ADD DUP1 SLOAD DUP1 PUSH1 0x20 MUL PUSH1 0x20 ADD PUSH1 0x40 MLOAD SWAP1 DUP2 ADD PUSH1 0x40 MSTORE DUP1 SWAP3 SWAP2 SWAP1 DUP2 DUP2 MSTORE PUSH1 0x20 ADD DUP3 DUP1 SLOAD DUP1 ISZERO PUSH2 0x21E6 JUMPI PUSH1 0x20 MUL DUP3 ADD SWAP2 SWAP1 PUSH1 0x0 MSTORE PUSH1 0x20 PUSH1 0x0 KECCAK256 SWAP1 JUMPDEST DUP2 PUSH1 0x0 SWAP1 SLOAD SWAP1 PUSH2 0x100 EXP SWAP1 DIV PUSH20 0xFFFFFFFFFFFFFFFFFFFFFFFFFFFFFFFFFFFFFFFF AND PUSH20 0xFFFFFFFFFFFFFFFFFFFFFFFFFFFFFFFFFFFFFFFF AND DUP2 MSTORE PUSH1 0x20 ADD SWAP1 PUSH1 0x1 ADD SWAP1 DUP1 DUP4 GT PUSH2 0x219C JUMPI JUMPDEST POP POP POP POP POP SWAP2 POP PUSH1 0x4 PUSH1 0x0 DUP6 DUP2 MSTORE PUSH1 0x20 ADD SWAP1 DUP2 MSTORE PUSH1 0x20 ADD PUSH1 0x0 KECCAK256 PUSH1 0x3 ADD DUP1 SLOAD DUP1 PUSH1 0x20 MUL PUSH1 0x20 ADD PUSH1 0x40 MLOAD SWAP1 DUP2 ADD PUSH1 0x40 MSTORE DUP1 SWAP3 SWAP2 SWAP1 DUP2 DUP2 MSTORE PUSH1 0x20 ADD DUP3 DUP1 SLOAD DUP1 ISZERO PUSH2 0x2273 JUMPI PUSH1 0x20 MUL DUP3 ADD SWAP2 SWAP1 PUSH1 0x0 MSTORE PUSH1 0x20 PUSH1 0x0 KECCAK256 SWAP1 PUSH1 0x0 SWAP1 JUMPDEST DUP3 DUP3 SWAP1 SLOAD SWAP1 PUSH2 0x100 EXP SWAP1 DIV PUSH1 0xFF AND PUSH1 0xFF AND DUP2 MSTORE PUSH1 0x20 ADD SWAP1 PUSH1 0x1 ADD SWAP1 PUSH1 0x20 DUP3 PUSH1 0x0 ADD DIV SWAP3 DUP4 ADD SWAP3 PUSH1 0x1 SUB DUP3 MUL SWAP2 POP DUP1 DUP5 GT PUSH2 0x223C JUMPI SWAP1 POP JUMPDEST POP POP POP POP POP SWAP1 POP PUSH1 0x0 DUP2 MLOAD PUSH8 0xFFFFFFFFFFFFFFFF DUP2 GT ISZERO PUSH2 0x2297 JUMPI PUSH2 0x2296 PUSH2 0x353C JUMP JUMPDEST JUMPDEST PUSH1 0x40 MLOAD SWAP1 DUP1 DUP3 MSTORE DUP1 PUSH1 0x20 MUL PUSH1 0x20 ADD DUP3 ADD PUSH1 0x40 MSTORE DUP1 ISZERO PUSH2 0x22C5 JUMPI DUP2 PUSH1 0x20 ADD PUSH1 0x20 DUP3 MUL DUP1 CALLDATASIZE DUP4 CALLDATACOPY DUP1 DUP3 ADD SWAP2 POP POP SWAP1 POP JUMPDEST POP SWAP1 POP PUSH1 0x0 JUMPDEST DUP4 MLOAD DUP2 LT ISZERO PUSH2 0x2406 JUMPI DUP5 PUSH1 0xFF AND DUP4 DUP3 DUP2 MLOAD DUP2 LT PUSH2 0x22EB JUMPI PUSH2 0x22EA PUSH2 0x356B JUMP JUMPDEST JUMPDEST PUSH1 0x20 MUL PUSH1 0x20 ADD ADD MLOAD PUSH1 0xFF AND GT ISZERO PUSH2 0x234E JUMPI DUP5 DUP4 DUP3 DUP2 MLOAD DUP2 LT PUSH2 0x2310 JUMPI PUSH2 0x230F PUSH2 0x356B JUMP JUMPDEST JUMPDEST PUSH1 0x20 MUL PUSH1 0x20 ADD ADD MLOAD PUSH2 0x2322 SWAP2 SWAP1 PUSH2 0x3C44 JUMP JUMPDEST DUP3 DUP3 DUP2 MLOAD DUP2 LT PUSH2 0x2335 JUMPI PUSH2 0x2334 PUSH2 0x356B JUMP JUMPDEST JUMPDEST PUSH1 0x20 MUL PUSH1 0x20 ADD ADD SWAP1 PUSH1 0xFF AND SWAP1 DUP2 PUSH1 0xFF AND DUP2 MSTORE POP POP PUSH2 0x23F3 JUMP JUMPDEST DUP5 PUSH1 0xFF AND DUP4 DUP3 DUP2 MLOAD DUP2 LT PUSH2 0x2365 JUMPI PUSH2 0x2364 PUSH2 0x356B JUMP JUMPDEST JUMPDEST PUSH1 0x20 MUL PUSH1 0x20 ADD ADD MLOAD PUSH1 0xFF AND LT ISZERO PUSH2 0x23C8 JUMPI DUP3 DUP2 DUP2 MLOAD DUP2 LT PUSH2 0x2389 JUMPI PUSH2 0x2388 PUSH2 0x356B JUMP JUMPDEST JUMPDEST PUSH1 0x20 MUL PUSH1 0x20 ADD ADD MLOAD DUP6 PUSH2 0x239C SWAP2 SWAP1 PUSH2 0x3C44 JUMP JUMPDEST DUP3 DUP3 DUP2 MLOAD DUP2 LT PUSH2 0x23AF JUMPI PUSH2 0x23AE PUSH2 0x356B JUMP JUMPDEST JUMPDEST PUSH1 0x20 MUL PUSH1 0x20 ADD ADD SWAP1 PUSH1 0xFF AND SWAP1 DUP2 PUSH1 0xFF AND DUP2 MSTORE POP POP PUSH2 0x23F2 JUMP JUMPDEST PUSH1 0x0 DUP3 DUP3 DUP2 MLOAD DUP2 LT PUSH2 0x23DD JUMPI PUSH2 0x23DC PUSH2 0x356B JUMP JUMPDEST JUMPDEST PUSH1 0x20 MUL PUSH1 0x20 ADD ADD SWAP1 PUSH1 0xFF AND SWAP1 DUP2 PUSH1 0xFF AND DUP2 MSTORE POP POP JUMPDEST JUMPDEST DUP1 DUP1 PUSH2 0x23FE SWAP1 PUSH2 0x3499 JUMP JUMPDEST SWAP2 POP POP PUSH2 0x22CB JUMP JUMPDEST POP PUSH1 0x0 PUSH1 0x3 DUP3 MLOAD PUSH2 0x2417 SWAP2 SWAP1 PUSH2 0x3C78 JUMP JUMPDEST SWAP1 POP PUSH1 0x0 DUP2 EQ ISZERO PUSH2 0x2427 JUMPI PUSH1 0x1 SWAP1 POP JUMPDEST PUSH1 0x0 DUP2 PUSH8 0xFFFFFFFFFFFFFFFF DUP2 GT ISZERO PUSH2 0x2443 JUMPI PUSH2 0x2442 PUSH2 0x353C JUMP JUMPDEST JUMPDEST PUSH1 0x40 MLOAD SWAP1 DUP1 DUP3 MSTORE DUP1 PUSH1 0x20 MUL PUSH1 0x20 ADD DUP3 ADD PUSH1 0x40 MSTORE DUP1 ISZERO PUSH2 0x2471 JUMPI DUP2 PUSH1 0x20 ADD PUSH1 0x20 DUP3 MUL DUP1 CALLDATASIZE DUP4 CALLDATACOPY DUP1 DUP3 ADD SWAP2 POP POP SWAP1 POP JUMPDEST POP SWAP1 POP PUSH1 0x0 DUP3 PUSH8 0xFFFFFFFFFFFFFFFF DUP2 GT ISZERO PUSH2 0x2490 JUMPI PUSH2 0x248F PUSH2 0x353C JUMP JUMPDEST JUMPDEST PUSH1 0x40 MLOAD SWAP1 DUP1 DUP3 MSTORE DUP1 PUSH1 0x20 MUL PUSH1 0x20 ADD DUP3 ADD PUSH1 0x40 MSTORE DUP1 ISZERO PUSH2 0x24BE JUMPI DUP2 PUSH1 0x20 ADD PUSH1 0x20 DUP3 MUL DUP1 CALLDATASIZE DUP4 CALLDATACOPY DUP1 DUP3 ADD SWAP2 POP POP SWAP1 POP JUMPDEST POP SWAP1 POP PUSH1 0x0 JUMPDEST DUP4 DUP2 LT ISZERO PUSH2 0x261D JUMPI PUSH1 0x0 PUSH1 0x64 SWAP1 POP PUSH1 0x0 DUP1 PUSH1 0x0 SWAP1 POP JUMPDEST DUP9 MLOAD DUP2 PUSH1 0xFF AND LT ISZERO PUSH2 0x2548 JUMPI DUP3 PUSH1 0xFF AND DUP9 DUP3 PUSH1 0xFF AND DUP2 MLOAD DUP2 LT PUSH2 0x2500 JUMPI PUSH2 0x24FF PUSH2 0x356B JUMP JUMPDEST JUMPDEST PUSH1 0x20 MUL PUSH1 0x20 ADD ADD MLOAD PUSH1 0xFF AND LT ISZERO PUSH2 0x2535 JUMPI DUP1 SWAP2 POP DUP8 DUP2 PUSH1 0xFF AND DUP2 MLOAD DUP2 LT PUSH2 0x252A JUMPI PUSH2 0x2529 PUSH2 0x356B JUMP JUMPDEST JUMPDEST PUSH1 0x20 MUL PUSH1 0x20 ADD ADD MLOAD SWAP3 POP JUMPDEST DUP1 DUP1 PUSH2 0x2540 SWAP1 PUSH2 0x3CA9 JUMP JUMPDEST SWAP2 POP POP PUSH2 0x24DA JUMP JUMPDEST POP PUSH1 0x64 DUP8 DUP3 PUSH1 0xFF AND DUP2 MLOAD DUP2 LT PUSH2 0x2561 JUMPI PUSH2 0x2560 PUSH2 0x356B JUMP JUMPDEST JUMPDEST PUSH1 0x20 MUL PUSH1 0x20 ADD ADD SWAP1 PUSH1 0xFF AND SWAP1 DUP2 PUSH1 0xFF AND DUP2 MSTORE POP POP DUP1 DUP6 DUP5 DUP2 MLOAD DUP2 LT PUSH2 0x2589 JUMPI PUSH2 0x2588 PUSH2 0x356B JUMP JUMPDEST JUMPDEST PUSH1 0x20 MUL PUSH1 0x20 ADD ADD SWAP1 PUSH1 0xFF AND SWAP1 DUP2 PUSH1 0xFF AND DUP2 MSTORE POP POP DUP9 DUP2 PUSH1 0xFF AND DUP2 MLOAD DUP2 LT PUSH2 0x25B3 JUMPI PUSH2 0x25B2 PUSH2 0x356B JUMP JUMPDEST JUMPDEST PUSH1 0x20 MUL PUSH1 0x20 ADD ADD MLOAD DUP5 DUP5 DUP2 MLOAD DUP2 LT PUSH2 0x25CE JUMPI PUSH2 0x25CD PUSH2 0x356B JUMP JUMPDEST JUMPDEST PUSH1 0x20 MUL PUSH1 0x20 ADD ADD SWAP1 PUSH20 0xFFFFFFFFFFFFFFFFFFFFFFFFFFFFFFFFFFFFFFFF AND SWAP1 DUP2 PUSH20 0xFFFFFFFFFFFFFFFFFFFFFFFFFFFFFFFFFFFFFFFF AND DUP2 MSTORE POP POP POP POP DUP1 DUP1 PUSH2 0x2615 SWAP1 PUSH2 0x3499 JUMP JUMPDEST SWAP2 POP POP PUSH2 0x24C4 JUMP JUMPDEST POP PUSH1 0x1 DUP4 GT ISZERO PUSH2 0x2A70 JUMPI PUSH1 0x0 PUSH1 0x4 PUSH1 0x0 DUP11 DUP2 MSTORE PUSH1 0x20 ADD SWAP1 DUP2 MSTORE PUSH1 0x20 ADD PUSH1 0x0 KECCAK256 PUSH1 0x6 ADD SLOAD SWAP1 POP PUSH1 0x0 PUSH1 0x3 SWAP1 POP PUSH1 0x0 PUSH1 0x2 SWAP1 POP JUMPDEST DUP4 MLOAD DUP2 LT ISZERO PUSH2 0x2686 JUMPI PUSH1 0x1 PUSH1 0x2 DUP4 PUSH2 0x2667 SWAP2 SWAP1 PUSH2 0x3CD3 JUMP JUMPDEST PUSH2 0x2671 SWAP2 SWAP1 PUSH2 0x3D0E JUMP JUMPDEST SWAP2 POP DUP1 DUP1 PUSH2 0x267E SWAP1 PUSH2 0x3499 JUMP JUMPDEST SWAP2 POP POP PUSH2 0x264F JUMP JUMPDEST POP PUSH1 0x0 DUP2 PUSH1 0xFF AND DUP4 PUSH2 0x2698 SWAP2 SWAP1 PUSH2 0x3C78 JUMP JUMPDEST SWAP1 POP PUSH1 0x0 PUSH1 0x1 DUP6 MLOAD PUSH2 0x26AA SWAP2 SWAP1 PUSH2 0x371A JUMP JUMPDEST SWAP1 POP JUMPDEST PUSH1 0x0 DUP2 GT ISZERO PUSH2 0x289E JUMPI DUP2 PUSH1 0x7 PUSH1 0x0 DUP8 DUP5 DUP2 MLOAD DUP2 LT PUSH2 0x26CE JUMPI PUSH2 0x26CD PUSH2 0x356B JUMP JUMPDEST JUMPDEST PUSH1 0x20 MUL PUSH1 0x20 ADD ADD MLOAD PUSH20 0xFFFFFFFFFFFFFFFFFFFFFFFFFFFFFFFFFFFFFFFF AND PUSH20 0xFFFFFFFFFFFFFFFFFFFFFFFFFFFFFFFFFFFFFFFF AND DUP2 MSTORE PUSH1 0x20 ADD SWAP1 DUP2 MSTORE PUSH1 0x20 ADD PUSH1 0x0 KECCAK256 PUSH1 0x0 DUP15 DUP2 MSTORE PUSH1 0x20 ADD SWAP1 DUP2 MSTORE PUSH1 0x20 ADD PUSH1 0x0 KECCAK256 PUSH1 0x1 ADD DUP2 SWAP1 SSTORE POP PUSH1 0x1 PUSH1 0x7 PUSH1 0x0 DUP8 DUP5 DUP2 MLOAD DUP2 LT PUSH2 0x2741 JUMPI PUSH2 0x2740 PUSH2 0x356B JUMP JUMPDEST JUMPDEST PUSH1 0x20 MUL PUSH1 0x20 ADD ADD MLOAD PUSH20 0xFFFFFFFFFFFFFFFFFFFFFFFFFFFFFFFFFFFFFFFF AND PUSH20 0xFFFFFFFFFFFFFFFFFFFFFFFFFFFFFFFFFFFFFFFF AND DUP2 MSTORE PUSH1 0x20 ADD SWAP1 DUP2 MSTORE PUSH1 0x20 ADD PUSH1 0x0 KECCAK256 PUSH1 0x0 DUP15 DUP2 MSTORE PUSH1 0x20 ADD SWAP1 DUP2 MSTORE PUSH1 0x20 ADD PUSH1 0x0 KECCAK256 PUSH1 0x0 ADD PUSH1 0x0 PUSH2 0x100 EXP DUP2 SLOAD DUP2 PUSH1 0xFF MUL NOT AND SWAP1 DUP4 ISZERO ISZERO MUL OR SWAP1 SSTORE POP PUSH1 0x4 PUSH1 0x0 DUP14 DUP2 MSTORE PUSH1 0x20 ADD SWAP1 DUP2 MSTORE PUSH1 0x20 ADD PUSH1 0x0 KECCAK256 PUSH1 0x9 ADD DUP3 SWAP1 DUP1 PUSH1 0x1 DUP2 SLOAD ADD DUP1 DUP3 SSTORE DUP1 SWAP2 POP POP PUSH1 0x1 SWAP1 SUB SWAP1 PUSH1 0x0 MSTORE PUSH1 0x20 PUSH1 0x0 KECCAK256 ADD PUSH1 0x0 SWAP1 SWAP2 SWAP1 SWAP2 SWAP1 SWAP2 POP SSTORE PUSH1 0x4 PUSH1 0x0 DUP14 DUP2 MSTORE PUSH1 0x20 ADD SWAP1 DUP2 MSTORE PUSH1 0x20 ADD PUSH1 0x0 KECCAK256 PUSH1 0xA ADD DUP6 DUP3 DUP2 MLOAD DUP2 LT PUSH2 0x2814 JUMPI PUSH2 0x2813 PUSH2 0x356B JUMP JUMPDEST JUMPDEST PUSH1 0x20 MUL PUSH1 0x20 ADD ADD MLOAD SWAP1 DUP1 PUSH1 0x1 DUP2 SLOAD ADD DUP1 DUP3 SSTORE DUP1 SWAP2 POP POP PUSH1 0x1 SWAP1 SUB SWAP1 PUSH1 0x0 MSTORE PUSH1 0x20 PUSH1 0x0 KECCAK256 ADD PUSH1 0x0 SWAP1 SWAP2 SWAP1 SWAP2 SWAP1 SWAP2 PUSH2 0x100 EXP DUP2 SLOAD DUP2 PUSH20 0xFFFFFFFFFFFFFFFFFFFFFFFFFFFFFFFFFFFFFFFF MUL NOT AND SWAP1 DUP4 PUSH20 0xFFFFFFFFFFFFFFFFFFFFFFFFFFFFFFFFFFFFFFFF AND MUL OR SWAP1 SSTORE POP PUSH1 0x2 DUP3 PUSH2 0x2889 SWAP2 SWAP1 PUSH2 0x34E2 JUMP JUMPDEST SWAP2 POP DUP1 DUP1 PUSH2 0x2896 SWAP1 PUSH2 0x3D45 JUMP JUMPDEST SWAP2 POP POP PUSH2 0x26AD JUMP JUMPDEST POP DUP1 PUSH1 0x7 PUSH1 0x0 DUP7 PUSH1 0x0 DUP2 MLOAD DUP2 LT PUSH2 0x28B8 JUMPI PUSH2 0x28B7 PUSH2 0x356B JUMP JUMPDEST JUMPDEST PUSH1 0x20 MUL PUSH1 0x20 ADD ADD MLOAD PUSH20 0xFFFFFFFFFFFFFFFFFFFFFFFFFFFFFFFFFFFFFFFF AND PUSH20 0xFFFFFFFFFFFFFFFFFFFFFFFFFFFFFFFFFFFFFFFF AND DUP2 MSTORE PUSH1 0x20 ADD SWAP1 DUP2 MSTORE PUSH1 0x20 ADD PUSH1 0x0 KECCAK256 PUSH1 0x0 DUP14 DUP2 MSTORE PUSH1 0x20 ADD SWAP1 DUP2 MSTORE PUSH1 0x20 ADD PUSH1 0x0 KECCAK256 PUSH1 0x1 ADD DUP2 SWAP1 SSTORE POP PUSH1 0x1 PUSH1 0x7 PUSH1 0x0 DUP7 PUSH1 0x0 DUP2 MLOAD DUP2 LT PUSH2 0x292C JUMPI PUSH2 0x292B PUSH2 0x356B JUMP JUMPDEST JUMPDEST PUSH1 0x20 MUL PUSH1 0x20 ADD ADD MLOAD PUSH20 0xFFFFFFFFFFFFFFFFFFFFFFFFFFFFFFFFFFFFFFFF AND PUSH20 0xFFFFFFFFFFFFFFFFFFFFFFFFFFFFFFFFFFFFFFFF AND DUP2 MSTORE PUSH1 0x20 ADD SWAP1 DUP2 MSTORE PUSH1 0x20 ADD PUSH1 0x0 KECCAK256 PUSH1 0x0 DUP14 DUP2 MSTORE PUSH1 0x20 ADD SWAP1 DUP2 MSTORE PUSH1 0x20 ADD PUSH1 0x0 KECCAK256 PUSH1 0x0 ADD PUSH1 0x0 PUSH2 0x100 EXP DUP2 SLOAD DUP2 PUSH1 0xFF MUL NOT AND SWAP1 DUP4 ISZERO ISZERO MUL OR SWAP1 SSTORE POP PUSH1 0x4 PUSH1 0x0 DUP13 DUP2 MSTORE PUSH1 0x20 ADD SWAP1 DUP2 MSTORE PUSH1 0x20 ADD PUSH1 0x0 KECCAK256 PUSH1 0x9 ADD DUP2 SWAP1 DUP1 PUSH1 0x1 DUP2 SLOAD ADD DUP1 DUP3 SSTORE DUP1 SWAP2 POP POP PUSH1 0x1 SWAP1 SUB SWAP1 PUSH1 0x0 MSTORE PUSH1 0x20 PUSH1 0x0 KECCAK256 ADD PUSH1 0x0 SWAP1 SWAP2 SWAP1 SWAP2 SWAP1 SWAP2 POP SSTORE PUSH1 0x4 PUSH1 0x0 DUP13 DUP2 MSTORE PUSH1 0x20 ADD SWAP1 DUP2 MSTORE PUSH1 0x20 ADD PUSH1 0x0 KECCAK256 PUSH1 0xA ADD DUP5 PUSH1 0x0 DUP2 MLOAD DUP2 LT PUSH2 0x2A00 JUMPI PUSH2 0x29FF PUSH2 0x356B JUMP JUMPDEST JUMPDEST PUSH1 0x20 MUL PUSH1 0x20 ADD ADD MLOAD SWAP1 DUP1 PUSH1 0x1 DUP2 SLOAD ADD DUP1 DUP3 SSTORE DUP1 SWAP2 POP POP PUSH1 0x1 SWAP1 SUB SWAP1 PUSH1 0x0 MSTORE PUSH1 0x20 PUSH1 0x0 KECCAK256 ADD PUSH1 0x0 SWAP1 SWAP2 SWAP1 SWAP2 SWAP1 SWAP2 PUSH2 0x100 EXP DUP2 SLOAD DUP2 PUSH20 0xFFFFFFFFFFFFFFFFFFFFFFFFFFFFFFFFFFFFFFFF MUL NOT AND SWAP1 DUP4 PUSH20 0xFFFFFFFFFFFFFFFFFFFFFFFFFFFFFFFFFFFFFFFF AND MUL OR SWAP1 SSTORE POP POP POP POP PUSH2 0x2C66 JUMP JUMPDEST PUSH1 0x1 PUSH1 0x7 PUSH1 0x0 DUP4 PUSH1 0x0 DUP2 MLOAD DUP2 LT PUSH2 0x2A8A JUMPI PUSH2 0x2A89 PUSH2 0x356B JUMP JUMPDEST JUMPDEST PUSH1 0x20 MUL PUSH1 0x20 ADD ADD MLOAD PUSH20 0xFFFFFFFFFFFFFFFFFFFFFFFFFFFFFFFFFFFFFFFF AND PUSH20 0xFFFFFFFFFFFFFFFFFFFFFFFFFFFFFFFFFFFFFFFF AND DUP2 MSTORE PUSH1 0x20 ADD SWAP1 DUP2 MSTORE PUSH1 0x20 ADD PUSH1 0x0 KECCAK256 PUSH1 0x0 DUP11 DUP2 MSTORE PUSH1 0x20 ADD SWAP1 DUP2 MSTORE PUSH1 0x20 ADD PUSH1 0x0 KECCAK256 PUSH1 0x0 ADD PUSH1 0x0 PUSH2 0x100 EXP DUP2 SLOAD DUP2 PUSH1 0xFF MUL NOT AND SWAP1 DUP4 ISZERO ISZERO MUL OR SWAP1 SSTORE POP PUSH1 0x4 PUSH1 0x0 DUP10 DUP2 MSTORE PUSH1 0x20 ADD SWAP1 DUP2 MSTORE PUSH1 0x20 ADD PUSH1 0x0 KECCAK256 PUSH1 0x6 ADD SLOAD PUSH1 0x7 PUSH1 0x0 DUP4 PUSH1 0x0 DUP2 MLOAD DUP2 LT PUSH2 0x2B26 JUMPI PUSH2 0x2B25 PUSH2 0x356B JUMP JUMPDEST JUMPDEST PUSH1 0x20 MUL PUSH1 0x20 ADD ADD MLOAD PUSH20 0xFFFFFFFFFFFFFFFFFFFFFFFFFFFFFFFFFFFFFFFF AND PUSH20 0xFFFFFFFFFFFFFFFFFFFFFFFFFFFFFFFFFFFFFFFF AND DUP2 MSTORE PUSH1 0x20 ADD SWAP1 DUP2 MSTORE PUSH1 0x20 ADD PUSH1 0x0 KECCAK256 PUSH1 0x0 DUP11 DUP2 MSTORE PUSH1 0x20 ADD SWAP1 DUP2 MSTORE PUSH1 0x20 ADD PUSH1 0x0 KECCAK256 PUSH1 0x1 ADD DUP2 SWAP1 SSTORE POP PUSH1 0x4 PUSH1 0x0 DUP10 DUP2 MSTORE PUSH1 0x20 ADD SWAP1 DUP2 MSTORE PUSH1 0x20 ADD PUSH1 0x0 KECCAK256 PUSH1 0x9 ADD PUSH1 0x4 PUSH1 0x0 DUP11 DUP2 MSTORE PUSH1 0x20 ADD SWAP1 DUP2 MSTORE PUSH1 0x20 ADD PUSH1 0x0 KECCAK256 PUSH1 0x6 ADD SLOAD SWAP1 DUP1 PUSH1 0x1 DUP2 SLOAD ADD DUP1 DUP3 SSTORE DUP1 SWAP2 POP POP PUSH1 0x1 SWAP1 SUB SWAP1 PUSH1 0x0 MSTORE PUSH1 0x20 PUSH1 0x0 KECCAK256 ADD PUSH1 0x0 SWAP1 SWAP2 SWAP1 SWAP2 SWAP1 SWAP2 POP SSTORE PUSH1 0x4 PUSH1 0x0 DUP10 DUP2 MSTORE PUSH1 0x20 ADD SWAP1 DUP2 MSTORE PUSH1 0x20 ADD PUSH1 0x0 KECCAK256 PUSH1 0xA ADD DUP2 PUSH1 0x0 DUP2 MLOAD DUP2 LT PUSH2 0x2BFD JUMPI PUSH2 0x2BFC PUSH2 0x356B JUMP JUMPDEST JUMPDEST PUSH1 0x20 MUL PUSH1 0x20 ADD ADD MLOAD SWAP1 DUP1 PUSH1 0x1 DUP2 SLOAD ADD DUP1 DUP3 SSTORE DUP1 SWAP2 POP POP PUSH1 0x1 SWAP1 SUB SWAP1 PUSH1 0x0 MSTORE PUSH1 0x20 PUSH1 0x0 KECCAK256 ADD PUSH1 0x0 SWAP1 SWAP2 SWAP1 SWAP2 SWAP1 SWAP2 PUSH2 0x100 EXP DUP2 SLOAD DUP2 PUSH20 0xFFFFFFFFFFFFFFFFFFFFFFFFFFFFFFFFFFFFFFFF MUL NOT AND SWAP1 DUP4 PUSH20 0xFFFFFFFFFFFFFFFFFFFFFFFFFFFFFFFFFFFFFFFF AND MUL OR SWAP1 SSTORE POP JUMPDEST POP POP POP POP POP POP POP JUMPDEST PUSH1 0x1 PUSH1 0x4 PUSH1 0x0 DUP4 DUP2 MSTORE PUSH1 0x20 ADD SWAP1 DUP2 MSTORE PUSH1 0x20 ADD PUSH1 0x0 KECCAK256 PUSH1 0x0 ADD PUSH1 0x14 PUSH2 0x100 EXP DUP2 SLOAD DUP2 PUSH1 0xFF MUL NOT AND SWAP1 DUP4 ISZERO ISZERO MUL OR SWAP1 SSTORE POP DUP1 PUSH1 0x2 DUP2 SWAP1 SSTORE POP POP JUMP JUMPDEST PUSH1 0x0 PUSH1 0x5 PUSH1 0x0 DUP5 DUP2 MSTORE PUSH1 0x20 ADD SWAP1 DUP2 MSTORE PUSH1 0x20 ADD PUSH1 0x0 KECCAK256 PUSH1 0x0 DUP4 PUSH20 0xFFFFFFFFFFFFFFFFFFFFFFFFFFFFFFFFFFFFFFFF AND PUSH20 0xFFFFFFFFFFFFFFFFFFFFFFFFFFFFFFFFFFFFFFFF AND DUP2 MSTORE PUSH1 0x20 ADD SWAP1 DUP2 MSTORE PUSH1 0x20 ADD PUSH1 0x0 KECCAK256 PUSH1 0x0 ADD PUSH1 0x1 SWAP1 SLOAD SWAP1 PUSH2 0x100 EXP SWAP1 DIV PUSH1 0xFF AND SWAP1 POP SWAP3 SWAP2 POP POP JUMP JUMPDEST PUSH1 0x0 PUSH1 0xFF DUP3 AND SWAP1 POP SWAP2 SWAP1 POP JUMP JUMPDEST PUSH2 0x2D28 DUP2 PUSH2 0x2D12 JUMP JUMPDEST DUP3 MSTORE POP POP JUMP JUMPDEST PUSH1 0x0 PUSH1 0x20 DUP3 ADD SWAP1 POP PUSH2 0x2D43 PUSH1 0x0 DUP4 ADD DUP5 PUSH2 0x2D1F JUMP JUMPDEST SWAP3 SWAP2 POP POP JUMP JUMPDEST PUSH1 0x0 DUP1 REVERT JUMPDEST PUSH1 0x0 PUSH20 0xFFFFFFFFFFFFFFFFFFFFFFFFFFFFFFFFFFFFFFFF DUP3 AND SWAP1 POP SWAP2 SWAP1 POP JUMP JUMPDEST PUSH1 0x0 PUSH2 0x2D79 DUP3 PUSH2 0x2D4E JUMP JUMPDEST SWAP1 POP SWAP2 SWAP1 POP JUMP JUMPDEST PUSH2 0x2D89 DUP2 PUSH2 0x2D6E JUMP JUMPDEST DUP2 EQ PUSH2 0x2D94 JUMPI PUSH1 0x0 DUP1 REVERT JUMPDEST POP JUMP JUMPDEST PUSH1 0x0 DUP2 CALLDATALOAD SWAP1 POP PUSH2 0x2DA6 DUP2 PUSH2 0x2D80 JUMP JUMPDEST SWAP3 SWAP2 POP POP JUMP JUMPDEST PUSH1 0x0 PUSH1 0x20 DUP3 DUP5 SUB SLT ISZERO PUSH2 0x2DC2 JUMPI PUSH2 0x2DC1 PUSH2 0x2D49 JUMP JUMPDEST JUMPDEST PUSH1 0x0 PUSH2 0x2DD0 DUP5 DUP3 DUP6 ADD PUSH2 0x2D97 JUMP JUMPDEST SWAP2 POP POP SWAP3 SWAP2 POP POP JUMP JUMPDEST PUSH1 0x0 DUP2 MLOAD SWAP1 POP SWAP2 SWAP1 POP JUMP JUMPDEST PUSH1 0x0 DUP3 DUP3 MSTORE PUSH1 0x20 DUP3 ADD SWAP1 POP SWAP3 SWAP2 POP POP JUMP JUMPDEST PUSH1 0x0 DUP2 SWAP1 POP PUSH1 0x20 DUP3 ADD SWAP1 POP SWAP2 SWAP1 POP JUMP JUMPDEST PUSH1 0x0 DUP2 SWAP1 POP SWAP2 SWAP1 POP JUMP JUMPDEST PUSH2 0x2E18 DUP2 PUSH2 0x2E05 JUMP JUMPDEST DUP3 MSTORE POP POP JUMP JUMPDEST PUSH1 0x0 PUSH2 0x2E2A DUP4 DUP4 PUSH2 0x2E0F JUMP JUMPDEST PUSH1 0x20 DUP4 ADD SWAP1 POP SWAP3 SWAP2 POP POP JUMP JUMPDEST PUSH1 0x0 PUSH1 0x20 DUP3 ADD SWAP1 POP SWAP2 SWAP1 POP JUMP JUMPDEST PUSH1 0x0 PUSH2 0x2E4E DUP3 PUSH2 0x2DD9 JUMP JUMPDEST PUSH2 0x2E58 DUP2 DUP6 PUSH2 0x2DE4 JUMP JUMPDEST SWAP4 POP PUSH2 0x2E63 DUP4 PUSH2 0x2DF5 JUMP JUMPDEST DUP1 PUSH1 0x0 JUMPDEST DUP4 DUP2 LT ISZERO PUSH2 0x2E94 JUMPI DUP2 MLOAD PUSH2 0x2E7B DUP9 DUP3 PUSH2 0x2E1E JUMP JUMPDEST SWAP8 POP PUSH2 0x2E86 DUP4 PUSH2 0x2E36 JUMP JUMPDEST SWAP3 POP POP PUSH1 0x1 DUP2 ADD SWAP1 POP PUSH2 0x2E67 JUMP JUMPDEST POP DUP6 SWAP4 POP POP POP POP SWAP3 SWAP2 POP POP JUMP JUMPDEST PUSH1 0x0 PUSH1 0x20 DUP3 ADD SWAP1 POP DUP2 DUP2 SUB PUSH1 0x0 DUP4 ADD MSTORE PUSH2 0x2EBB DUP2 DUP5 PUSH2 0x2E43 JUMP JUMPDEST SWAP1 POP SWAP3 SWAP2 POP POP JUMP JUMPDEST PUSH2 0x2ECC DUP2 PUSH2 0x2D12 JUMP JUMPDEST DUP2 EQ PUSH2 0x2ED7 JUMPI PUSH1 0x0 DUP1 REVERT JUMPDEST POP JUMP JUMPDEST PUSH1 0x0 DUP2 CALLDATALOAD SWAP1 POP PUSH2 0x2EE9 DUP2 PUSH2 0x2EC3 JUMP JUMPDEST SWAP3 SWAP2 POP POP JUMP JUMPDEST PUSH1 0x0 DUP1 PUSH1 0x40 DUP4 DUP6 SUB SLT ISZERO PUSH2 0x2F06 JUMPI PUSH2 0x2F05 PUSH2 0x2D49 JUMP JUMPDEST JUMPDEST PUSH1 0x0 PUSH2 0x2F14 DUP6 DUP3 DUP7 ADD PUSH2 0x2EDA JUMP JUMPDEST SWAP3 POP POP PUSH1 0x20 PUSH2 0x2F25 DUP6 DUP3 DUP7 ADD PUSH2 0x2EDA JUMP JUMPDEST SWAP2 POP POP SWAP3 POP SWAP3 SWAP1 POP JUMP JUMPDEST PUSH2 0x2F38 DUP2 PUSH2 0x2E05 JUMP JUMPDEST DUP2 EQ PUSH2 0x2F43 JUMPI PUSH1 0x0 DUP1 REVERT JUMPDEST POP JUMP JUMPDEST PUSH1 0x0 DUP2 CALLDATALOAD SWAP1 POP PUSH2 0x2F55 DUP2 PUSH2 0x2F2F JUMP JUMPDEST SWAP3 SWAP2 POP POP JUMP JUMPDEST PUSH1 0x0 DUP1 PUSH1 0x40 DUP4 DUP6 SUB SLT ISZERO PUSH2 0x2F72 JUMPI PUSH2 0x2F71 PUSH2 0x2D49 JUMP JUMPDEST JUMPDEST PUSH1 0x0 PUSH2 0x2F80 DUP6 DUP3 DUP7 ADD PUSH2 0x2F46 JUMP JUMPDEST SWAP3 POP POP PUSH1 0x20 PUSH2 0x2F91 DUP6 DUP3 DUP7 ADD PUSH2 0x2D97 JUMP JUMPDEST SWAP2 POP POP SWAP3 POP SWAP3 SWAP1 POP JUMP JUMPDEST PUSH1 0x0 DUP2 ISZERO ISZERO SWAP1 POP SWAP2 SWAP1 POP JUMP JUMPDEST PUSH2 0x2FB0 DUP2 PUSH2 0x2F9B JUMP JUMPDEST DUP3 MSTORE POP POP JUMP JUMPDEST PUSH1 0x0 PUSH1 0x40 DUP3 ADD SWAP1 POP PUSH2 0x2FCB PUSH1 0x0 DUP4 ADD DUP6 PUSH2 0x2FA7 JUMP JUMPDEST PUSH2 0x2FD8 PUSH1 0x20 DUP4 ADD DUP5 PUSH2 0x2D1F JUMP JUMPDEST SWAP4 SWAP3 POP POP POP JUMP JUMPDEST PUSH1 0x0 PUSH1 0x20 DUP3 DUP5 SUB SLT ISZERO PUSH2 0x2FF5 JUMPI PUSH2 0x2FF4 PUSH2 0x2D49 JUMP JUMPDEST JUMPDEST PUSH1 0x0 PUSH2 0x3003 DUP5 DUP3 DUP6 ADD PUSH2 0x2F46 JUMP JUMPDEST SWAP2 POP POP SWAP3 SWAP2 POP POP JUMP JUMPDEST PUSH1 0x0 DUP2 MLOAD SWAP1 POP SWAP2 SWAP1 POP JUMP JUMPDEST PUSH1 0x0 DUP3 DUP3 MSTORE PUSH1 0x20 DUP3 ADD SWAP1 POP SWAP3 SWAP2 POP POP JUMP JUMPDEST PUSH1 0x0 DUP2 SWAP1 POP PUSH1 0x20 DUP3 ADD SWAP1 POP SWAP2 SWAP1 POP JUMP JUMPDEST PUSH2 0x3041 DUP2 PUSH2 0x2D12 JUMP JUMPDEST DUP3 MSTORE POP POP JUMP JUMPDEST PUSH1 0x0 PUSH2 0x3053 DUP4 DUP4 PUSH2 0x3038 JUMP JUMPDEST PUSH1 0x20 DUP4 ADD SWAP1 POP SWAP3 SWAP2 POP POP JUMP JUMPDEST PUSH1 0x0 PUSH1 0x20 DUP3 ADD SWAP1 POP SWAP2 SWAP1 POP JUMP JUMPDEST PUSH1 0x0 PUSH2 0x3077 DUP3 PUSH2 0x300C JUMP JUMPDEST PUSH2 0x3081 DUP2 DUP6 PUSH2 0x3017 JUMP JUMPDEST SWAP4 POP PUSH2 0x308C DUP4 PUSH2 0x3028 JUMP JUMPDEST DUP1 PUSH1 0x0 JUMPDEST DUP4 DUP2 LT ISZERO PUSH2 0x30BD JUMPI DUP2 MLOAD PUSH2 0x30A4 DUP9 DUP3 PUSH2 0x3047 JUMP JUMPDEST SWAP8 POP PUSH2 0x30AF DUP4 PUSH2 0x305F JUMP JUMPDEST SWAP3 POP POP PUSH1 0x1 DUP2 ADD SWAP1 POP PUSH2 0x3090 JUMP JUMPDEST POP DUP6 SWAP4 POP POP POP POP SWAP3 SWAP2 POP POP JUMP JUMPDEST PUSH1 0x0 PUSH1 0x20 DUP3 ADD SWAP1 POP DUP2 DUP2 SUB PUSH1 0x0 DUP4 ADD MSTORE PUSH2 0x30E4 DUP2 DUP5 PUSH2 0x306C JUMP JUMPDEST SWAP1 POP SWAP3 SWAP2 POP POP JUMP JUMPDEST PUSH2 0x30F5 DUP2 PUSH2 0x2D6E JUMP JUMPDEST DUP3 MSTORE POP POP JUMP JUMPDEST PUSH2 0x3104 DUP2 PUSH2 0x2E05 JUMP JUMPDEST DUP3 MSTORE POP POP JUMP JUMPDEST PUSH1 0x0 PUSH2 0x100 DUP3 ADD SWAP1 POP PUSH2 0x3120 PUSH1 0x0 DUP4 ADD DUP12 PUSH2 0x30EC JUMP JUMPDEST PUSH2 0x312D PUSH1 0x20 DUP4 ADD DUP11 PUSH2 0x2FA7 JUMP JUMPDEST PUSH2 0x313A PUSH1 0x40 DUP4 ADD DUP10 PUSH2 0x30FB JUMP JUMPDEST PUSH2 0x3147 PUSH1 0x60 DUP4 ADD DUP9 PUSH2 0x30FB JUMP JUMPDEST PUSH2 0x3154 PUSH1 0x80 DUP4 ADD DUP8 PUSH2 0x30FB JUMP JUMPDEST PUSH2 0x3161 PUSH1 0xA0 DUP4 ADD DUP7 PUSH2 0x30FB JUMP JUMPDEST PUSH2 0x316E PUSH1 0xC0 DUP4 ADD DUP6 PUSH2 0x30FB JUMP JUMPDEST PUSH2 0x317B PUSH1 0xE0 DUP4 ADD DUP5 PUSH2 0x2D1F JUMP JUMPDEST SWAP10 SWAP9 POP POP POP POP POP POP POP POP POP JUMP JUMPDEST PUSH1 0x0 DUP1 PUSH1 0x40 DUP4 DUP6 SUB SLT ISZERO PUSH2 0x319F JUMPI PUSH2 0x319E PUSH2 0x2D49 JUMP JUMPDEST JUMPDEST PUSH1 0x0 PUSH2 0x31AD DUP6 DUP3 DUP7 ADD PUSH2 0x2D97 JUMP JUMPDEST SWAP3 POP POP PUSH1 0x20 PUSH2 0x31BE DUP6 DUP3 DUP7 ADD PUSH2 0x2F46 JUMP JUMPDEST SWAP2 POP POP SWAP3 POP SWAP3 SWAP1 POP JUMP JUMPDEST PUSH1 0x0 PUSH1 0x60 DUP3 ADD SWAP1 POP PUSH2 0x31DD PUSH1 0x0 DUP4 ADD DUP7 PUSH2 0x2FA7 JUMP JUMPDEST PUSH2 0x31EA PUSH1 0x20 DUP4 ADD DUP6 PUSH2 0x2FA7 JUMP JUMPDEST PUSH2 0x31F7 PUSH1 0x40 DUP4 ADD DUP5 PUSH2 0x30FB JUMP JUMPDEST SWAP5 SWAP4 POP POP POP POP JUMP JUMPDEST PUSH1 0x0 PUSH1 0x20 DUP3 ADD SWAP1 POP PUSH2 0x3214 PUSH1 0x0 DUP4 ADD DUP5 PUSH2 0x30EC JUMP JUMPDEST SWAP3 SWAP2 POP POP JUMP JUMPDEST PUSH1 0x0 DUP1 PUSH1 0x40 DUP4 DUP6 SUB SLT ISZERO PUSH2 0x3231 JUMPI PUSH2 0x3230 PUSH2 0x2D49 JUMP JUMPDEST JUMPDEST PUSH1 0x0 PUSH2 0x323F DUP6 DUP3 DUP7 ADD PUSH2 0x2F46 JUMP JUMPDEST SWAP3 POP POP PUSH1 0x20 PUSH2 0x3250 DUP6 DUP3 DUP7 ADD PUSH2 0x2EDA JUMP JUMPDEST SWAP2 POP POP SWAP3 POP SWAP3 SWAP1 POP JUMP JUMPDEST PUSH1 0x0 DUP2 MLOAD SWAP1 POP SWAP2 SWAP1 POP JUMP JUMPDEST PUSH1 0x0 DUP3 DUP3 MSTORE PUSH1 0x20 DUP3 ADD SWAP1 POP SWAP3 SWAP2 POP POP JUMP JUMPDEST PUSH1 0x0 DUP2 SWAP1 POP PUSH1 0x20 DUP3 ADD SWAP1 POP SWAP2 SWAP1 POP JUMP JUMPDEST PUSH2 0x328F DUP2 PUSH2 0x2D6E JUMP JUMPDEST DUP3 MSTORE POP POP JUMP JUMPDEST PUSH1 0x0 PUSH2 0x32A1 DUP4 DUP4 PUSH2 0x3286 JUMP JUMPDEST PUSH1 0x20 DUP4 ADD SWAP1 POP SWAP3 SWAP2 POP POP JUMP JUMPDEST PUSH1 0x0 PUSH1 0x20 DUP3 ADD SWAP1 POP SWAP2 SWAP1 POP JUMP JUMPDEST PUSH1 0x0 PUSH2 0x32C5 DUP3 PUSH2 0x325A JUMP JUMPDEST PUSH2 0x32CF DUP2 DUP6 PUSH2 0x3265 JUMP JUMPDEST SWAP4 POP PUSH2 0x32DA DUP4 PUSH2 0x3276 JUMP JUMPDEST DUP1 PUSH1 0x0 JUMPDEST DUP4 DUP2 LT ISZERO PUSH2 0x330B JUMPI DUP2 MLOAD PUSH2 0x32F2 DUP9 DUP3 PUSH2 0x3295 JUMP JUMPDEST SWAP8 POP PUSH2 0x32FD DUP4 PUSH2 0x32AD JUMP JUMPDEST SWAP3 POP POP PUSH1 0x1 DUP2 ADD SWAP1 POP PUSH2 0x32DE JUMP JUMPDEST POP DUP6 SWAP4 POP POP POP POP SWAP3 SWAP2 POP POP JUMP JUMPDEST PUSH1 0x0 PUSH1 0x60 DUP3 ADD SWAP1 POP DUP2 DUP2 SUB PUSH1 0x0 DUP4 ADD MSTORE PUSH2 0x3332 DUP2 DUP7 PUSH2 0x2E43 JUMP JUMPDEST SWAP1 POP DUP2 DUP2 SUB PUSH1 0x20 DUP4 ADD MSTORE PUSH2 0x3346 DUP2 DUP6 PUSH2 0x32BA JUMP JUMPDEST SWAP1 POP DUP2 DUP2 SUB PUSH1 0x40 DUP4 ADD MSTORE PUSH2 0x335A DUP2 DUP5 PUSH2 0x2E43 JUMP JUMPDEST SWAP1 POP SWAP5 SWAP4 POP POP POP POP JUMP JUMPDEST PUSH1 0x0 DUP2 SWAP1 POP SWAP2 SWAP1 POP JUMP JUMPDEST PUSH2 0x337F PUSH2 0x337A DUP3 PUSH2 0x2E05 JUMP JUMPDEST PUSH2 0x3364 JUMP JUMPDEST DUP3 MSTORE POP POP JUMP JUMPDEST PUSH1 0x0 DUP2 PUSH1 0x60 SHL SWAP1 POP SWAP2 SWAP1 POP JUMP JUMPDEST PUSH1 0x0 PUSH2 0x339D DUP3 PUSH2 0x3385 JUMP JUMPDEST SWAP1 POP SWAP2 SWAP1 POP JUMP JUMPDEST PUSH1 0x0 PUSH2 0x33AF DUP3 PUSH2 0x3392 JUMP JUMPDEST SWAP1 POP SWAP2 SWAP1 POP JUMP JUMPDEST PUSH2 0x33C7 PUSH2 0x33C2 DUP3 PUSH2 0x2D6E JUMP JUMPDEST PUSH2 0x33A4 JUMP JUMPDEST DUP3 MSTORE POP POP JUMP JUMPDEST PUSH1 0x0 PUSH2 0x33D9 DUP3 DUP7 PUSH2 0x336E JUMP JUMPDEST PUSH1 0x20 DUP3 ADD SWAP2 POP PUSH2 0x33E9 DUP3 DUP6 PUSH2 0x33B6 JUMP JUMPDEST PUSH1 0x14 DUP3 ADD SWAP2 POP PUSH2 0x33F9 DUP3 DUP5 PUSH2 0x336E JUMP JUMPDEST PUSH1 0x20 DUP3 ADD SWAP2 POP DUP2 SWAP1 POP SWAP5 SWAP4 POP POP POP POP JUMP JUMPDEST PUSH32 0x4E487B7100000000000000000000000000000000000000000000000000000000 PUSH1 0x0 MSTORE PUSH1 0x12 PUSH1 0x4 MSTORE PUSH1 0x24 PUSH1 0x0 REVERT JUMPDEST PUSH1 0x0 PUSH2 0x3444 DUP3 PUSH2 0x2E05 JUMP JUMPDEST SWAP2 POP PUSH2 0x344F DUP4 PUSH2 0x2E05 JUMP JUMPDEST SWAP3 POP DUP3 PUSH2 0x345F JUMPI PUSH2 0x345E PUSH2 0x340A JUMP JUMPDEST JUMPDEST DUP3 DUP3 MOD SWAP1 POP SWAP3 SWAP2 POP POP JUMP JUMPDEST PUSH32 0x4E487B7100000000000000000000000000000000000000000000000000000000 PUSH1 0x0 MSTORE PUSH1 0x11 PUSH1 0x4 MSTORE PUSH1 0x24 PUSH1 0x0 REVERT JUMPDEST PUSH1 0x0 PUSH2 0x34A4 DUP3 PUSH2 0x2E05 JUMP JUMPDEST SWAP2 POP PUSH32 0xFFFFFFFFFFFFFFFFFFFFFFFFFFFFFFFFFFFFFFFFFFFFFFFFFFFFFFFFFFFFFFFF DUP3 EQ ISZERO PUSH2 0x34D7 JUMPI PUSH2 0x34D6 PUSH2 0x346A JUMP JUMPDEST JUMPDEST PUSH1 0x1 DUP3 ADD SWAP1 POP SWAP2 SWAP1 POP JUMP JUMPDEST PUSH1 0x0 PUSH2 0x34ED DUP3 PUSH2 0x2E05 JUMP JUMPDEST SWAP2 POP PUSH2 0x34F8 DUP4 PUSH2 0x2E05 JUMP JUMPDEST SWAP3 POP DUP2 PUSH32 0xFFFFFFFFFFFFFFFFFFFFFFFFFFFFFFFFFFFFFFFFFFFFFFFFFFFFFFFFFFFFFFFF DIV DUP4 GT DUP3 ISZERO ISZERO AND ISZERO PUSH2 0x3531 JUMPI PUSH2 0x3530 PUSH2 0x346A JUMP JUMPDEST JUMPDEST DUP3 DUP3 MUL SWAP1 POP SWAP3 SWAP2 POP POP JUMP JUMPDEST PUSH32 0x4E487B7100000000000000000000000000000000000000000000000000000000 PUSH1 0x0 MSTORE PUSH1 0x41 PUSH1 0x4 MSTORE PUSH1 0x24 PUSH1 0x0 REVERT JUMPDEST PUSH32 0x4E487B7100000000000000000000000000000000000000000000000000000000 PUSH1 0x0 MSTORE PUSH1 0x32 PUSH1 0x4 MSTORE PUSH1 0x24 PUSH1 0x0 REVERT JUMPDEST PUSH1 0x0 PUSH2 0x35A5 DUP3 PUSH2 0x2E05 JUMP JUMPDEST SWAP2 POP PUSH2 0x35B0 DUP4 PUSH2 0x2E05 JUMP JUMPDEST SWAP3 POP DUP3 PUSH32 0xFFFFFFFFFFFFFFFFFFFFFFFFFFFFFFFFFFFFFFFFFFFFFFFFFFFFFFFFFFFFFFFF SUB DUP3 GT ISZERO PUSH2 0x35E5 JUMPI PUSH2 0x35E4 PUSH2 0x346A JUMP JUMPDEST JUMPDEST DUP3 DUP3 ADD SWAP1 POP SWAP3 SWAP2 POP POP JUMP JUMPDEST PUSH1 0x0 DUP3 DUP3 MSTORE PUSH1 0x20 DUP3 ADD SWAP1 POP SWAP3 SWAP2 POP POP JUMP JUMPDEST PUSH32 0x43686F6F7365206E756D626572206265747765656E203020616E642031303000 PUSH1 0x0 DUP3 ADD MSTORE POP JUMP JUMPDEST PUSH1 0x0 PUSH2 0x3637 PUSH1 0x1F DUP4 PUSH2 0x35F0 JUMP JUMPDEST SWAP2 POP PUSH2 0x3642 DUP3 PUSH2 0x3601 JUMP JUMPDEST PUSH1 0x20 DUP3 ADD SWAP1 POP SWAP2 SWAP1 POP JUMP JUMPDEST PUSH1 0x0 PUSH1 0x20 DUP3 ADD SWAP1 POP DUP2 DUP2 SUB PUSH1 0x0 DUP4 ADD MSTORE PUSH2 0x3666 DUP2 PUSH2 0x362A JUMP JUMPDEST SWAP1 POP SWAP2 SWAP1 POP JUMP JUMPDEST PUSH32 0x467265652067616D657320617265206E6F7420737570706F7274656420686572 PUSH1 0x0 DUP3 ADD MSTORE PUSH32 0x6521000000000000000000000000000000000000000000000000000000000000 PUSH1 0x20 DUP3 ADD MSTORE POP JUMP JUMPDEST PUSH1 0x0 PUSH2 0x36C9 PUSH1 0x22 DUP4 PUSH2 0x35F0 JUMP JUMPDEST SWAP2 POP PUSH2 0x36D4 DUP3 PUSH2 0x366D JUMP JUMPDEST PUSH1 0x40 DUP3 ADD SWAP1 POP SWAP2 SWAP1 POP JUMP JUMPDEST PUSH1 0x0 PUSH1 0x20 DUP3 ADD SWAP1 POP DUP2 DUP2 SUB PUSH1 0x0 DUP4 ADD MSTORE PUSH2 0x36F8 DUP2 PUSH2 0x36BC JUMP JUMPDEST SWAP1 POP SWAP2 SWAP1 POP JUMP JUMPDEST PUSH1 0x0 PUSH1 0x20 DUP3 ADD SWAP1 POP PUSH2 0x3714 PUSH1 0x0 DUP4 ADD DUP5 PUSH2 0x30FB JUMP JUMPDEST SWAP3 SWAP2 POP POP JUMP JUMPDEST PUSH1 0x0 PUSH2 0x3725 DUP3 PUSH2 0x2E05 JUMP JUMPDEST SWAP2 POP PUSH2 0x3730 DUP4 PUSH2 0x2E05 JUMP JUMPDEST SWAP3 POP DUP3 DUP3 LT ISZERO PUSH2 0x3743 JUMPI PUSH2 0x3742 PUSH2 0x346A JUMP JUMPDEST JUMPDEST DUP3 DUP3 SUB SWAP1 POP SWAP3 SWAP2 POP POP JUMP JUMPDEST PUSH32 0x596F7520617265206E6F7420612077696E6E6572206F66207468652067616D65 PUSH1 0x0 DUP3 ADD MSTORE POP JUMP JUMPDEST PUSH1 0x0 PUSH2 0x3784 PUSH1 0x20 DUP4 PUSH2 0x35F0 JUMP JUMPDEST SWAP2 POP PUSH2 0x378F DUP3 PUSH2 0x374E JUMP JUMPDEST PUSH1 0x20 DUP3 ADD SWAP1 POP SWAP2 SWAP1 POP JUMP JUMPDEST PUSH1 0x0 PUSH1 0x20 DUP3 ADD SWAP1 POP DUP2 DUP2 SUB PUSH1 0x0 DUP4 ADD MSTORE PUSH2 0x37B3 DUP2 PUSH2 0x3777 JUMP JUMPDEST SWAP1 POP SWAP2 SWAP1 POP JUMP JUMPDEST PUSH32 0x5072697A6520697320636C61696D656420616C72656164790000000000000000 PUSH1 0x0 DUP3 ADD MSTORE POP JUMP JUMPDEST PUSH1 0x0 PUSH2 0x37F0 PUSH1 0x18 DUP4 PUSH2 0x35F0 JUMP JUMPDEST SWAP2 POP PUSH2 0x37FB DUP3 PUSH2 0x37BA JUMP JUMPDEST PUSH1 0x20 DUP3 ADD SWAP1 POP SWAP2 SWAP1 POP JUMP JUMPDEST PUSH1 0x0 PUSH1 0x20 DUP3 ADD SWAP1 POP DUP2 DUP2 SUB PUSH1 0x0 DUP4 ADD MSTORE PUSH2 0x381F DUP2 PUSH2 0x37E3 JUMP JUMPDEST SWAP1 POP SWAP2 SWAP1 POP JUMP JUMPDEST PUSH32 0x5468652067616D652069732066696E6973686564000000000000000000000000 PUSH1 0x0 DUP3 ADD MSTORE POP JUMP JUMPDEST PUSH1 0x0 PUSH2 0x385C PUSH1 0x14 DUP4 PUSH2 0x35F0 JUMP JUMPDEST SWAP2 POP PUSH2 0x3867 DUP3 PUSH2 0x3826 JUMP JUMPDEST PUSH1 0x20 DUP3 ADD SWAP1 POP SWAP2 SWAP1 POP JUMP JUMPDEST PUSH1 0x0 PUSH1 0x20 DUP3 ADD SWAP1 POP DUP2 DUP2 SUB PUSH1 0x0 DUP4 ADD MSTORE PUSH2 0x388B DUP2 PUSH2 0x384F JUMP JUMPDEST SWAP1 POP SWAP2 SWAP1 POP JUMP JUMPDEST PUSH32 0x56616C7565206F6620746865207472616E73616374696F6E2073686F756C6420 PUSH1 0x0 DUP3 ADD MSTORE PUSH32 0x626520657175616C20746F207468652067616D65000000000000000000000000 PUSH1 0x20 DUP3 ADD MSTORE POP JUMP JUMPDEST PUSH1 0x0 PUSH2 0x38EE PUSH1 0x34 DUP4 PUSH2 0x35F0 JUMP JUMPDEST SWAP2 POP PUSH2 0x38F9 DUP3 PUSH2 0x3892 JUMP JUMPDEST PUSH1 0x40 DUP3 ADD SWAP1 POP SWAP2 SWAP1 POP JUMP JUMPDEST PUSH1 0x0 PUSH1 0x20 DUP3 ADD SWAP1 POP DUP2 DUP2 SUB PUSH1 0x0 DUP4 ADD MSTORE PUSH2 0x391D DUP2 PUSH2 0x38E1 JUMP JUMPDEST SWAP1 POP SWAP2 SWAP1 POP JUMP JUMPDEST PUSH32 0x4F776E657220697320616C726561647920696E207061727469636970616E7473 PUSH1 0x0 DUP3 ADD MSTORE PUSH32 0x206C697374000000000000000000000000000000000000000000000000000000 PUSH1 0x20 DUP3 ADD MSTORE POP JUMP JUMPDEST PUSH1 0x0 PUSH2 0x3980 PUSH1 0x25 DUP4 PUSH2 0x35F0 JUMP JUMPDEST SWAP2 POP PUSH2 0x398B DUP3 PUSH2 0x3924 JUMP JUMPDEST PUSH1 0x40 DUP3 ADD SWAP1 POP SWAP2 SWAP1 POP JUMP JUMPDEST PUSH1 0x0 PUSH1 0x20 DUP3 ADD SWAP1 POP DUP2 DUP2 SUB PUSH1 0x0 DUP4 ADD MSTORE PUSH2 0x39AF DUP2 PUSH2 0x3973 JUMP JUMPDEST SWAP1 POP SWAP2 SWAP1 POP JUMP JUMPDEST PUSH32 0x596F752063616E206E6F74206A6F696E20747769636500000000000000000000 PUSH1 0x0 DUP3 ADD MSTORE POP JUMP JUMPDEST PUSH1 0x0 PUSH2 0x39EC PUSH1 0x16 DUP4 PUSH2 0x35F0 JUMP JUMPDEST SWAP2 POP PUSH2 0x39F7 DUP3 PUSH2 0x39B6 JUMP JUMPDEST PUSH1 0x20 DUP3 ADD SWAP1 POP SWAP2 SWAP1 POP JUMP JUMPDEST PUSH1 0x0 PUSH1 0x20 DUP3 ADD SWAP1 POP DUP2 DUP2 SUB PUSH1 0x0 DUP4 ADD MSTORE PUSH2 0x3A1B DUP2 PUSH2 0x39DF JUMP JUMPDEST SWAP1 POP SWAP2 SWAP1 POP JUMP JUMPDEST PUSH32 0x5061727469636970616E7473206C696D697420686173206265656E2072656163 PUSH1 0x0 DUP3 ADD MSTORE PUSH32 0x6865640000000000000000000000000000000000000000000000000000000000 PUSH1 0x20 DUP3 ADD MSTORE POP JUMP JUMPDEST PUSH1 0x0 PUSH2 0x3A7E PUSH1 0x23 DUP4 PUSH2 0x35F0 JUMP JUMPDEST SWAP2 POP PUSH2 0x3A89 DUP3 PUSH2 0x3A22 JUMP JUMPDEST PUSH1 0x40 DUP3 ADD SWAP1 POP SWAP2 SWAP1 POP JUMP JUMPDEST PUSH1 0x0 PUSH1 0x20 DUP3 ADD SWAP1 POP DUP2 DUP2 SUB PUSH1 0x0 DUP4 ADD MSTORE PUSH2 0x3AAD DUP2 PUSH2 0x3A71 JUMP JUMPDEST SWAP1 POP SWAP2 SWAP1 POP JUMP JUMPDEST PUSH32 0x5468652067616D652069732066696E697368656420616C726561647900000000 PUSH1 0x0 DUP3 ADD MSTORE POP JUMP JUMPDEST PUSH1 0x0 PUSH2 0x3AEA PUSH1 0x1C DUP4 PUSH2 0x35F0 JUMP JUMPDEST SWAP2 POP PUSH2 0x3AF5 DUP3 PUSH2 0x3AB4 JUMP JUMPDEST PUSH1 0x20 DUP3 ADD SWAP1 POP SWAP2 SWAP1 POP JUMP JUMPDEST PUSH1 0x0 PUSH1 0x20 DUP3 ADD SWAP1 POP DUP2 DUP2 SUB PUSH1 0x0 DUP4 ADD MSTORE PUSH2 0x3B19 DUP2 PUSH2 0x3ADD JUMP JUMPDEST SWAP1 POP SWAP2 SWAP1 POP JUMP JUMPDEST PUSH32 0x596F752063616E2066696E69736820612067616D65206F6E6C79206166746572 PUSH1 0x0 DUP3 ADD MSTORE PUSH32 0x20657861637420706572696F6400000000000000000000000000000000000000 PUSH1 0x20 DUP3 ADD MSTORE POP JUMP JUMPDEST PUSH1 0x0 PUSH2 0x3B7C PUSH1 0x2D DUP4 PUSH2 0x35F0 JUMP JUMPDEST SWAP2 POP PUSH2 0x3B87 DUP3 PUSH2 0x3B20 JUMP JUMPDEST PUSH1 0x40 DUP3 ADD SWAP1 POP SWAP2 SWAP1 POP JUMP JUMPDEST PUSH1 0x0 PUSH1 0x20 DUP3 ADD SWAP1 POP DUP2 DUP2 SUB PUSH1 0x0 DUP4 ADD MSTORE PUSH2 0x3BAB DUP2 PUSH2 0x3B6F JUMP JUMPDEST SWAP1 POP SWAP2 SWAP1 POP JUMP JUMPDEST PUSH32 0x4F6E6C79207061727469636970616E74732063616E2066696E69736820612067 PUSH1 0x0 DUP3 ADD MSTORE PUSH32 0x616D650000000000000000000000000000000000000000000000000000000000 PUSH1 0x20 DUP3 ADD MSTORE POP JUMP JUMPDEST PUSH1 0x0 PUSH2 0x3C0E PUSH1 0x23 DUP4 PUSH2 0x35F0 JUMP JUMPDEST SWAP2 POP PUSH2 0x3C19 DUP3 PUSH2 0x3BB2 JUMP JUMPDEST PUSH1 0x40 DUP3 ADD SWAP1 POP SWAP2 SWAP1 POP JUMP JUMPDEST PUSH1 0x0 PUSH1 0x20 DUP3 ADD SWAP1 POP DUP2 DUP2 SUB PUSH1 0x0 DUP4 ADD MSTORE PUSH2 0x3C3D DUP2 PUSH2 0x3C01 JUMP JUMPDEST SWAP1 POP SWAP2 SWAP1 POP JUMP JUMPDEST PUSH1 0x0 PUSH2 0x3C4F DUP3 PUSH2 0x2D12 JUMP JUMPDEST SWAP2 POP PUSH2 0x3C5A DUP4 PUSH2 0x2D12 JUMP JUMPDEST SWAP3 POP DUP3 DUP3 LT ISZERO PUSH2 0x3C6D JUMPI PUSH2 0x3C6C PUSH2 0x346A JUMP JUMPDEST JUMPDEST DUP3 DUP3 SUB SWAP1 POP SWAP3 SWAP2 POP POP JUMP JUMPDEST PUSH1 0x0 PUSH2 0x3C83 DUP3 PUSH2 0x2E05 JUMP JUMPDEST SWAP2 POP PUSH2 0x3C8E DUP4 PUSH2 0x2E05 JUMP JUMPDEST SWAP3 POP DUP3 PUSH2 0x3C9E JUMPI PUSH2 0x3C9D PUSH2 0x340A JUMP JUMPDEST JUMPDEST DUP3 DUP3 DIV SWAP1 POP SWAP3 SWAP2 POP POP JUMP JUMPDEST PUSH1 0x0 PUSH2 0x3CB4 DUP3 PUSH2 0x2D12 JUMP JUMPDEST SWAP2 POP PUSH1 0xFF DUP3 EQ ISZERO PUSH2 0x3CC8 JUMPI PUSH2 0x3CC7 PUSH2 0x346A JUMP JUMPDEST JUMPDEST PUSH1 0x1 DUP3 ADD SWAP1 POP SWAP2 SWAP1 POP JUMP JUMPDEST PUSH1 0x0 PUSH2 0x3CDE DUP3 PUSH2 0x2D12 JUMP JUMPDEST SWAP2 POP PUSH2 0x3CE9 DUP4 PUSH2 0x2D12 JUMP JUMPDEST SWAP3 POP DUP2 PUSH1 0xFF DIV DUP4 GT DUP3 ISZERO ISZERO AND ISZERO PUSH2 0x3D03 JUMPI PUSH2 0x3D02 PUSH2 0x346A JUMP JUMPDEST JUMPDEST DUP3 DUP3 MUL SWAP1 POP SWAP3 SWAP2 POP POP JUMP JUMPDEST PUSH1 0x0 PUSH2 0x3D19 DUP3 PUSH2 0x2D12 JUMP JUMPDEST SWAP2 POP PUSH2 0x3D24 DUP4 PUSH2 0x2D12 JUMP JUMPDEST SWAP3 POP DUP3 PUSH1 0xFF SUB DUP3 GT ISZERO PUSH2 0x3D3A JUMPI PUSH2 0x3D39 PUSH2 0x346A JUMP JUMPDEST JUMPDEST DUP3 DUP3 ADD SWAP1 POP SWAP3 SWAP2 POP POP JUMP JUMPDEST PUSH1 0x0 PUSH2 0x3D50 DUP3 PUSH2 0x2E05 JUMP JUMPDEST SWAP2 POP PUSH1 0x0 DUP3 EQ ISZERO PUSH2 0x3D64 JUMPI PUSH2 0x3D63 PUSH2 0x346A JUMP JUMPDEST JUMPDEST PUSH1 0x1 DUP3 SUB SWAP1 POP SWAP2 SWAP1 POP JUMP INVALID LOG2 PUSH5 0x6970667358 0x22 SLT KECCAK256 PUSH26 0x999804D77D44C48FECD6CCB546525108345E29494CA886CD2E3E CHAINID SWAP13 0x49 CALLDATASIZE 0x4D PUSH5 0x736F6C6343 STOP ADDMOD SIGNEXTEND STOP CALLER "
        },
        "methodIdentifiers": {
          "biddersList(uint256,address)": "208970d5",
          "claim(uint256)": "379607f5",
          "createGame(uint8,uint8)": "1346a76d",
          "finishGame(uint256)": "cfe186b2",
          "gamesList(uint256)": "5054c0a3",
          "generateRandom()": "02e4af01",
          "getActualGames()": "16466fe6",
          "getBet(uint256,address)": "e0950ddf",
          "getNumbers(uint256)": "4a7b26ae",
          "getOwner(uint256)": "c41a360a",
          "getPrizes(uint256)": "cc307795",
          "getUserGames(address)": "120aace6",
          "joinGame(uint256,uint8)": "ca6649c5",
          "prizeList(address,uint256)": "9ff0f4a9"
        }
      }
    }
  }
}