{
  "_format": "hh-sol-artifact-1",
  "contractName": "Fair",
  "sourceName": "contracts/Fair.sol",
  "abi": [
    {
      "inputs": [
        {
          "internalType": "address",
          "name": "_wallet",
          "type": "address"
        },
        {
          "internalType": "uint16",
          "name": "_feePercent",
          "type": "uint16"
        },
        {
          "internalType": "uint16",
          "name": "_timeToFinish",
          "type": "uint16"
        }
      ],
      "stateMutability": "nonpayable",
      "type": "constructor"
    },
    {
      "anonymous": false,
      "inputs": [
        {
          "indexed": false,
          "internalType": "uint256",
          "name": "gameId",
          "type": "uint256"
        },
        {
          "indexed": false,
          "internalType": "uint256",
          "name": "bid",
          "type": "uint256"
        }
      ],
      "name": "CreateGame",
      "type": "event"
    },
    {
      "anonymous": false,
      "inputs": [
        {
          "indexed": true,
          "internalType": "address",
          "name": "previousOwner",
          "type": "address"
        },
        {
          "indexed": true,
          "internalType": "address",
          "name": "newOwner",
          "type": "address"
        }
      ],
      "name": "OwnershipTransferred",
      "type": "event"
    },
    {
      "inputs": [
        {
          "internalType": "uint256",
          "name": "",
          "type": "uint256"
        },
        {
          "internalType": "address",
          "name": "",
          "type": "address"
        }
      ],
      "name": "biddersList",
      "outputs": [
        {
          "internalType": "bool",
          "name": "participatedFlag",
          "type": "bool"
        },
        {
          "internalType": "uint8",
          "name": "number",
          "type": "uint8"
        }
      ],
      "stateMutability": "view",
      "type": "function"
    },
    {
      "inputs": [
        {
          "internalType": "uint256",
          "name": "_gameId",
          "type": "uint256"
        }
      ],
      "name": "claim",
      "outputs": [],
      "stateMutability": "nonpayable",
      "type": "function"
    },
    {
      "inputs": [
        {
          "internalType": "uint8",
          "name": "_number",
          "type": "uint8"
        },
        {
          "internalType": "uint8",
          "name": "_limit",
          "type": "uint8"
        }
      ],
      "name": "createGame",
      "outputs": [],
      "stateMutability": "payable",
      "type": "function"
    },
    {
      "inputs": [],
      "name": "feePercent",
      "outputs": [
        {
          "internalType": "uint16",
          "name": "",
          "type": "uint16"
        }
      ],
      "stateMutability": "view",
      "type": "function"
    },
    {
      "inputs": [
        {
          "internalType": "uint256",
          "name": "_gameId",
          "type": "uint256"
        }
      ],
      "name": "finishGame",
      "outputs": [],
      "stateMutability": "nonpayable",
      "type": "function"
    },
    {
      "inputs": [
        {
          "internalType": "uint256",
          "name": "",
          "type": "uint256"
        }
      ],
      "name": "gamesList",
      "outputs": [
        {
          "internalType": "address",
          "name": "owner",
          "type": "address"
        },
        {
          "internalType": "bool",
          "name": "isFinished",
          "type": "bool"
        },
        {
          "internalType": "uint256",
          "name": "bid",
          "type": "uint256"
        },
        {
          "internalType": "uint256",
          "name": "participantsLimit",
          "type": "uint256"
        },
        {
          "internalType": "uint256",
          "name": "createdTimestamp",
          "type": "uint256"
        },
        {
          "internalType": "uint256",
          "name": "pool",
          "type": "uint256"
        },
        {
          "internalType": "uint256",
          "name": "individualPrize",
          "type": "uint256"
        },
        {
          "internalType": "uint8",
          "name": "luckyNumber",
          "type": "uint8"
        }
      ],
      "stateMutability": "view",
      "type": "function"
    },
    {
      "inputs": [],
      "name": "generateRandom",
      "outputs": [
        {
          "internalType": "uint8",
          "name": "",
          "type": "uint8"
        }
      ],
      "stateMutability": "nonpayable",
      "type": "function"
    },
    {
      "inputs": [],
      "name": "getActualGames",
      "outputs": [
        {
          "internalType": "uint256[]",
          "name": "",
          "type": "uint256[]"
        }
      ],
      "stateMutability": "view",
      "type": "function"
    },
    {
      "inputs": [
        {
          "internalType": "uint256",
          "name": "_gameId",
          "type": "uint256"
        },
        {
          "internalType": "address",
          "name": "adr",
          "type": "address"
        }
      ],
      "name": "getBet",
      "outputs": [
        {
          "internalType": "uint8",
          "name": "",
          "type": "uint8"
        }
      ],
      "stateMutability": "view",
      "type": "function"
    },
    {
      "inputs": [
        {
          "internalType": "uint256",
          "name": "_gameId",
          "type": "uint256"
        }
      ],
      "name": "getNumbers",
      "outputs": [
        {
          "internalType": "uint8[]",
          "name": "",
          "type": "uint8[]"
        }
      ],
      "stateMutability": "view",
      "type": "function"
    },
    {
      "inputs": [
        {
          "internalType": "uint256",
          "name": "_gameId",
          "type": "uint256"
        }
      ],
      "name": "getOwner",
      "outputs": [
        {
          "internalType": "address",
          "name": "",
          "type": "address"
        }
      ],
      "stateMutability": "view",
      "type": "function"
    },
    {
      "inputs": [
        {
          "internalType": "uint256",
          "name": "_gameId",
          "type": "uint256"
        }
      ],
      "name": "getPrizes",
      "outputs": [
        {
          "internalType": "uint256[]",
          "name": "",
          "type": "uint256[]"
        },
        {
          "internalType": "address[]",
          "name": "",
          "type": "address[]"
        },
        {
          "internalType": "uint256[]",
          "name": "",
          "type": "uint256[]"
        }
      ],
      "stateMutability": "view",
      "type": "function"
    },
    {
      "inputs": [
        {
          "internalType": "address",
          "name": "_user",
          "type": "address"
        }
      ],
      "name": "getUserGames",
      "outputs": [
        {
          "internalType": "uint256[]",
          "name": "",
          "type": "uint256[]"
        }
      ],
      "stateMutability": "view",
      "type": "function"
    },
    {
      "inputs": [
        {
          "internalType": "uint256",
          "name": "_gameId",
          "type": "uint256"
        },
        {
          "internalType": "uint8",
          "name": "_number",
          "type": "uint8"
        }
      ],
      "name": "joinGame",
      "outputs": [],
      "stateMutability": "payable",
      "type": "function"
    },
    {
      "inputs": [
        {
          "internalType": "uint16",
          "name": "_feePercent",
          "type": "uint16"
        }
      ],
      "name": "newFeePercent",
      "outputs": [],
      "stateMutability": "nonpayable",
      "type": "function"
    },
    {
      "inputs": [
        {
          "internalType": "uint16",
          "name": "_timeToFinish",
          "type": "uint16"
        }
      ],
      "name": "newTimeToFinish",
      "outputs": [],
      "stateMutability": "nonpayable",
      "type": "function"
    },
    {
      "inputs": [
        {
          "internalType": "address",
          "name": "_wallet",
          "type": "address"
        }
      ],
      "name": "newWallet",
      "outputs": [],
      "stateMutability": "nonpayable",
      "type": "function"
    },
    {
      "inputs": [],
      "name": "owner",
      "outputs": [
        {
          "internalType": "address",
          "name": "",
          "type": "address"
        }
      ],
      "stateMutability": "view",
      "type": "function"
    },
    {
      "inputs": [
        {
          "internalType": "address",
          "name": "",
          "type": "address"
        },
        {
          "internalType": "uint256",
          "name": "",
          "type": "uint256"
        }
      ],
      "name": "prizeList",
      "outputs": [
        {
          "internalType": "bool",
          "name": "isWinner",
          "type": "bool"
        },
        {
          "internalType": "bool",
          "name": "isClaimed",
          "type": "bool"
        },
        {
          "internalType": "uint256",
          "name": "prize",
          "type": "uint256"
        }
      ],
      "stateMutability": "view",
      "type": "function"
    },
    {
      "inputs": [],
      "name": "renounceOwnership",
      "outputs": [],
      "stateMutability": "nonpayable",
      "type": "function"
    },
    {
      "inputs": [],
      "name": "timeToFinish",
      "outputs": [
        {
          "internalType": "uint16",
          "name": "",
          "type": "uint16"
        }
      ],
      "stateMutability": "view",
      "type": "function"
    },
    {
      "inputs": [
        {
          "internalType": "address",
          "name": "newOwner",
          "type": "address"
        }
      ],
      "name": "transferOwnership",
      "outputs": [],
      "stateMutability": "nonpayable",
      "type": "function"
    },
    {
      "inputs": [],
      "name": "wallet",
      "outputs": [
        {
          "internalType": "address",
          "name": "",
          "type": "address"
        }
      ],
      "stateMutability": "view",
      "type": "function"
    }
  ],
  "bytecode": "0x60806040523480156200001157600080fd5b5060405162004e0e38038062004e0e833981810160405281019062000037919062000369565b620000576200004b620001f460201b60201c565b620001fc60201b60201c565b600073ffffffffffffffffffffffffffffffffffffffff168373ffffffffffffffffffffffffffffffffffffffff161415620000ca576040517f08c379a0000000000000000000000000000000000000000000000000000000008152600401620000c19062000426565b60405180910390fd5b60008261ffff16118015620000e457506127108261ffff16105b62000126576040517f08c379a00000000000000000000000000000000000000000000000000000000081526004016200011d90620004be565b60405180910390fd5b60008161ffff16141562000171576040517f08c379a0000000000000000000000000000000000000000000000000000000008152600401620001689062000530565b60405180910390fd5b826004806101000a81548173ffffffffffffffffffffffffffffffffffffffff021916908373ffffffffffffffffffffffffffffffffffffffff16021790555081600460006101000a81548161ffff021916908361ffff16021790555080600460026101000a81548161ffff021916908361ffff16021790555050505062000552565b600033905090565b60008060009054906101000a900473ffffffffffffffffffffffffffffffffffffffff169050816000806101000a81548173ffffffffffffffffffffffffffffffffffffffff021916908373ffffffffffffffffffffffffffffffffffffffff1602179055508173ffffffffffffffffffffffffffffffffffffffff168173ffffffffffffffffffffffffffffffffffffffff167f8be0079c531659141344cd1fd0a4f28419497f9722a3daafe3b4186f6b6457e060405160405180910390a35050565b600080fd5b600073ffffffffffffffffffffffffffffffffffffffff82169050919050565b6000620002f282620002c5565b9050919050565b6200030481620002e5565b81146200031057600080fd5b50565b6000815190506200032481620002f9565b92915050565b600061ffff82169050919050565b62000343816200032a565b81146200034f57600080fd5b50565b600081519050620003638162000338565b92915050565b600080600060608486031215620003855762000384620002c0565b5b6000620003958682870162000313565b9350506020620003a88682870162000352565b9250506040620003bb8682870162000352565b9150509250925092565b600082825260208201905092915050565b7f57616c6c65742069732061646472657373283029000000000000000000000000600082015250565b60006200040e601483620003c5565b91506200041b82620003d6565b602082019050919050565b600060208201905081810360008301526200044181620003ff565b9050919050565b7f4665652070657263656e74206973206c657373207468616e2030206f72206d6f60008201527f7265207468616e20313030303000000000000000000000000000000000000000602082015250565b6000620004a6602d83620003c5565b9150620004b38262000448565b604082019050919050565b60006020820190508181036000830152620004d98162000497565b9050919050565b7f54696d6520746f2066696e69736820697320657175616c20746f203000000000600082015250565b600062000518601c83620003c5565b91506200052582620004e0565b602082019050919050565b600060208201905081810360008301526200054b8162000509565b9050919050565b6148ac80620005626000396000f3fe6080604052600436106101405760003560e01c8063715018a6116100b6578063ca6649c51161006f578063ca6649c51461046d578063cc30779514610489578063cfe186b2146104c8578063e0950ddf146104f1578063e8d95ad31461052e578063f2fde38b1461055757610140565b8063715018a61461035b5780637fd6f15c146103725780638da5cb5b1461039d5780639ff0f4a9146103c8578063bda6688f14610407578063c41a360a1461043057610140565b8063208970d511610108578063208970d51461021f578063379607f51461025d578063493ab058146102865780634a7b26ae146102af5780635054c0a3146102ec578063521eb2731461033057610140565b806302e4af0114610145578063120aace6146101705780631346a76d146101ad57806313bf83c5146101c957806316466fe6146101f4575b600080fd5b34801561015157600080fd5b5061015a610580565b604051610167919061347c565b60405180910390f35b34801561017c57600080fd5b50610197600480360381019061019291906134fa565b6105e0565b6040516101a491906135ef565b60405180910390f35b6101c760048036038101906101c2919061363d565b610b5a565b005b3480156101d557600080fd5b506101de610f7a565b6040516101eb919061369a565b60405180910390f35b34801561020057600080fd5b50610209610f8e565b60405161021691906135ef565b60405180910390f35b34801561022b57600080fd5b50610246600480360381019061024191906136e1565b611192565b60405161025492919061373c565b60405180910390f35b34801561026957600080fd5b50610284600480360381019061027f9190613765565b6111dd565b005b34801561029257600080fd5b506102ad60048036038101906102a891906137be565b611584565b005b3480156102bb57600080fd5b506102d660048036038101906102d19190613765565b6115f4565b6040516102e391906138a9565b60405180910390f35b3480156102f857600080fd5b50610313600480360381019061030e9190613765565b611688565b6040516103279897969594939291906138e9565b60405180910390f35b34801561033c57600080fd5b5061034561170a565b6040516103529190613967565b60405180910390f35b34801561036757600080fd5b5061037061172e565b005b34801561037e57600080fd5b50610387611742565b604051610394919061369a565b60405180910390f35b3480156103a957600080fd5b506103b2611756565b6040516103bf9190613967565b60405180910390f35b3480156103d457600080fd5b506103ef60048036038101906103ea9190613982565b61177f565b6040516103fe939291906139c2565b60405180910390f35b34801561041357600080fd5b5061042e600480360381019061042991906134fa565b6117d0565b005b34801561043c57600080fd5b5061045760048036038101906104529190613765565b61188b565b6040516104649190613967565b60405180910390f35b610487600480360381019061048291906139f9565b6118cb565b005b34801561049557600080fd5b506104b060048036038101906104ab9190613765565b611e16565b6040516104bf93929190613af7565b60405180910390f35b3480156104d457600080fd5b506104ef60048036038101906104ea9190613765565b612206565b005b3480156104fd57600080fd5b50610518600480360381019061051391906136e1565b6131b7565b604051610525919061347c565b60405180910390f35b34801561053a57600080fd5b50610555600480360381019061055091906137be565b613222565b005b34801561056357600080fd5b5061057e600480360381019061057991906134fa565b613292565b005b6000806065423360025460405160200161059c93929190613bac565b6040516020818303038152906040528051906020012060001c6105bf9190613c18565b9050600260008154809291906105d490613c78565b91905055508091505090565b6060600060088060008573ffffffffffffffffffffffffffffffffffffffff1673ffffffffffffffffffffffffffffffffffffffff168152602001908152602001600020600001805490506106359190613cc1565b67ffffffffffffffff81111561064e5761064d613d1b565b5b60405190808252806020026020018201604052801561067c5781602001602082028036833780820191505090505b5090506000805b600860008673ffffffffffffffffffffffffffffffffffffffff1673ffffffffffffffffffffffffffffffffffffffff16815260200190815260200160002060000180549050811015610b4f576000600860008773ffffffffffffffffffffffffffffffffffffffff1673ffffffffffffffffffffffffffffffffffffffff168152602001908152602001600020600001828154811061072657610725613d4a565b5b90600052602060002001549050600660008281526020019081526020016000206001015484848151811061075d5761075c613d4a565b5b60200260200101818152505060066000828152602001908152602001600020600501548460018561078e9190613d79565b8151811061079f5761079e613d4a565b5b6020026020010181815250506006600082815260200190815260200160002060020180549050846002856107d39190613d79565b815181106107e4576107e3613d4a565b5b60200260200101818152505080846004856107ff9190613d79565b815181106108105761080f613d4a565b5b6020026020010181815250506006600082815260200190815260200160002060060154846005856108419190613d79565b8151811061085257610851613d4a565b5b6020026020010181815250506006600082815260200190815260200160002060080160009054906101000a900460ff1660ff16846006856108939190613d79565b815181106108a4576108a3613d4a565b5b602002602001018181525050600960008773ffffffffffffffffffffffffffffffffffffffff1673ffffffffffffffffffffffffffffffffffffffff168152602001908152602001600020600082815260200190815260200160002060010154846007856109129190613d79565b8151811061092357610922613d4a565b5b602002602001018181525050600960008773ffffffffffffffffffffffffffffffffffffffff1673ffffffffffffffffffffffffffffffffffffffff168152602001908152602001600020600082815260200190815260200160002060000160019054906101000a900460ff16156109c7576000846003856109a59190613d79565b815181106109b6576109b5613d4a565b5b602002602001018181525050610b2c565b600960008773ffffffffffffffffffffffffffffffffffffffff1673ffffffffffffffffffffffffffffffffffffffff168152602001908152602001600020600082815260200190815260200160002060000160009054906101000a900460ff1615610a5f57600184600385610a3d9190613d79565b81518110610a4e57610a4d613d4a565b5b602002602001018181525050610b2b565b6006600082815260200190815260200160002060000160149054906101000a900460ff16158015610ac55750600460029054906101000a900461ffff1661ffff166006600083815260200190815260200160002060050154610ac19190613d79565b4210155b15610afc57600284600385610ada9190613d79565b81518110610aeb57610aea613d4a565b5b602002602001018181525050610b2a565b600384600385610b0c9190613d79565b81518110610b1d57610b1c613d4a565b5b6020026020010181815250505b5b5b600883610b399190613d79565b9250508080610b4790613c78565b915050610683565b508192505050919050565b8160008160ff1610158015610b73575060648160ff1611155b610bb2576040517f08c379a0000000000000000000000000000000000000000000000000000000008152600401610ba990613e2c565b60405180910390fd5b60003411610bf5576040517f08c379a0000000000000000000000000000000000000000000000000000000008152600401610bec90613ebe565b60405180910390fd5b3360066000600154815260200190815260200160002060000160006101000a81548173ffffffffffffffffffffffffffffffffffffffff021916908373ffffffffffffffffffffffffffffffffffffffff160217905550346006600060015481526020019081526020016000206006016000828254610c749190613d79565b925050819055503460066000600154815260200190815260200160002060010181905550600660006001548152602001908152602001600020600201339080600181540180825580915050600190039060005260206000200160009091909190916101000a81548173ffffffffffffffffffffffffffffffffffffffff021916908373ffffffffffffffffffffffffffffffffffffffff1602179055508160ff16600660006001548152602001908152602001600020600401819055506006600060015481526020019081526020016000206003018390806001815401808255809150506001900390600052602060002090602091828204019190069091909190916101000a81548160ff021916908360ff1602179055504260066000600154815260200190815260200160002060050181905550600060066000600154815260200190815260200160002060080160006101000a81548160ff021916908360ff1602179055508260076000600154815260200190815260200160002060003373ffffffffffffffffffffffffffffffffffffffff1673ffffffffffffffffffffffffffffffffffffffff16815260200190815260200160002060000160016101000a81548160ff021916908360ff160217905550600160076000600154815260200190815260200160002060003373ffffffffffffffffffffffffffffffffffffffff1673ffffffffffffffffffffffffffffffffffffffff16815260200190815260200160002060000160006101000a81548160ff021916908315150217905550600860003373ffffffffffffffffffffffffffffffffffffffff1673ffffffffffffffffffffffffffffffffffffffff16815260200190815260200160002060000160015490806001815401808255809150506001900390600052602060002001600090919091909150557fefdb129ed8c918ef2a35b5212fc80a125215c26d64b3164c17218f7b0c1e1f4a60015434604051610f55929190613ede565b60405180910390a160016000815480929190610f7090613c78565b9190505550505050565b600460029054906101000a900461ffff1681565b606060006005600354600154610fa49190613f07565b610fae9190613cc1565b67ffffffffffffffff811115610fc757610fc6613d1b565b5b604051908082528060200260200182016040528015610ff55781602001602082028036833780820191505090505b50905060008060035490505b60015481101561118957600015156006600083815260200190815260200160002060000160149054906101000a900460ff161515141561117657600660008281526020019081526020016000206001015483838151811061106557611064613d4a565b5b6020026020010181815250506006600082815260200190815260200160002060050154836001846110969190613d79565b815181106110a7576110a6613d4a565b5b6020026020010181815250506006600082815260200190815260200160002060020180549050836002846110db9190613d79565b815181106110ec576110eb613d4a565b5b60200260200101818152505080836003846111079190613d79565b8151811061111857611117613d4a565b5b6020026020010181815250506006600082815260200190815260200160002060040154836004846111499190613d79565b8151811061115a57611159613d4a565b5b6020026020010181815250506005826111739190613d79565b91505b808061118190613c78565b915050611001565b50819250505090565b6007602052816000526040600020602052806000526040600020600091509150508060000160009054906101000a900460ff16908060000160019054906101000a900460ff16905082565b60011515600960003373ffffffffffffffffffffffffffffffffffffffff1673ffffffffffffffffffffffffffffffffffffffff168152602001908152602001600020600083815260200190815260200160002060000160009054906101000a900460ff16151514611284576040517f08c379a000000000000000000000000000000000000000000000000000000000815260040161127b90613f87565b60405180910390fd5b60001515600960003373ffffffffffffffffffffffffffffffffffffffff1673ffffffffffffffffffffffffffffffffffffffff168152602001908152602001600020600083815260200190815260200160002060000160019054906101000a900460ff1615151461132b576040517f08c379a000000000000000000000000000000000000000000000000000000000815260040161132290613ff3565b60405180910390fd5b6001600960003373ffffffffffffffffffffffffffffffffffffffff1673ffffffffffffffffffffffffffffffffffffffff168152602001908152602001600020600083815260200190815260200160002060000160016101000a81548160ff0219169083151502179055506000600960003373ffffffffffffffffffffffffffffffffffffffff1673ffffffffffffffffffffffffffffffffffffffff16815260200190815260200160002060008381526020019081526020016000206001015490506000612710600460009054906101000a900461ffff1661ffff16836114149190613cc1565b61141e9190614013565b826114299190613f07565b9050600081836114399190613f07565b905060003373ffffffffffffffffffffffffffffffffffffffff168360405161146190614075565b60006040518083038185875af1925050503d806000811461149e576040519150601f19603f3d011682016040523d82523d6000602084013e6114a3565b606091505b50509050600060048054906101000a900473ffffffffffffffffffffffffffffffffffffffff1673ffffffffffffffffffffffffffffffffffffffff16836040516114ed90614075565b60006040518083038185875af1925050503d806000811461152a576040519150601f19603f3d011682016040523d82523d6000602084013e61152f565b606091505b5050905081801561153d5750805b61157c576040517f08c379a0000000000000000000000000000000000000000000000000000000008152600401611573906140d6565b60405180910390fd5b505050505050565b61158c613316565b6127108161ffff16106115d4576040517f08c379a00000000000000000000000000000000000000000000000000000000081526004016115cb90614168565b60405180910390fd5b80600460006101000a81548161ffff021916908361ffff16021790555050565b60606006600083815260200190815260200160002060030180548060200260200160405190810160405280929190818152602001828054801561167c57602002820191906000526020600020906000905b82829054906101000a900460ff1660ff16815260200190600101906020826000010492830192600103820291508084116116455790505b50505050509050919050565b60066020528060005260406000206000915090508060000160009054906101000a900473ffffffffffffffffffffffffffffffffffffffff16908060000160149054906101000a900460ff16908060010154908060040154908060050154908060060154908060070154908060080160009054906101000a900460ff16905088565b60048054906101000a900473ffffffffffffffffffffffffffffffffffffffff1681565b611736613316565b6117406000613394565b565b600460009054906101000a900461ffff1681565b60008060009054906101000a900473ffffffffffffffffffffffffffffffffffffffff16905090565b6009602052816000526040600020602052806000526040600020600091509150508060000160009054906101000a900460ff16908060000160019054906101000a900460ff16908060010154905083565b6117d8613316565b600073ffffffffffffffffffffffffffffffffffffffff168173ffffffffffffffffffffffffffffffffffffffff161415611848576040517f08c379a000000000000000000000000000000000000000000000000000000000815260040161183f906141d4565b60405180910390fd5b806004806101000a81548173ffffffffffffffffffffffffffffffffffffffff021916908373ffffffffffffffffffffffffffffffffffffffff16021790555050565b60006006600083815260200190815260200160002060000160009054906101000a900473ffffffffffffffffffffffffffffffffffffffff169050919050565b8060008160ff16101580156118e4575060648160ff1611155b611923576040517f08c379a000000000000000000000000000000000000000000000000000000000815260040161191a90613e2c565b60405180910390fd5b82600460029054906101000a900461ffff1661ffff16600660008381526020019081526020016000206005015461195a9190613d79565b42111561199c576040517f08c379a000000000000000000000000000000000000000000000000000000000815260040161199390614240565b60405180910390fd5b600660008581526020019081526020016000206001015434146119f4576040517f08c379a00000000000000000000000000000000000000000000000000000000081526004016119eb906142d2565b60405180910390fd5b6006600085815260200190815260200160002060000160009054906101000a900473ffffffffffffffffffffffffffffffffffffffff1673ffffffffffffffffffffffffffffffffffffffff163373ffffffffffffffffffffffffffffffffffffffff161415611a99576040517f08c379a0000000000000000000000000000000000000000000000000000000008152600401611a9090614364565b60405180910390fd5b600015156007600086815260200190815260200160002060003373ffffffffffffffffffffffffffffffffffffffff1673ffffffffffffffffffffffffffffffffffffffff16815260200190815260200160002060000160009054906101000a900460ff16151514611b40576040517f08c379a0000000000000000000000000000000000000000000000000000000008152600401611b37906143d0565b60405180910390fd5b600060066000868152602001908152602001600020600401541480611b93575060066000858152602001908152602001600020600401546006600086815260200190815260200160002060020180549050105b611bd2576040517f08c379a0000000000000000000000000000000000000000000000000000000008152600401611bc990614462565b60405180910390fd5b34600660008681526020019081526020016000206006016000828254611bf89190613d79565b9250508190555060066000858152602001908152602001600020600201339080600181540180825580915050600190039060005260206000200160009091909190916101000a81548173ffffffffffffffffffffffffffffffffffffffff021916908373ffffffffffffffffffffffffffffffffffffffff160217905550600660008581526020019081526020016000206003018390806001815401808255809150506001900390600052602060002090602091828204019190069091909190916101000a81548160ff021916908360ff160217905550826007600086815260200190815260200160002060003373ffffffffffffffffffffffffffffffffffffffff1673ffffffffffffffffffffffffffffffffffffffff16815260200190815260200160002060000160016101000a81548160ff021916908360ff16021790555060016007600086815260200190815260200160002060003373ffffffffffffffffffffffffffffffffffffffff1673ffffffffffffffffffffffffffffffffffffffff16815260200190815260200160002060000160006101000a81548160ff021916908315150217905550600860003373ffffffffffffffffffffffffffffffffffffffff1673ffffffffffffffffffffffffffffffffffffffff16815260200190815260200160002060000184908060018154018082558091505060019003906000526020600020016000909190919091505550505050565b60608060606000600660008681526020019081526020016000206002018054905067ffffffffffffffff811115611e5057611e4f613d1b565b5b604051908082528060200260200182016040528015611e7e5781602001602082028036833780820191505090505b5090506000600660008781526020019081526020016000206002018054905067ffffffffffffffff811115611eb657611eb5613d1b565b5b604051908082528060200260200182016040528015611ee45781602001602082028036833780820191505090505b5090506000600660008881526020019081526020016000206002018054905067ffffffffffffffff811115611f1c57611f1b613d1b565b5b604051908082528060200260200182016040528015611f4a5781602001602082028036833780820191505090505b50905060005b60066000898152602001908152602001600020600201805490508110156121f257600660008981526020019081526020016000206003018181548110611f9957611f98613d4a565b5b90600052602060002090602091828204019190069054906101000a900460ff1660ff16848281518110611fcf57611fce613d4a565b5b60200260200101818152505060066000898152602001908152602001600020600201818154811061200357612002613d4a565b5b9060005260206000200160009054906101000a900473ffffffffffffffffffffffffffffffffffffffff1682828151811061204157612040613d4a565b5b602002602001019073ffffffffffffffffffffffffffffffffffffffff16908173ffffffffffffffffffffffffffffffffffffffff168152505060008060005b600660008c8152602001908152602001600020600a018054905081101561215d578484815181106120b5576120b4613d4a565b5b602002602001015173ffffffffffffffffffffffffffffffffffffffff16600660008d8152602001908152602001600020600a0182815481106120fb576120fa613d4a565b5b9060005260206000200160009054906101000a900473ffffffffffffffffffffffffffffffffffffffff1673ffffffffffffffffffffffffffffffffffffffff16141561214a57600192508091505b808061215590613c78565b915050612081565b5081156121bb57600660008b8152602001908152602001600020600901818154811061218c5761218b613d4a565b5b90600052602060002001548584815181106121aa576121a9613d4a565b5b6020026020010181815250506121dd565b60008584815181106121d0576121cf613d4a565b5b6020026020010181815250505b505080806121ea90613c78565b915050611f50565b508181849550955095505050509193909250565b600015156006600083815260200190815260200160002060000160149054906101000a900460ff16151514612270576040517f08c379a0000000000000000000000000000000000000000000000000000000008152600401612267906144ce565b60405180910390fd5b600460029054906101000a900461ffff1661ffff1660066000838152602001908152602001600020600501546122a69190613d79565b42116122e7576040517f08c379a00000000000000000000000000000000000000000000000000000000081526004016122de90614560565b60405180910390fd5b600115156007600083815260200190815260200160002060003373ffffffffffffffffffffffffffffffffffffffff1673ffffffffffffffffffffffffffffffffffffffff16815260200190815260200160002060000160009054906101000a900460ff1615151461238e576040517f08c379a0000000000000000000000000000000000000000000000000000000008152600401612385906145f2565b60405180910390fd5b600160066000838152602001908152602001600020600201805490501415612559576001600960003373ffffffffffffffffffffffffffffffffffffffff1673ffffffffffffffffffffffffffffffffffffffff168152602001908152602001600020600083815260200190815260200160002060000160006101000a81548160ff0219169083151502179055506006600082815260200190815260200160002060060154600960003373ffffffffffffffffffffffffffffffffffffffff1673ffffffffffffffffffffffffffffffffffffffff16815260200190815260200160002060008381526020019081526020016000206001018190555060066000828152602001908152602001600020600a01339080600181540180825580915050600190039060005260206000200160009091909190916101000a81548173ffffffffffffffffffffffffffffffffffffffff021916908373ffffffffffffffffffffffffffffffffffffffff160217905550600660008281526020019081526020016000206009016006600083815260200190815260200160002060060154908060018154018082558091505060019003906000526020600020016000909190919091505561317e565b6000612563610580565b9050806006600084815260200190815260200160002060080160006101000a81548160ff021916908360ff1602179055506000600660008481526020019081526020016000206002018054905067ffffffffffffffff8111156125c9576125c8613d1b565b5b6040519080825280602002602001820160405280156125f75781602001602082028036833780820191505090505b5090506000600660008581526020019081526020016000206003018054905067ffffffffffffffff81111561262f5761262e613d1b565b5b60405190808252806020026020018201604052801561265d5781602001602082028036833780820191505090505b509050600660008581526020019081526020016000206002018054806020026020016040519081016040528092919081815260200182805480156126f657602002820191906000526020600020905b8160009054906101000a900473ffffffffffffffffffffffffffffffffffffffff1673ffffffffffffffffffffffffffffffffffffffff16815260200190600101908083116126ac575b505050505091506006600085815260200190815260200160002060030180548060200260200160405190810160405280929190818152602001828054801561278357602002820191906000526020600020906000905b82829054906101000a900460ff1660ff168152602001906001019060208260000104928301926001038202915080841161274c5790505b505050505090506000815167ffffffffffffffff8111156127a7576127a6613d1b565b5b6040519080825280602002602001820160405280156127d55781602001602082028036833780820191505090505b50905060005b8351811015612916578460ff168382815181106127fb576127fa613d4a565b5b602002602001015160ff16111561285e57848382815181106128205761281f613d4a565b5b60200260200101516128329190614612565b82828151811061284557612844613d4a565b5b602002602001019060ff16908160ff1681525050612903565b8460ff1683828151811061287557612874613d4a565b5b602002602001015160ff1610156128d85782818151811061289957612898613d4a565b5b6020026020010151856128ac9190614612565b8282815181106128bf576128be613d4a565b5b602002602001019060ff16908160ff1681525050612902565b60008282815181106128ed576128ec613d4a565b5b602002602001019060ff16908160ff16815250505b5b808061290e90613c78565b9150506127db565b506000600382516129279190614013565b9050600081141561293757600190505b60008167ffffffffffffffff81111561295357612952613d1b565b5b6040519080825280602002602001820160405280156129815781602001602082028036833780820191505090505b50905060008267ffffffffffffffff8111156129a05761299f613d1b565b5b6040519080825280602002602001820160405280156129ce5781602001602082028036833780820191505090505b50905060005b83811015612b2d57600060649050600080600090505b88518160ff161015612a58578260ff16888260ff1681518110612a1057612a0f613d4a565b5b602002602001015160ff161015612a4557809150878160ff1681518110612a3a57612a39613d4a565b5b602002602001015192505b8080612a5090614646565b9150506129ea565b506064878260ff1681518110612a7157612a70613d4a565b5b602002602001019060ff16908160ff168152505080858481518110612a9957612a98613d4a565b5b602002602001019060ff16908160ff1681525050888160ff1681518110612ac357612ac2613d4a565b5b6020026020010151848481518110612ade57612add613d4a565b5b602002602001019073ffffffffffffffffffffffffffffffffffffffff16908173ffffffffffffffffffffffffffffffffffffffff168152505050508080612b2590613c78565b9150506129d4565b506001831115612f80576000600660008a81526020019081526020016000206006015490506000600390506000600290505b8351811015612b96576001600283612b779190614670565b612b8191906146ab565b91508080612b8e90613c78565b915050612b5f565b5060008160ff1683612ba89190614013565b9050600060018551612bba9190613f07565b90505b6000811115612dae578160096000878481518110612bde57612bdd613d4a565b5b602002602001015173ffffffffffffffffffffffffffffffffffffffff1673ffffffffffffffffffffffffffffffffffffffff16815260200190815260200160002060008e815260200190815260200160002060010181905550600160096000878481518110612c5157612c50613d4a565b5b602002602001015173ffffffffffffffffffffffffffffffffffffffff1673ffffffffffffffffffffffffffffffffffffffff16815260200190815260200160002060008e815260200190815260200160002060000160006101000a81548160ff021916908315150217905550600660008d8152602001908152602001600020600901829080600181540180825580915050600190039060005260206000200160009091909190915055600660008d8152602001908152602001600020600a01858281518110612d2457612d23613d4a565b5b60200260200101519080600181540180825580915050600190039060005260206000200160009091909190916101000a81548173ffffffffffffffffffffffffffffffffffffffff021916908373ffffffffffffffffffffffffffffffffffffffff160217905550600282612d999190613cc1565b91508080612da6906146e2565b915050612bbd565b50806009600086600081518110612dc857612dc7613d4a565b5b602002602001015173ffffffffffffffffffffffffffffffffffffffff1673ffffffffffffffffffffffffffffffffffffffff16815260200190815260200160002060008d81526020019081526020016000206001018190555060016009600086600081518110612e3c57612e3b613d4a565b5b602002602001015173ffffffffffffffffffffffffffffffffffffffff1673ffffffffffffffffffffffffffffffffffffffff16815260200190815260200160002060008d815260200190815260200160002060000160006101000a81548160ff021916908315150217905550600660008c8152602001908152602001600020600901819080600181540180825580915050600190039060005260206000200160009091909190915055600660008c8152602001908152602001600020600a0184600081518110612f1057612f0f613d4a565b5b60200260200101519080600181540180825580915050600190039060005260206000200160009091909190916101000a81548173ffffffffffffffffffffffffffffffffffffffff021916908373ffffffffffffffffffffffffffffffffffffffff160217905550505050613176565b60016009600083600081518110612f9a57612f99613d4a565b5b602002602001015173ffffffffffffffffffffffffffffffffffffffff1673ffffffffffffffffffffffffffffffffffffffff16815260200190815260200160002060008a815260200190815260200160002060000160006101000a81548160ff0219169083151502179055506006600089815260200190815260200160002060060154600960008360008151811061303657613035613d4a565b5b602002602001015173ffffffffffffffffffffffffffffffffffffffff1673ffffffffffffffffffffffffffffffffffffffff16815260200190815260200160002060008a81526020019081526020016000206001018190555060066000898152602001908152602001600020600901600660008a815260200190815260200160002060060154908060018154018082558091505060019003906000526020600020016000909190919091505560066000898152602001908152602001600020600a018160008151811061310d5761310c613d4a565b5b60200260200101519080600181540180825580915050600190039060005260206000200160009091909190916101000a81548173ffffffffffffffffffffffffffffffffffffffff021916908373ffffffffffffffffffffffffffffffffffffffff1602179055505b505050505050505b60016006600083815260200190815260200160002060000160146101000a81548160ff0219169083151502179055508060038190555050565b60006007600084815260200190815260200160002060008373ffffffffffffffffffffffffffffffffffffffff1673ffffffffffffffffffffffffffffffffffffffff16815260200190815260200160002060000160019054906101000a900460ff16905092915050565b61322a613316565b60008161ffff161415613272576040517f08c379a000000000000000000000000000000000000000000000000000000000815260040161326990614758565b60405180910390fd5b80600460026101000a81548161ffff021916908361ffff16021790555050565b61329a613316565b600073ffffffffffffffffffffffffffffffffffffffff168173ffffffffffffffffffffffffffffffffffffffff16141561330a576040517f08c379a0000000000000000000000000000000000000000000000000000000008152600401613301906147ea565b60405180910390fd5b61331381613394565b50565b61331e613458565b73ffffffffffffffffffffffffffffffffffffffff1661333c611756565b73ffffffffffffffffffffffffffffffffffffffff1614613392576040517f08c379a000000000000000000000000000000000000000000000000000000000815260040161338990614856565b60405180910390fd5b565b60008060009054906101000a900473ffffffffffffffffffffffffffffffffffffffff169050816000806101000a81548173ffffffffffffffffffffffffffffffffffffffff021916908373ffffffffffffffffffffffffffffffffffffffff1602179055508173ffffffffffffffffffffffffffffffffffffffff168173ffffffffffffffffffffffffffffffffffffffff167f8be0079c531659141344cd1fd0a4f28419497f9722a3daafe3b4186f6b6457e060405160405180910390a35050565b600033905090565b600060ff82169050919050565b61347681613460565b82525050565b6000602082019050613491600083018461346d565b92915050565b600080fd5b600073ffffffffffffffffffffffffffffffffffffffff82169050919050565b60006134c78261349c565b9050919050565b6134d7816134bc565b81146134e257600080fd5b50565b6000813590506134f4816134ce565b92915050565b6000602082840312156135105761350f613497565b5b600061351e848285016134e5565b91505092915050565b600081519050919050565b600082825260208201905092915050565b6000819050602082019050919050565b6000819050919050565b61356681613553565b82525050565b6000613578838361355d565b60208301905092915050565b6000602082019050919050565b600061359c82613527565b6135a68185613532565b93506135b183613543565b8060005b838110156135e25781516135c9888261356c565b97506135d483613584565b9250506001810190506135b5565b5085935050505092915050565b600060208201905081810360008301526136098184613591565b905092915050565b61361a81613460565b811461362557600080fd5b50565b60008135905061363781613611565b92915050565b6000806040838503121561365457613653613497565b5b600061366285828601613628565b925050602061367385828601613628565b9150509250929050565b600061ffff82169050919050565b6136948161367d565b82525050565b60006020820190506136af600083018461368b565b92915050565b6136be81613553565b81146136c957600080fd5b50565b6000813590506136db816136b5565b92915050565b600080604083850312156136f8576136f7613497565b5b6000613706858286016136cc565b9250506020613717858286016134e5565b9150509250929050565b60008115159050919050565b61373681613721565b82525050565b6000604082019050613751600083018561372d565b61375e602083018461346d565b9392505050565b60006020828403121561377b5761377a613497565b5b6000613789848285016136cc565b91505092915050565b61379b8161367d565b81146137a657600080fd5b50565b6000813590506137b881613792565b92915050565b6000602082840312156137d4576137d3613497565b5b60006137e2848285016137a9565b91505092915050565b600081519050919050565b600082825260208201905092915050565b6000819050602082019050919050565b61382081613460565b82525050565b60006138328383613817565b60208301905092915050565b6000602082019050919050565b6000613856826137eb565b61386081856137f6565b935061386b83613807565b8060005b8381101561389c5781516138838882613826565b975061388e8361383e565b92505060018101905061386f565b5085935050505092915050565b600060208201905081810360008301526138c3818461384b565b905092915050565b6138d4816134bc565b82525050565b6138e381613553565b82525050565b6000610100820190506138ff600083018b6138cb565b61390c602083018a61372d565b61391960408301896138da565b61392660608301886138da565b61393360808301876138da565b61394060a08301866138da565b61394d60c08301856138da565b61395a60e083018461346d565b9998505050505050505050565b600060208201905061397c60008301846138cb565b92915050565b6000806040838503121561399957613998613497565b5b60006139a7858286016134e5565b92505060206139b8858286016136cc565b9150509250929050565b60006060820190506139d7600083018661372d565b6139e4602083018561372d565b6139f160408301846138da565b949350505050565b60008060408385031215613a1057613a0f613497565b5b6000613a1e858286016136cc565b9250506020613a2f85828601613628565b9150509250929050565b600081519050919050565b600082825260208201905092915050565b6000819050602082019050919050565b613a6e816134bc565b82525050565b6000613a808383613a65565b60208301905092915050565b6000602082019050919050565b6000613aa482613a39565b613aae8185613a44565b9350613ab983613a55565b8060005b83811015613aea578151613ad18882613a74565b9750613adc83613a8c565b925050600181019050613abd565b5085935050505092915050565b60006060820190508181036000830152613b118186613591565b90508181036020830152613b258185613a99565b90508181036040830152613b398184613591565b9050949350505050565b6000819050919050565b613b5e613b5982613553565b613b43565b82525050565b60008160601b9050919050565b6000613b7c82613b64565b9050919050565b6000613b8e82613b71565b9050919050565b613ba6613ba1826134bc565b613b83565b82525050565b6000613bb88286613b4d565b602082019150613bc88285613b95565b601482019150613bd88284613b4d565b602082019150819050949350505050565b7f4e487b7100000000000000000000000000000000000000000000000000000000600052601260045260246000fd5b6000613c2382613553565b9150613c2e83613553565b925082613c3e57613c3d613be9565b5b828206905092915050565b7f4e487b7100000000000000000000000000000000000000000000000000000000600052601160045260246000fd5b6000613c8382613553565b91507fffffffffffffffffffffffffffffffffffffffffffffffffffffffffffffffff821415613cb657613cb5613c49565b5b600182019050919050565b6000613ccc82613553565b9150613cd783613553565b9250817fffffffffffffffffffffffffffffffffffffffffffffffffffffffffffffffff0483118215151615613d1057613d0f613c49565b5b828202905092915050565b7f4e487b7100000000000000000000000000000000000000000000000000000000600052604160045260246000fd5b7f4e487b7100000000000000000000000000000000000000000000000000000000600052603260045260246000fd5b6000613d8482613553565b9150613d8f83613553565b9250827fffffffffffffffffffffffffffffffffffffffffffffffffffffffffffffffff03821115613dc457613dc3613c49565b5b828201905092915050565b600082825260208201905092915050565b7f43686f6f7365206e756d626572206265747765656e203020616e642031303000600082015250565b6000613e16601f83613dcf565b9150613e2182613de0565b602082019050919050565b60006020820190508181036000830152613e4581613e09565b9050919050565b7f467265652067616d657320617265206e6f7420737570706f727465642068657260008201527f6521000000000000000000000000000000000000000000000000000000000000602082015250565b6000613ea8602283613dcf565b9150613eb382613e4c565b604082019050919050565b60006020820190508181036000830152613ed781613e9b565b9050919050565b6000604082019050613ef360008301856138da565b613f0060208301846138da565b9392505050565b6000613f1282613553565b9150613f1d83613553565b925082821015613f3057613f2f613c49565b5b828203905092915050565b7f596f7520617265206e6f7420612077696e6e6572206f66207468652067616d65600082015250565b6000613f71602083613dcf565b9150613f7c82613f3b565b602082019050919050565b60006020820190508181036000830152613fa081613f64565b9050919050565b7f5072697a6520697320636c61696d656420616c72656164790000000000000000600082015250565b6000613fdd601883613dcf565b9150613fe882613fa7565b602082019050919050565b6000602082019050818103600083015261400c81613fd0565b9050919050565b600061401e82613553565b915061402983613553565b92508261403957614038613be9565b5b828204905092915050565b600081905092915050565b50565b600061405f600083614044565b915061406a8261404f565b600082019050919050565b600061408082614052565b9150819050919050565b7f5472616e7366657273206e6f7420737563636573730000000000000000000000600082015250565b60006140c0601583613dcf565b91506140cb8261408a565b602082019050919050565b600060208201905081810360008301526140ef816140b3565b9050919050565b7f4e6577206665652070657263656e74206973206c657373207468616e2031303060008201527f3030000000000000000000000000000000000000000000000000000000000000602082015250565b6000614152602283613dcf565b915061415d826140f6565b604082019050919050565b6000602082019050818103600083015261418181614145565b9050919050565b7f4e65772057616c6c657420697320616464726573732830290000000000000000600082015250565b60006141be601883613dcf565b91506141c982614188565b602082019050919050565b600060208201905081810360008301526141ed816141b1565b9050919050565b7f5468652067616d652069732066696e6973686564000000000000000000000000600082015250565b600061422a601483613dcf565b9150614235826141f4565b602082019050919050565b600060208201905081810360008301526142598161421d565b9050919050565b7f56616c7565206f6620746865207472616e73616374696f6e2073686f756c642060008201527f626520657175616c20746f207468652067616d65000000000000000000000000602082015250565b60006142bc603483613dcf565b91506142c782614260565b604082019050919050565b600060208201905081810360008301526142eb816142af565b9050919050565b7f4f776e657220697320616c726561647920696e207061727469636970616e747360008201527f206c697374000000000000000000000000000000000000000000000000000000602082015250565b600061434e602583613dcf565b9150614359826142f2565b604082019050919050565b6000602082019050818103600083015261437d81614341565b9050919050565b7f596f752063616e206e6f74206a6f696e20747769636500000000000000000000600082015250565b60006143ba601683613dcf565b91506143c582614384565b602082019050919050565b600060208201905081810360008301526143e9816143ad565b9050919050565b7f5061727469636970616e7473206c696d697420686173206265656e207265616360008201527f6865640000000000000000000000000000000000000000000000000000000000602082015250565b600061444c602383613dcf565b9150614457826143f0565b604082019050919050565b6000602082019050818103600083015261447b8161443f565b9050919050565b7f5468652067616d652069732066696e697368656420616c726561647900000000600082015250565b60006144b8601c83613dcf565b91506144c382614482565b602082019050919050565b600060208201905081810360008301526144e7816144ab565b9050919050565b7f596f752063616e2066696e69736820612067616d65206f6e6c7920616674657260008201527f20657861637420706572696f6400000000000000000000000000000000000000602082015250565b600061454a602d83613dcf565b9150614555826144ee565b604082019050919050565b600060208201905081810360008301526145798161453d565b9050919050565b7f4f6e6c79207061727469636970616e74732063616e2066696e6973682061206760008201527f616d650000000000000000000000000000000000000000000000000000000000602082015250565b60006145dc602383613dcf565b91506145e782614580565b604082019050919050565b6000602082019050818103600083015261460b816145cf565b9050919050565b600061461d82613460565b915061462883613460565b92508282101561463b5761463a613c49565b5b828203905092915050565b600061465182613460565b915060ff82141561466557614664613c49565b5b600182019050919050565b600061467b82613460565b915061468683613460565b92508160ff04831182151516156146a05761469f613c49565b5b828202905092915050565b60006146b682613460565b91506146c183613460565b92508260ff038211156146d7576146d6613c49565b5b828201905092915050565b60006146ed82613553565b9150600082141561470157614700613c49565b5b600182039050919050565b7f54696d6520746f2066696e69736820697320657175616c20746f203000000000600082015250565b6000614742601c83613dcf565b915061474d8261470c565b602082019050919050565b6000602082019050818103600083015261477181614735565b9050919050565b7f4f776e61626c653a206e6577206f776e657220697320746865207a65726f206160008201527f6464726573730000000000000000000000000000000000000000000000000000602082015250565b60006147d4602683613dcf565b91506147df82614778565b604082019050919050565b60006020820190508181036000830152614803816147c7565b9050919050565b7f4f776e61626c653a2063616c6c6572206973206e6f7420746865206f776e6572600082015250565b6000614840602083613dcf565b915061484b8261480a565b602082019050919050565b6000602082019050818103600083015261486f81614833565b905091905056fea2646970667358221220a355f4de5fceb08409faefce383d12e729045be11c3d969dc171f6427d05efcd64736f6c634300080b0033",
  "linkReferences": {},
  "deployedLinkReferences": {}
}