{
  "_format": "hh-sol-artifact-1",
  "contractName": "Fair",
  "sourceName": "contracts/Fair.sol",
  "abi": [
    {
      "inputs": [
        {
          "internalType": "address",
          "name": "_wallet",
          "type": "address"
        },
        {
          "internalType": "uint16",
          "name": "_feePercent",
          "type": "uint16"
        },
        {
          "internalType": "uint16",
          "name": "_timeToFinish",
          "type": "uint16"
        },
        {
          "internalType": "uint16",
          "name": "_userGamesToReturnNumber",
          "type": "uint16"
        }
      ],
      "stateMutability": "nonpayable",
      "type": "constructor"
    },
    {
      "anonymous": false,
      "inputs": [
        {
          "indexed": false,
          "internalType": "uint256",
          "name": "gameId",
          "type": "uint256"
        },
        {
          "indexed": false,
          "internalType": "uint256",
          "name": "bid",
          "type": "uint256"
        }
      ],
      "name": "CreateGame",
      "type": "event"
    },
    {
      "anonymous": false,
      "inputs": [
        {
          "indexed": true,
          "internalType": "address",
          "name": "previousOwner",
          "type": "address"
        },
        {
          "indexed": true,
          "internalType": "address",
          "name": "newOwner",
          "type": "address"
        }
      ],
      "name": "OwnershipTransferred",
      "type": "event"
    },
    {
      "inputs": [
        {
          "internalType": "uint256",
          "name": "",
          "type": "uint256"
        },
        {
          "internalType": "address",
          "name": "",
          "type": "address"
        }
      ],
      "name": "biddersList",
      "outputs": [
        {
          "internalType": "bool",
          "name": "participatedFlag",
          "type": "bool"
        },
        {
          "internalType": "uint8",
          "name": "number",
          "type": "uint8"
        }
      ],
      "stateMutability": "view",
      "type": "function"
    },
    {
      "inputs": [
        {
          "internalType": "uint256",
          "name": "_gameId",
          "type": "uint256"
        }
      ],
      "name": "claim",
      "outputs": [],
      "stateMutability": "nonpayable",
      "type": "function"
    },
    {
      "inputs": [
        {
          "internalType": "uint8",
          "name": "_number",
          "type": "uint8"
        },
        {
          "internalType": "uint8",
          "name": "_limit",
          "type": "uint8"
        }
      ],
      "name": "createGame",
      "outputs": [],
      "stateMutability": "payable",
      "type": "function"
    },
    {
      "inputs": [],
      "name": "feePercent",
      "outputs": [
        {
          "internalType": "uint16",
          "name": "",
          "type": "uint16"
        }
      ],
      "stateMutability": "view",
      "type": "function"
    },
    {
      "inputs": [
        {
          "internalType": "uint256",
          "name": "_gameId",
          "type": "uint256"
        }
      ],
      "name": "finishGame",
      "outputs": [],
      "stateMutability": "nonpayable",
      "type": "function"
    },
    {
      "inputs": [
        {
          "internalType": "uint256",
          "name": "",
          "type": "uint256"
        }
      ],
      "name": "gamesList",
      "outputs": [
        {
          "internalType": "address",
          "name": "owner",
          "type": "address"
        },
        {
          "internalType": "bool",
          "name": "isFinished",
          "type": "bool"
        },
        {
          "internalType": "uint256",
          "name": "bid",
          "type": "uint256"
        },
        {
          "internalType": "uint256",
          "name": "participantsLimit",
          "type": "uint256"
        },
        {
          "internalType": "uint256",
          "name": "createdTimestamp",
          "type": "uint256"
        },
        {
          "internalType": "uint256",
          "name": "pool",
          "type": "uint256"
        },
        {
          "internalType": "uint256",
          "name": "individualPrize",
          "type": "uint256"
        },
        {
          "internalType": "uint8",
          "name": "luckyNumber",
          "type": "uint8"
        }
      ],
      "stateMutability": "view",
      "type": "function"
    },
    {
      "inputs": [],
      "name": "generateRandom",
      "outputs": [
        {
          "internalType": "uint8",
          "name": "",
          "type": "uint8"
        }
      ],
      "stateMutability": "nonpayable",
      "type": "function"
    },
    {
      "inputs": [],
      "name": "getActualGames",
      "outputs": [
        {
          "internalType": "uint256[]",
          "name": "",
          "type": "uint256[]"
        }
      ],
      "stateMutability": "view",
      "type": "function"
    },
    {
      "inputs": [
        {
          "internalType": "uint256",
          "name": "_gameId",
          "type": "uint256"
        },
        {
          "internalType": "address",
          "name": "adr",
          "type": "address"
        }
      ],
      "name": "getBet",
      "outputs": [
        {
          "internalType": "uint8",
          "name": "",
          "type": "uint8"
        }
      ],
      "stateMutability": "view",
      "type": "function"
    },
    {
      "inputs": [
        {
          "internalType": "uint256",
          "name": "_gameId",
          "type": "uint256"
        }
      ],
      "name": "getNumbers",
      "outputs": [
        {
          "internalType": "uint8[]",
          "name": "",
          "type": "uint8[]"
        }
      ],
      "stateMutability": "view",
      "type": "function"
    },
    {
      "inputs": [
        {
          "internalType": "uint256",
          "name": "_gameId",
          "type": "uint256"
        }
      ],
      "name": "getOwner",
      "outputs": [
        {
          "internalType": "address",
          "name": "",
          "type": "address"
        }
      ],
      "stateMutability": "view",
      "type": "function"
    },
    {
      "inputs": [
        {
          "internalType": "uint256",
          "name": "_gameId",
          "type": "uint256"
        }
      ],
      "name": "getPrizes",
      "outputs": [
        {
          "internalType": "uint256[]",
          "name": "",
          "type": "uint256[]"
        },
        {
          "internalType": "address[]",
          "name": "",
          "type": "address[]"
        },
        {
          "internalType": "uint256[]",
          "name": "",
          "type": "uint256[]"
        }
      ],
      "stateMutability": "view",
      "type": "function"
    },
    {
      "inputs": [
        {
          "internalType": "address",
          "name": "_user",
          "type": "address"
        }
      ],
      "name": "getUserGames",
      "outputs": [
        {
          "internalType": "uint256[]",
          "name": "",
          "type": "uint256[]"
        }
      ],
      "stateMutability": "view",
      "type": "function"
    },
    {
      "inputs": [
        {
          "internalType": "uint256",
          "name": "_gameId",
          "type": "uint256"
        },
        {
          "internalType": "uint8",
          "name": "_number",
          "type": "uint8"
        }
      ],
      "name": "joinGame",
      "outputs": [],
      "stateMutability": "payable",
      "type": "function"
    },
    {
      "inputs": [
        {
          "internalType": "uint16",
          "name": "_feePercent",
          "type": "uint16"
        }
      ],
      "name": "newFeePercent",
      "outputs": [],
      "stateMutability": "nonpayable",
      "type": "function"
    },
    {
      "inputs": [
        {
          "internalType": "uint16",
          "name": "_timeToFinish",
          "type": "uint16"
        }
      ],
      "name": "newTimeToFinish",
      "outputs": [],
      "stateMutability": "nonpayable",
      "type": "function"
    },
    {
      "inputs": [
        {
          "internalType": "uint16",
          "name": "_userGamesToReturnNumber",
          "type": "uint16"
        }
      ],
      "name": "newUserGamesToReturnNumber",
      "outputs": [],
      "stateMutability": "nonpayable",
      "type": "function"
    },
    {
      "inputs": [
        {
          "internalType": "address",
          "name": "_wallet",
          "type": "address"
        }
      ],
      "name": "newWallet",
      "outputs": [],
      "stateMutability": "nonpayable",
      "type": "function"
    },
    {
      "inputs": [],
      "name": "owner",
      "outputs": [
        {
          "internalType": "address",
          "name": "",
          "type": "address"
        }
      ],
      "stateMutability": "view",
      "type": "function"
    },
    {
      "inputs": [
        {
          "internalType": "address",
          "name": "",
          "type": "address"
        },
        {
          "internalType": "uint256",
          "name": "",
          "type": "uint256"
        }
      ],
      "name": "prizeList",
      "outputs": [
        {
          "internalType": "bool",
          "name": "isWinner",
          "type": "bool"
        },
        {
          "internalType": "bool",
          "name": "isClaimed",
          "type": "bool"
        },
        {
          "internalType": "uint256",
          "name": "prize",
          "type": "uint256"
        }
      ],
      "stateMutability": "view",
      "type": "function"
    },
    {
      "inputs": [],
      "name": "renounceOwnership",
      "outputs": [],
      "stateMutability": "nonpayable",
      "type": "function"
    },
    {
      "inputs": [],
      "name": "timeToFinish",
      "outputs": [
        {
          "internalType": "uint16",
          "name": "",
          "type": "uint16"
        }
      ],
      "stateMutability": "view",
      "type": "function"
    },
    {
      "inputs": [
        {
          "internalType": "address",
          "name": "newOwner",
          "type": "address"
        }
      ],
      "name": "transferOwnership",
      "outputs": [],
      "stateMutability": "nonpayable",
      "type": "function"
    },
    {
      "inputs": [],
      "name": "userGamesToReturnNumber",
      "outputs": [
        {
          "internalType": "uint16",
          "name": "",
          "type": "uint16"
        }
      ],
      "stateMutability": "view",
      "type": "function"
    },
    {
      "inputs": [],
      "name": "wallet",
      "outputs": [
        {
          "internalType": "address",
          "name": "",
          "type": "address"
        }
      ],
      "stateMutability": "view",
      "type": "function"
    }
  ],
  "bytecode": "0x60806040523480156200001157600080fd5b5060405162005214380380620052148339818101604052810190620000379190620003d2565b620000576200004b6200025d60201b60201c565b6200026560201b60201c565b600073ffffffffffffffffffffffffffffffffffffffff168473ffffffffffffffffffffffffffffffffffffffff161415620000ca576040517f08c379a0000000000000000000000000000000000000000000000000000000008152600401620000c190620004a5565b60405180910390fd5b60008361ffff16118015620000e457506127108361ffff16105b62000126576040517f08c379a00000000000000000000000000000000000000000000000000000000081526004016200011d906200053d565b60405180910390fd5b60008261ffff16141562000171576040517f08c379a00000000000000000000000000000000000000000000000000000000081526004016200016890620005af565b60405180910390fd5b601e8161ffff161015620001bc576040517f08c379a0000000000000000000000000000000000000000000000000000000008152600401620001b39062000647565b60405180910390fd5b83600460066101000a81548173ffffffffffffffffffffffffffffffffffffffff021916908373ffffffffffffffffffffffffffffffffffffffff16021790555082600460006101000a81548161ffff021916908361ffff16021790555081600460026101000a81548161ffff021916908361ffff160217905550806004806101000a81548161ffff021916908361ffff1602179055505050505062000669565b600033905090565b60008060009054906101000a900473ffffffffffffffffffffffffffffffffffffffff169050816000806101000a81548173ffffffffffffffffffffffffffffffffffffffff021916908373ffffffffffffffffffffffffffffffffffffffff1602179055508173ffffffffffffffffffffffffffffffffffffffff168173ffffffffffffffffffffffffffffffffffffffff167f8be0079c531659141344cd1fd0a4f28419497f9722a3daafe3b4186f6b6457e060405160405180910390a35050565b600080fd5b600073ffffffffffffffffffffffffffffffffffffffff82169050919050565b60006200035b826200032e565b9050919050565b6200036d816200034e565b81146200037957600080fd5b50565b6000815190506200038d8162000362565b92915050565b600061ffff82169050919050565b620003ac8162000393565b8114620003b857600080fd5b50565b600081519050620003cc81620003a1565b92915050565b60008060008060808587031215620003ef57620003ee62000329565b5b6000620003ff878288016200037c565b94505060206200041287828801620003bb565b93505060406200042587828801620003bb565b92505060606200043887828801620003bb565b91505092959194509250565b600082825260208201905092915050565b7f57616c6c65742069732061646472657373283029000000000000000000000000600082015250565b60006200048d60148362000444565b91506200049a8262000455565b602082019050919050565b60006020820190508181036000830152620004c0816200047e565b9050919050565b7f4665652070657263656e74206973206c657373207468616e2030206f72206d6f60008201527f7265207468616e20313030303000000000000000000000000000000000000000602082015250565b600062000525602d8362000444565b91506200053282620004c7565b604082019050919050565b60006020820190508181036000830152620005588162000516565b9050919050565b7f54696d6520746f2066696e69736820697320657175616c20746f203000000000600082015250565b600062000597601c8362000444565b9150620005a4826200055f565b602082019050919050565b60006020820190508181036000830152620005ca8162000588565b9050919050565b7f5573657247616d6573546f52657475726e4e756d626572206861766520746f2060008201527f6265206d6f7265207468616e2033300000000000000000000000000000000000602082015250565b60006200062f602f8362000444565b91506200063c82620005d1565b604082019050919050565b60006020820190508181036000830152620006628162000620565b9050919050565b614b9b80620006796000396000f3fe6080604052600436106101665760003560e01c8063631b02bd116100d1578063c41a360a1161008a578063cfe186b211610064578063cfe186b214610542578063e0950ddf1461056b578063e8d95ad3146105a8578063f2fde38b146105d157610166565b8063c41a360a146104aa578063ca6649c5146104e7578063cc3077951461050357610166565b8063631b02bd146103aa578063715018a6146103d55780637fd6f15c146103ec5780638da5cb5b146104175780639ff0f4a914610442578063bda6688f1461048157610166565b8063379607f511610123578063379607f514610283578063493ab058146102ac5780634a7b26ae146102d55780634bb0826f146103125780635054c0a31461033b578063521eb2731461037f57610166565b806302e4af011461016b578063120aace6146101965780631346a76d146101d357806313bf83c5146101ef57806316466fe61461021a578063208970d514610245575b600080fd5b34801561017757600080fd5b506101806105fa565b60405161018d919061369d565b60405180910390f35b3480156101a257600080fd5b506101bd60048036038101906101b8919061371b565b61065a565b6040516101ca9190613810565b60405180910390f35b6101ed60048036038101906101e8919061385e565b610cf5565b005b3480156101fb57600080fd5b50610204611115565b60405161021191906138bb565b60405180910390f35b34801561022657600080fd5b5061022f611129565b60405161023c9190613810565b60405180910390f35b34801561025157600080fd5b5061026c60048036038101906102679190613902565b61132d565b60405161027a92919061395d565b60405180910390f35b34801561028f57600080fd5b506102aa60048036038101906102a59190613986565b611378565b005b3480156102b857600080fd5b506102d360048036038101906102ce91906139df565b611721565b005b3480156102e157600080fd5b506102fc60048036038101906102f79190613986565b611791565b6040516103099190613aca565b60405180910390f35b34801561031e57600080fd5b50610339600480360381019061033491906139df565b611825565b005b34801561034757600080fd5b50610362600480360381019061035d9190613986565b611894565b604051610376989796959493929190613b0a565b60405180910390f35b34801561038b57600080fd5b50610394611916565b6040516103a19190613b88565b60405180910390f35b3480156103b657600080fd5b506103bf61193c565b6040516103cc91906138bb565b60405180910390f35b3480156103e157600080fd5b506103ea61194e565b005b3480156103f857600080fd5b50610401611962565b60405161040e91906138bb565b60405180910390f35b34801561042357600080fd5b5061042c611976565b6040516104399190613b88565b60405180910390f35b34801561044e57600080fd5b5061046960048036038101906104649190613ba3565b61199f565b60405161047893929190613be3565b60405180910390f35b34801561048d57600080fd5b506104a860048036038101906104a3919061371b565b6119f0565b005b3480156104b657600080fd5b506104d160048036038101906104cc9190613986565b611aac565b6040516104de9190613b88565b60405180910390f35b61050160048036038101906104fc9190613c1a565b611aec565b005b34801561050f57600080fd5b5061052a60048036038101906105259190613986565b612037565b60405161053993929190613d18565b60405180910390f35b34801561054e57600080fd5b5061056960048036038101906105649190613986565b612427565b005b34801561057757600080fd5b50610592600480360381019061058d9190613902565b6133d8565b60405161059f919061369d565b60405180910390f35b3480156105b457600080fd5b506105cf60048036038101906105ca91906139df565b613443565b005b3480156105dd57600080fd5b506105f860048036038101906105f3919061371b565b6134b3565b005b6000806065423360025460405160200161061693929190613dcd565b6040516020818303038152906040528051906020012060001c6106399190613e39565b90506002600081548092919061064e90613e99565b91905055508091505090565b60606000806000601e600860008773ffffffffffffffffffffffffffffffffffffffff1673ffffffffffffffffffffffffffffffffffffffff168152602001908152602001600020600001805490501061077d5760048054906101000a900461ffff1661ffff16600860008773ffffffffffffffffffffffffffffffffffffffff1673ffffffffffffffffffffffffffffffffffffffff168152602001908152602001600020600001805490506107119190613ee2565b600860048054906101000a900461ffff1661072c9190613f16565b61ffff1667ffffffffffffffff81111561074957610748613f52565b5b6040519080825280602002602001820160405280156107775781602001602082028036833780820191505090505b50610819565b600060088060008873ffffffffffffffffffffffffffffffffffffffff1673ffffffffffffffffffffffffffffffffffffffff168152602001908152602001600020600001805490506107d09190613f81565b67ffffffffffffffff8111156107e9576107e8613f52565b5b6040519080825280602002602001820160405280156108175781602001602082028036833780820191505090505b505b915091505b600860008673ffffffffffffffffffffffffffffffffffffffff1673ffffffffffffffffffffffffffffffffffffffff16815260200190815260200160002060000180549050821015610cea576000600860008773ffffffffffffffffffffffffffffffffffffffff1673ffffffffffffffffffffffffffffffffffffffff16815260200190815260200160002060000183815481106108c1576108c0613fdb565b5b9060005260206000200154905060066000828152602001908152602001600020600101548285815181106108f8576108f7613fdb565b5b602002602001018181525050600660008281526020019081526020016000206005015482600186610929919061400a565b8151811061093a57610939613fdb565b5b60200260200101818152505060066000828152602001908152602001600020600201805490508260028661096e919061400a565b8151811061097f5761097e613fdb565b5b602002602001018181525050808260048661099a919061400a565b815181106109ab576109aa613fdb565b5b6020026020010181815250506006600082815260200190815260200160002060060154826005866109dc919061400a565b815181106109ed576109ec613fdb565b5b6020026020010181815250506006600082815260200190815260200160002060080160009054906101000a900460ff1660ff1682600686610a2e919061400a565b81518110610a3f57610a3e613fdb565b5b602002602001018181525050600960008773ffffffffffffffffffffffffffffffffffffffff1673ffffffffffffffffffffffffffffffffffffffff16815260200190815260200160002060008281526020019081526020016000206001015482600786610aad919061400a565b81518110610abe57610abd613fdb565b5b602002602001018181525050600960008773ffffffffffffffffffffffffffffffffffffffff1673ffffffffffffffffffffffffffffffffffffffff168152602001908152602001600020600082815260200190815260200160002060000160019054906101000a900460ff1615610b6257600082600386610b40919061400a565b81518110610b5157610b50613fdb565b5b602002602001018181525050610cc7565b600960008773ffffffffffffffffffffffffffffffffffffffff1673ffffffffffffffffffffffffffffffffffffffff168152602001908152602001600020600082815260200190815260200160002060000160009054906101000a900460ff1615610bfa57600182600386610bd8919061400a565b81518110610be957610be8613fdb565b5b602002602001018181525050610cc6565b6006600082815260200190815260200160002060000160149054906101000a900460ff16158015610c605750600460029054906101000a900461ffff1661ffff166006600083815260200190815260200160002060050154610c5c919061400a565b4210155b15610c9757600282600386610c75919061400a565b81518110610c8657610c85613fdb565b5b602002602001018181525050610cc5565b600382600386610ca7919061400a565b81518110610cb857610cb7613fdb565b5b6020026020010181815250505b5b5b600884610cd4919061400a565b9350508180610ce290613e99565b92505061081e565b809350505050919050565b8160008160ff1610158015610d0e575060648160ff1611155b610d4d576040517f08c379a0000000000000000000000000000000000000000000000000000000008152600401610d44906140bd565b60405180910390fd5b60003411610d90576040517f08c379a0000000000000000000000000000000000000000000000000000000008152600401610d879061414f565b60405180910390fd5b3360066000600154815260200190815260200160002060000160006101000a81548173ffffffffffffffffffffffffffffffffffffffff021916908373ffffffffffffffffffffffffffffffffffffffff160217905550346006600060015481526020019081526020016000206006016000828254610e0f919061400a565b925050819055503460066000600154815260200190815260200160002060010181905550600660006001548152602001908152602001600020600201339080600181540180825580915050600190039060005260206000200160009091909190916101000a81548173ffffffffffffffffffffffffffffffffffffffff021916908373ffffffffffffffffffffffffffffffffffffffff1602179055508160ff16600660006001548152602001908152602001600020600401819055506006600060015481526020019081526020016000206003018390806001815401808255809150506001900390600052602060002090602091828204019190069091909190916101000a81548160ff021916908360ff1602179055504260066000600154815260200190815260200160002060050181905550600060066000600154815260200190815260200160002060080160006101000a81548160ff021916908360ff1602179055508260076000600154815260200190815260200160002060003373ffffffffffffffffffffffffffffffffffffffff1673ffffffffffffffffffffffffffffffffffffffff16815260200190815260200160002060000160016101000a81548160ff021916908360ff160217905550600160076000600154815260200190815260200160002060003373ffffffffffffffffffffffffffffffffffffffff1673ffffffffffffffffffffffffffffffffffffffff16815260200190815260200160002060000160006101000a81548160ff021916908315150217905550600860003373ffffffffffffffffffffffffffffffffffffffff1673ffffffffffffffffffffffffffffffffffffffff16815260200190815260200160002060000160015490806001815401808255809150506001900390600052602060002001600090919091909150557fefdb129ed8c918ef2a35b5212fc80a125215c26d64b3164c17218f7b0c1e1f4a600154346040516110f092919061416f565b60405180910390a16001600081548092919061110b90613e99565b9190505550505050565b600460029054906101000a900461ffff1681565b60606000600560035460015461113f9190613ee2565b6111499190613f81565b67ffffffffffffffff81111561116257611161613f52565b5b6040519080825280602002602001820160405280156111905781602001602082028036833780820191505090505b50905060008060035490505b60015481101561132457600015156006600083815260200190815260200160002060000160149054906101000a900460ff1615151415611311576006600082815260200190815260200160002060010154838381518110611200576111ff613fdb565b5b602002602001018181525050600660008281526020019081526020016000206005015483600184611231919061400a565b8151811061124257611241613fdb565b5b602002602001018181525050600660008281526020019081526020016000206002018054905083600284611276919061400a565b8151811061128757611286613fdb565b5b60200260200101818152505080836003846112a2919061400a565b815181106112b3576112b2613fdb565b5b6020026020010181815250506006600082815260200190815260200160002060040154836004846112e4919061400a565b815181106112f5576112f4613fdb565b5b60200260200101818152505060058261130e919061400a565b91505b808061131c90613e99565b91505061119c565b50819250505090565b6007602052816000526040600020602052806000526040600020600091509150508060000160009054906101000a900460ff16908060000160019054906101000a900460ff16905082565b60011515600960003373ffffffffffffffffffffffffffffffffffffffff1673ffffffffffffffffffffffffffffffffffffffff168152602001908152602001600020600083815260200190815260200160002060000160009054906101000a900460ff1615151461141f576040517f08c379a0000000000000000000000000000000000000000000000000000000008152600401611416906141e4565b60405180910390fd5b60001515600960003373ffffffffffffffffffffffffffffffffffffffff1673ffffffffffffffffffffffffffffffffffffffff168152602001908152602001600020600083815260200190815260200160002060000160019054906101000a900460ff161515146114c6576040517f08c379a00000000000000000000000000000000000000000000000000000000081526004016114bd90614250565b60405180910390fd5b6001600960003373ffffffffffffffffffffffffffffffffffffffff1673ffffffffffffffffffffffffffffffffffffffff168152602001908152602001600020600083815260200190815260200160002060000160016101000a81548160ff0219169083151502179055506000600960003373ffffffffffffffffffffffffffffffffffffffff1673ffffffffffffffffffffffffffffffffffffffff16815260200190815260200160002060008381526020019081526020016000206001015490506000612710600460009054906101000a900461ffff1661ffff16836115af9190613f81565b6115b99190614270565b826115c49190613ee2565b9050600081836115d49190613ee2565b905060003373ffffffffffffffffffffffffffffffffffffffff16836040516115fc906142d2565b60006040518083038185875af1925050503d8060008114611639576040519150601f19603f3d011682016040523d82523d6000602084013e61163e565b606091505b505090506000600460069054906101000a900473ffffffffffffffffffffffffffffffffffffffff1673ffffffffffffffffffffffffffffffffffffffff168360405161168a906142d2565b60006040518083038185875af1925050503d80600081146116c7576040519150601f19603f3d011682016040523d82523d6000602084013e6116cc565b606091505b505090508180156116da5750805b611719576040517f08c379a000000000000000000000000000000000000000000000000000000000815260040161171090614333565b60405180910390fd5b505050505050565b611729613537565b6127108161ffff1610611771576040517f08c379a0000000000000000000000000000000000000000000000000000000008152600401611768906143c5565b60405180910390fd5b80600460006101000a81548161ffff021916908361ffff16021790555050565b60606006600083815260200190815260200160002060030180548060200260200160405190810160405280929190818152602001828054801561181957602002820191906000526020600020906000905b82829054906101000a900460ff1660ff16815260200190600101906020826000010492830192600103820291508084116117e25790505b50505050509050919050565b61182d613537565b601e8161ffff161015611875576040517f08c379a000000000000000000000000000000000000000000000000000000000815260040161186c90614457565b60405180910390fd5b806004806101000a81548161ffff021916908361ffff16021790555050565b60066020528060005260406000206000915090508060000160009054906101000a900473ffffffffffffffffffffffffffffffffffffffff16908060000160149054906101000a900460ff16908060010154908060040154908060050154908060060154908060070154908060080160009054906101000a900460ff16905088565b600460069054906101000a900473ffffffffffffffffffffffffffffffffffffffff1681565b60048054906101000a900461ffff1681565b611956613537565b61196060006135b5565b565b600460009054906101000a900461ffff1681565b60008060009054906101000a900473ffffffffffffffffffffffffffffffffffffffff16905090565b6009602052816000526040600020602052806000526040600020600091509150508060000160009054906101000a900460ff16908060000160019054906101000a900460ff16908060010154905083565b6119f8613537565b600073ffffffffffffffffffffffffffffffffffffffff168173ffffffffffffffffffffffffffffffffffffffff161415611a68576040517f08c379a0000000000000000000000000000000000000000000000000000000008152600401611a5f906144c3565b60405180910390fd5b80600460066101000a81548173ffffffffffffffffffffffffffffffffffffffff021916908373ffffffffffffffffffffffffffffffffffffffff16021790555050565b60006006600083815260200190815260200160002060000160009054906101000a900473ffffffffffffffffffffffffffffffffffffffff169050919050565b8060008160ff1610158015611b05575060648160ff1611155b611b44576040517f08c379a0000000000000000000000000000000000000000000000000000000008152600401611b3b906140bd565b60405180910390fd5b82600460029054906101000a900461ffff1661ffff166006600083815260200190815260200160002060050154611b7b919061400a565b421115611bbd576040517f08c379a0000000000000000000000000000000000000000000000000000000008152600401611bb49061452f565b60405180910390fd5b60066000858152602001908152602001600020600101543414611c15576040517f08c379a0000000000000000000000000000000000000000000000000000000008152600401611c0c906145c1565b60405180910390fd5b6006600085815260200190815260200160002060000160009054906101000a900473ffffffffffffffffffffffffffffffffffffffff1673ffffffffffffffffffffffffffffffffffffffff163373ffffffffffffffffffffffffffffffffffffffff161415611cba576040517f08c379a0000000000000000000000000000000000000000000000000000000008152600401611cb190614653565b60405180910390fd5b600015156007600086815260200190815260200160002060003373ffffffffffffffffffffffffffffffffffffffff1673ffffffffffffffffffffffffffffffffffffffff16815260200190815260200160002060000160009054906101000a900460ff16151514611d61576040517f08c379a0000000000000000000000000000000000000000000000000000000008152600401611d58906146bf565b60405180910390fd5b600060066000868152602001908152602001600020600401541480611db4575060066000858152602001908152602001600020600401546006600086815260200190815260200160002060020180549050105b611df3576040517f08c379a0000000000000000000000000000000000000000000000000000000008152600401611dea90614751565b60405180910390fd5b34600660008681526020019081526020016000206006016000828254611e19919061400a565b9250508190555060066000858152602001908152602001600020600201339080600181540180825580915050600190039060005260206000200160009091909190916101000a81548173ffffffffffffffffffffffffffffffffffffffff021916908373ffffffffffffffffffffffffffffffffffffffff160217905550600660008581526020019081526020016000206003018390806001815401808255809150506001900390600052602060002090602091828204019190069091909190916101000a81548160ff021916908360ff160217905550826007600086815260200190815260200160002060003373ffffffffffffffffffffffffffffffffffffffff1673ffffffffffffffffffffffffffffffffffffffff16815260200190815260200160002060000160016101000a81548160ff021916908360ff16021790555060016007600086815260200190815260200160002060003373ffffffffffffffffffffffffffffffffffffffff1673ffffffffffffffffffffffffffffffffffffffff16815260200190815260200160002060000160006101000a81548160ff021916908315150217905550600860003373ffffffffffffffffffffffffffffffffffffffff1673ffffffffffffffffffffffffffffffffffffffff16815260200190815260200160002060000184908060018154018082558091505060019003906000526020600020016000909190919091505550505050565b60608060606000600660008681526020019081526020016000206002018054905067ffffffffffffffff81111561207157612070613f52565b5b60405190808252806020026020018201604052801561209f5781602001602082028036833780820191505090505b5090506000600660008781526020019081526020016000206002018054905067ffffffffffffffff8111156120d7576120d6613f52565b5b6040519080825280602002602001820160405280156121055781602001602082028036833780820191505090505b5090506000600660008881526020019081526020016000206002018054905067ffffffffffffffff81111561213d5761213c613f52565b5b60405190808252806020026020018201604052801561216b5781602001602082028036833780820191505090505b50905060005b6006600089815260200190815260200160002060020180549050811015612413576006600089815260200190815260200160002060030181815481106121ba576121b9613fdb565b5b90600052602060002090602091828204019190069054906101000a900460ff1660ff168482815181106121f0576121ef613fdb565b5b60200260200101818152505060066000898152602001908152602001600020600201818154811061222457612223613fdb565b5b9060005260206000200160009054906101000a900473ffffffffffffffffffffffffffffffffffffffff1682828151811061226257612261613fdb565b5b602002602001019073ffffffffffffffffffffffffffffffffffffffff16908173ffffffffffffffffffffffffffffffffffffffff168152505060008060005b600660008c8152602001908152602001600020600a018054905081101561237e578484815181106122d6576122d5613fdb565b5b602002602001015173ffffffffffffffffffffffffffffffffffffffff16600660008d8152602001908152602001600020600a01828154811061231c5761231b613fdb565b5b9060005260206000200160009054906101000a900473ffffffffffffffffffffffffffffffffffffffff1673ffffffffffffffffffffffffffffffffffffffff16141561236b57600192508091505b808061237690613e99565b9150506122a2565b5081156123dc57600660008b815260200190815260200160002060090181815481106123ad576123ac613fdb565b5b90600052602060002001548584815181106123cb576123ca613fdb565b5b6020026020010181815250506123fe565b60008584815181106123f1576123f0613fdb565b5b6020026020010181815250505b5050808061240b90613e99565b915050612171565b508181849550955095505050509193909250565b600015156006600083815260200190815260200160002060000160149054906101000a900460ff16151514612491576040517f08c379a0000000000000000000000000000000000000000000000000000000008152600401612488906147bd565b60405180910390fd5b600460029054906101000a900461ffff1661ffff1660066000838152602001908152602001600020600501546124c7919061400a565b4211612508576040517f08c379a00000000000000000000000000000000000000000000000000000000081526004016124ff9061484f565b60405180910390fd5b600115156007600083815260200190815260200160002060003373ffffffffffffffffffffffffffffffffffffffff1673ffffffffffffffffffffffffffffffffffffffff16815260200190815260200160002060000160009054906101000a900460ff161515146125af576040517f08c379a00000000000000000000000000000000000000000000000000000000081526004016125a6906148e1565b60405180910390fd5b60016006600083815260200190815260200160002060020180549050141561277a576001600960003373ffffffffffffffffffffffffffffffffffffffff1673ffffffffffffffffffffffffffffffffffffffff168152602001908152602001600020600083815260200190815260200160002060000160006101000a81548160ff0219169083151502179055506006600082815260200190815260200160002060060154600960003373ffffffffffffffffffffffffffffffffffffffff1673ffffffffffffffffffffffffffffffffffffffff16815260200190815260200160002060008381526020019081526020016000206001018190555060066000828152602001908152602001600020600a01339080600181540180825580915050600190039060005260206000200160009091909190916101000a81548173ffffffffffffffffffffffffffffffffffffffff021916908373ffffffffffffffffffffffffffffffffffffffff160217905550600660008281526020019081526020016000206009016006600083815260200190815260200160002060060154908060018154018082558091505060019003906000526020600020016000909190919091505561339f565b60006127846105fa565b9050806006600084815260200190815260200160002060080160006101000a81548160ff021916908360ff1602179055506000600660008481526020019081526020016000206002018054905067ffffffffffffffff8111156127ea576127e9613f52565b5b6040519080825280602002602001820160405280156128185781602001602082028036833780820191505090505b5090506000600660008581526020019081526020016000206003018054905067ffffffffffffffff8111156128505761284f613f52565b5b60405190808252806020026020018201604052801561287e5781602001602082028036833780820191505090505b5090506006600085815260200190815260200160002060020180548060200260200160405190810160405280929190818152602001828054801561291757602002820191906000526020600020905b8160009054906101000a900473ffffffffffffffffffffffffffffffffffffffff1673ffffffffffffffffffffffffffffffffffffffff16815260200190600101908083116128cd575b50505050509150600660008581526020019081526020016000206003018054806020026020016040519081016040528092919081815260200182805480156129a457602002820191906000526020600020906000905b82829054906101000a900460ff1660ff168152602001906001019060208260000104928301926001038202915080841161296d5790505b505050505090506000815167ffffffffffffffff8111156129c8576129c7613f52565b5b6040519080825280602002602001820160405280156129f65781602001602082028036833780820191505090505b50905060005b8351811015612b37578460ff16838281518110612a1c57612a1b613fdb565b5b602002602001015160ff161115612a7f5784838281518110612a4157612a40613fdb565b5b6020026020010151612a539190614901565b828281518110612a6657612a65613fdb565b5b602002602001019060ff16908160ff1681525050612b24565b8460ff16838281518110612a9657612a95613fdb565b5b602002602001015160ff161015612af957828181518110612aba57612ab9613fdb565b5b602002602001015185612acd9190614901565b828281518110612ae057612adf613fdb565b5b602002602001019060ff16908160ff1681525050612b23565b6000828281518110612b0e57612b0d613fdb565b5b602002602001019060ff16908160ff16815250505b5b8080612b2f90613e99565b9150506129fc565b50600060038251612b489190614270565b90506000811415612b5857600190505b60008167ffffffffffffffff811115612b7457612b73613f52565b5b604051908082528060200260200182016040528015612ba25781602001602082028036833780820191505090505b50905060008267ffffffffffffffff811115612bc157612bc0613f52565b5b604051908082528060200260200182016040528015612bef5781602001602082028036833780820191505090505b50905060005b83811015612d4e57600060649050600080600090505b88518160ff161015612c79578260ff16888260ff1681518110612c3157612c30613fdb565b5b602002602001015160ff161015612c6657809150878160ff1681518110612c5b57612c5a613fdb565b5b602002602001015192505b8080612c7190614935565b915050612c0b565b506064878260ff1681518110612c9257612c91613fdb565b5b602002602001019060ff16908160ff168152505080858481518110612cba57612cb9613fdb565b5b602002602001019060ff16908160ff1681525050888160ff1681518110612ce457612ce3613fdb565b5b6020026020010151848481518110612cff57612cfe613fdb565b5b602002602001019073ffffffffffffffffffffffffffffffffffffffff16908173ffffffffffffffffffffffffffffffffffffffff168152505050508080612d4690613e99565b915050612bf5565b5060018311156131a1576000600660008a81526020019081526020016000206006015490506000600390506000600290505b8351811015612db7576001600283612d98919061495f565b612da2919061499a565b91508080612daf90613e99565b915050612d80565b5060008160ff1683612dc99190614270565b9050600060018551612ddb9190613ee2565b90505b6000811115612fcf578160096000878481518110612dff57612dfe613fdb565b5b602002602001015173ffffffffffffffffffffffffffffffffffffffff1673ffffffffffffffffffffffffffffffffffffffff16815260200190815260200160002060008e815260200190815260200160002060010181905550600160096000878481518110612e7257612e71613fdb565b5b602002602001015173ffffffffffffffffffffffffffffffffffffffff1673ffffffffffffffffffffffffffffffffffffffff16815260200190815260200160002060008e815260200190815260200160002060000160006101000a81548160ff021916908315150217905550600660008d8152602001908152602001600020600901829080600181540180825580915050600190039060005260206000200160009091909190915055600660008d8152602001908152602001600020600a01858281518110612f4557612f44613fdb565b5b60200260200101519080600181540180825580915050600190039060005260206000200160009091909190916101000a81548173ffffffffffffffffffffffffffffffffffffffff021916908373ffffffffffffffffffffffffffffffffffffffff160217905550600282612fba9190613f81565b91508080612fc7906149d1565b915050612dde565b50806009600086600081518110612fe957612fe8613fdb565b5b602002602001015173ffffffffffffffffffffffffffffffffffffffff1673ffffffffffffffffffffffffffffffffffffffff16815260200190815260200160002060008d8152602001908152602001600020600101819055506001600960008660008151811061305d5761305c613fdb565b5b602002602001015173ffffffffffffffffffffffffffffffffffffffff1673ffffffffffffffffffffffffffffffffffffffff16815260200190815260200160002060008d815260200190815260200160002060000160006101000a81548160ff021916908315150217905550600660008c8152602001908152602001600020600901819080600181540180825580915050600190039060005260206000200160009091909190915055600660008c8152602001908152602001600020600a018460008151811061313157613130613fdb565b5b60200260200101519080600181540180825580915050600190039060005260206000200160009091909190916101000a81548173ffffffffffffffffffffffffffffffffffffffff021916908373ffffffffffffffffffffffffffffffffffffffff160217905550505050613397565b600160096000836000815181106131bb576131ba613fdb565b5b602002602001015173ffffffffffffffffffffffffffffffffffffffff1673ffffffffffffffffffffffffffffffffffffffff16815260200190815260200160002060008a815260200190815260200160002060000160006101000a81548160ff0219169083151502179055506006600089815260200190815260200160002060060154600960008360008151811061325757613256613fdb565b5b602002602001015173ffffffffffffffffffffffffffffffffffffffff1673ffffffffffffffffffffffffffffffffffffffff16815260200190815260200160002060008a81526020019081526020016000206001018190555060066000898152602001908152602001600020600901600660008a815260200190815260200160002060060154908060018154018082558091505060019003906000526020600020016000909190919091505560066000898152602001908152602001600020600a018160008151811061332e5761332d613fdb565b5b60200260200101519080600181540180825580915050600190039060005260206000200160009091909190916101000a81548173ffffffffffffffffffffffffffffffffffffffff021916908373ffffffffffffffffffffffffffffffffffffffff1602179055505b505050505050505b60016006600083815260200190815260200160002060000160146101000a81548160ff0219169083151502179055508060038190555050565b60006007600084815260200190815260200160002060008373ffffffffffffffffffffffffffffffffffffffff1673ffffffffffffffffffffffffffffffffffffffff16815260200190815260200160002060000160019054906101000a900460ff16905092915050565b61344b613537565b60008161ffff161415613493576040517f08c379a000000000000000000000000000000000000000000000000000000000815260040161348a90614a47565b60405180910390fd5b80600460026101000a81548161ffff021916908361ffff16021790555050565b6134bb613537565b600073ffffffffffffffffffffffffffffffffffffffff168173ffffffffffffffffffffffffffffffffffffffff16141561352b576040517f08c379a000000000000000000000000000000000000000000000000000000000815260040161352290614ad9565b60405180910390fd5b613534816135b5565b50565b61353f613679565b73ffffffffffffffffffffffffffffffffffffffff1661355d611976565b73ffffffffffffffffffffffffffffffffffffffff16146135b3576040517f08c379a00000000000000000000000000000000000000000000000000000000081526004016135aa90614b45565b60405180910390fd5b565b60008060009054906101000a900473ffffffffffffffffffffffffffffffffffffffff169050816000806101000a81548173ffffffffffffffffffffffffffffffffffffffff021916908373ffffffffffffffffffffffffffffffffffffffff1602179055508173ffffffffffffffffffffffffffffffffffffffff168173ffffffffffffffffffffffffffffffffffffffff167f8be0079c531659141344cd1fd0a4f28419497f9722a3daafe3b4186f6b6457e060405160405180910390a35050565b600033905090565b600060ff82169050919050565b61369781613681565b82525050565b60006020820190506136b2600083018461368e565b92915050565b600080fd5b600073ffffffffffffffffffffffffffffffffffffffff82169050919050565b60006136e8826136bd565b9050919050565b6136f8816136dd565b811461370357600080fd5b50565b600081359050613715816136ef565b92915050565b600060208284031215613731576137306136b8565b5b600061373f84828501613706565b91505092915050565b600081519050919050565b600082825260208201905092915050565b6000819050602082019050919050565b6000819050919050565b61378781613774565b82525050565b6000613799838361377e565b60208301905092915050565b6000602082019050919050565b60006137bd82613748565b6137c78185613753565b93506137d283613764565b8060005b838110156138035781516137ea888261378d565b97506137f5836137a5565b9250506001810190506137d6565b5085935050505092915050565b6000602082019050818103600083015261382a81846137b2565b905092915050565b61383b81613681565b811461384657600080fd5b50565b60008135905061385881613832565b92915050565b60008060408385031215613875576138746136b8565b5b600061388385828601613849565b925050602061389485828601613849565b9150509250929050565b600061ffff82169050919050565b6138b58161389e565b82525050565b60006020820190506138d060008301846138ac565b92915050565b6138df81613774565b81146138ea57600080fd5b50565b6000813590506138fc816138d6565b92915050565b60008060408385031215613919576139186136b8565b5b6000613927858286016138ed565b925050602061393885828601613706565b9150509250929050565b60008115159050919050565b61395781613942565b82525050565b6000604082019050613972600083018561394e565b61397f602083018461368e565b9392505050565b60006020828403121561399c5761399b6136b8565b5b60006139aa848285016138ed565b91505092915050565b6139bc8161389e565b81146139c757600080fd5b50565b6000813590506139d9816139b3565b92915050565b6000602082840312156139f5576139f46136b8565b5b6000613a03848285016139ca565b91505092915050565b600081519050919050565b600082825260208201905092915050565b6000819050602082019050919050565b613a4181613681565b82525050565b6000613a538383613a38565b60208301905092915050565b6000602082019050919050565b6000613a7782613a0c565b613a818185613a17565b9350613a8c83613a28565b8060005b83811015613abd578151613aa48882613a47565b9750613aaf83613a5f565b925050600181019050613a90565b5085935050505092915050565b60006020820190508181036000830152613ae48184613a6c565b905092915050565b613af5816136dd565b82525050565b613b0481613774565b82525050565b600061010082019050613b20600083018b613aec565b613b2d602083018a61394e565b613b3a6040830189613afb565b613b476060830188613afb565b613b546080830187613afb565b613b6160a0830186613afb565b613b6e60c0830185613afb565b613b7b60e083018461368e565b9998505050505050505050565b6000602082019050613b9d6000830184613aec565b92915050565b60008060408385031215613bba57613bb96136b8565b5b6000613bc885828601613706565b9250506020613bd9858286016138ed565b9150509250929050565b6000606082019050613bf8600083018661394e565b613c05602083018561394e565b613c126040830184613afb565b949350505050565b60008060408385031215613c3157613c306136b8565b5b6000613c3f858286016138ed565b9250506020613c5085828601613849565b9150509250929050565b600081519050919050565b600082825260208201905092915050565b6000819050602082019050919050565b613c8f816136dd565b82525050565b6000613ca18383613c86565b60208301905092915050565b6000602082019050919050565b6000613cc582613c5a565b613ccf8185613c65565b9350613cda83613c76565b8060005b83811015613d0b578151613cf28882613c95565b9750613cfd83613cad565b925050600181019050613cde565b5085935050505092915050565b60006060820190508181036000830152613d3281866137b2565b90508181036020830152613d468185613cba565b90508181036040830152613d5a81846137b2565b9050949350505050565b6000819050919050565b613d7f613d7a82613774565b613d64565b82525050565b60008160601b9050919050565b6000613d9d82613d85565b9050919050565b6000613daf82613d92565b9050919050565b613dc7613dc2826136dd565b613da4565b82525050565b6000613dd98286613d6e565b602082019150613de98285613db6565b601482019150613df98284613d6e565b602082019150819050949350505050565b7f4e487b7100000000000000000000000000000000000000000000000000000000600052601260045260246000fd5b6000613e4482613774565b9150613e4f83613774565b925082613e5f57613e5e613e0a565b5b828206905092915050565b7f4e487b7100000000000000000000000000000000000000000000000000000000600052601160045260246000fd5b6000613ea482613774565b91507fffffffffffffffffffffffffffffffffffffffffffffffffffffffffffffffff821415613ed757613ed6613e6a565b5b600182019050919050565b6000613eed82613774565b9150613ef883613774565b925082821015613f0b57613f0a613e6a565b5b828203905092915050565b6000613f218261389e565b9150613f2c8361389e565b92508161ffff0483118215151615613f4757613f46613e6a565b5b828202905092915050565b7f4e487b7100000000000000000000000000000000000000000000000000000000600052604160045260246000fd5b6000613f8c82613774565b9150613f9783613774565b9250817fffffffffffffffffffffffffffffffffffffffffffffffffffffffffffffffff0483118215151615613fd057613fcf613e6a565b5b828202905092915050565b7f4e487b7100000000000000000000000000000000000000000000000000000000600052603260045260246000fd5b600061401582613774565b915061402083613774565b9250827fffffffffffffffffffffffffffffffffffffffffffffffffffffffffffffffff0382111561405557614054613e6a565b5b828201905092915050565b600082825260208201905092915050565b7f43686f6f7365206e756d626572206265747765656e203020616e642031303000600082015250565b60006140a7601f83614060565b91506140b282614071565b602082019050919050565b600060208201905081810360008301526140d68161409a565b9050919050565b7f467265652067616d657320617265206e6f7420737570706f727465642068657260008201527f6521000000000000000000000000000000000000000000000000000000000000602082015250565b6000614139602283614060565b9150614144826140dd565b604082019050919050565b600060208201905081810360008301526141688161412c565b9050919050565b60006040820190506141846000830185613afb565b6141916020830184613afb565b9392505050565b7f596f7520617265206e6f7420612077696e6e6572206f66207468652067616d65600082015250565b60006141ce602083614060565b91506141d982614198565b602082019050919050565b600060208201905081810360008301526141fd816141c1565b9050919050565b7f5072697a6520697320636c61696d656420616c72656164790000000000000000600082015250565b600061423a601883614060565b915061424582614204565b602082019050919050565b600060208201905081810360008301526142698161422d565b9050919050565b600061427b82613774565b915061428683613774565b92508261429657614295613e0a565b5b828204905092915050565b600081905092915050565b50565b60006142bc6000836142a1565b91506142c7826142ac565b600082019050919050565b60006142dd826142af565b9150819050919050565b7f5472616e7366657273206e6f7420737563636573730000000000000000000000600082015250565b600061431d601583614060565b9150614328826142e7565b602082019050919050565b6000602082019050818103600083015261434c81614310565b9050919050565b7f4e6577206665652070657263656e74206973206c657373207468616e2031303060008201527f3030000000000000000000000000000000000000000000000000000000000000602082015250565b60006143af602283614060565b91506143ba82614353565b604082019050919050565b600060208201905081810360008301526143de816143a2565b9050919050565b7f5573657247616d6573546f52657475726e4e756d626572206861766520746f2060008201527f6265206d6f7265207468616e2033300000000000000000000000000000000000602082015250565b6000614441602f83614060565b915061444c826143e5565b604082019050919050565b6000602082019050818103600083015261447081614434565b9050919050565b7f4e65772057616c6c657420697320616464726573732830290000000000000000600082015250565b60006144ad601883614060565b91506144b882614477565b602082019050919050565b600060208201905081810360008301526144dc816144a0565b9050919050565b7f5468652067616d652069732066696e6973686564000000000000000000000000600082015250565b6000614519601483614060565b9150614524826144e3565b602082019050919050565b600060208201905081810360008301526145488161450c565b9050919050565b7f56616c7565206f6620746865207472616e73616374696f6e2073686f756c642060008201527f626520657175616c20746f207468652067616d65000000000000000000000000602082015250565b60006145ab603483614060565b91506145b68261454f565b604082019050919050565b600060208201905081810360008301526145da8161459e565b9050919050565b7f4f776e657220697320616c726561647920696e207061727469636970616e747360008201527f206c697374000000000000000000000000000000000000000000000000000000602082015250565b600061463d602583614060565b9150614648826145e1565b604082019050919050565b6000602082019050818103600083015261466c81614630565b9050919050565b7f596f752063616e206e6f74206a6f696e20747769636500000000000000000000600082015250565b60006146a9601683614060565b91506146b482614673565b602082019050919050565b600060208201905081810360008301526146d88161469c565b9050919050565b7f5061727469636970616e7473206c696d697420686173206265656e207265616360008201527f6865640000000000000000000000000000000000000000000000000000000000602082015250565b600061473b602383614060565b9150614746826146df565b604082019050919050565b6000602082019050818103600083015261476a8161472e565b9050919050565b7f5468652067616d652069732066696e697368656420616c726561647900000000600082015250565b60006147a7601c83614060565b91506147b282614771565b602082019050919050565b600060208201905081810360008301526147d68161479a565b9050919050565b7f596f752063616e2066696e69736820612067616d65206f6e6c7920616674657260008201527f20657861637420706572696f6400000000000000000000000000000000000000602082015250565b6000614839602d83614060565b9150614844826147dd565b604082019050919050565b600060208201905081810360008301526148688161482c565b9050919050565b7f4f6e6c79207061727469636970616e74732063616e2066696e6973682061206760008201527f616d650000000000000000000000000000000000000000000000000000000000602082015250565b60006148cb602383614060565b91506148d68261486f565b604082019050919050565b600060208201905081810360008301526148fa816148be565b9050919050565b600061490c82613681565b915061491783613681565b92508282101561492a57614929613e6a565b5b828203905092915050565b600061494082613681565b915060ff82141561495457614953613e6a565b5b600182019050919050565b600061496a82613681565b915061497583613681565b92508160ff048311821515161561498f5761498e613e6a565b5b828202905092915050565b60006149a582613681565b91506149b083613681565b92508260ff038211156149c6576149c5613e6a565b5b828201905092915050565b60006149dc82613774565b915060008214156149f0576149ef613e6a565b5b600182039050919050565b7f54696d6520746f2066696e69736820697320657175616c20746f203000000000600082015250565b6000614a31601c83614060565b9150614a3c826149fb565b602082019050919050565b60006020820190508181036000830152614a6081614a24565b9050919050565b7f4f776e61626c653a206e6577206f776e657220697320746865207a65726f206160008201527f6464726573730000000000000000000000000000000000000000000000000000602082015250565b6000614ac3602683614060565b9150614ace82614a67565b604082019050919050565b60006020820190508181036000830152614af281614ab6565b9050919050565b7f4f776e61626c653a2063616c6c6572206973206e6f7420746865206f776e6572600082015250565b6000614b2f602083614060565b9150614b3a82614af9565b602082019050919050565b60006020820190508181036000830152614b5e81614b22565b905091905056fea26469706673582212203cc493c89768fe23223a437eded9587183babf656076cd37c00d845483d679da64736f6c634300080b0033",
  "linkReferences": {},
  "deployedLinkReferences": {}
}